{
	"solidity/IntToRoman.sol": {
		"IntToRoman": {
			"abi": [
				{
					"inputs": [],
					"stateMutability": "nonpayable",
					"type": "constructor"
				},
				{
					"inputs": [
						{
							"internalType": "uint256",
							"name": "num",
							"type": "uint256"
						}
					],
					"name": "intToRoman",
					"outputs": [
						{
							"internalType": "string",
							"name": "",
							"type": "string"
						}
					],
					"stateMutability": "view",
					"type": "function"
				}
			],
			"devdoc": {
				"kind": "dev",
				"methods": {},
				"version": 1
			},
			"evm": {
				"assembly": "    /* \"solidity/IntToRoman.sol\":57:1471  contract IntToRoman {... */\n  mstore(0x40, 0x80)\n    /* \"solidity/IntToRoman.sol\":137:540  constructor() {... */\n  callvalue\n  dup1\n  iszero\n  tag_1\n  jumpi\n  revert(0x00, 0x00)\ntag_1:\n  pop\n    /* \"solidity/IntToRoman.sol\":161:174  dict[1] = \"I\" */\n  0x4900000000000000000000000000000000000000000000000000000000000000\n    /* \"solidity/IntToRoman.sol\":161:165  dict */\n  0x00\n    /* \"solidity/IntToRoman.sol\":161:168  dict[1] */\n  0x00\n    /* \"solidity/IntToRoman.sol\":166:167  1 */\n  0x01\n    /* \"solidity/IntToRoman.sol\":161:168  dict[1] */\n  dup2\n  mstore\n  0x20\n  add\n  swap1\n  dup2\n  mstore\n  0x20\n  add\n  0x00\n  keccak256\n  0x00\n    /* \"solidity/IntToRoman.sol\":161:174  dict[1] = \"I\" */\n  0x0100\n  exp\n  dup2\n  sload\n  dup2\n  0xff\n  mul\n  not\n  and\n  swap1\n  dup4\n  0xf8\n  shr\n  mul\n  or\n  swap1\n  sstore\n  pop\n    /* \"solidity/IntToRoman.sol\":194:205  bytes1('V') */\n  0x5600000000000000000000000000000000000000000000000000000000000000\n    /* \"solidity/IntToRoman.sol\":184:188  dict */\n  0x00\n    /* \"solidity/IntToRoman.sol\":184:191  dict[5] */\n  0x00\n    /* \"solidity/IntToRoman.sol\":189:190  5 */\n  0x05\n    /* \"solidity/IntToRoman.sol\":184:191  dict[5] */\n  dup2\n  mstore\n  0x20\n  add\n  swap1\n  dup2\n  mstore\n  0x20\n  add\n  0x00\n  keccak256\n  0x00\n    /* \"solidity/IntToRoman.sol\":184:205  dict[5] = bytes1('V') */\n  0x0100\n  exp\n  dup2\n  sload\n  dup2\n  0xff\n  mul\n  not\n  and\n  swap1\n  dup4\n  0xf8\n  shr\n  mul\n  or\n  swap1\n  sstore\n  pop\n    /* \"solidity/IntToRoman.sol\":226:237  bytes1('X') */\n  0x5800000000000000000000000000000000000000000000000000000000000000\n    /* \"solidity/IntToRoman.sol\":215:219  dict */\n  0x00\n    /* \"solidity/IntToRoman.sol\":215:223  dict[10] */\n  0x00\n    /* \"solidity/IntToRoman.sol\":220:222  10 */\n  0x0a\n    /* \"solidity/IntToRoman.sol\":215:223  dict[10] */\n  dup2\n  mstore\n  0x20\n  add\n  swap1\n  dup2\n  mstore\n  0x20\n  add\n  0x00\n  keccak256\n  0x00\n    /* \"solidity/IntToRoman.sol\":215:237  dict[10] = bytes1('X') */\n  0x0100\n  exp\n  dup2\n  sload\n  dup2\n  0xff\n  mul\n  not\n  and\n  swap1\n  dup4\n  0xf8\n  shr\n  mul\n  or\n  swap1\n  sstore\n  pop\n    /* \"solidity/IntToRoman.sol\":258:269  bytes1('L') */\n  0x4c00000000000000000000000000000000000000000000000000000000000000\n    /* \"solidity/IntToRoman.sol\":247:251  dict */\n  0x00\n    /* \"solidity/IntToRoman.sol\":247:255  dict[50] */\n  0x00\n    /* \"solidity/IntToRoman.sol\":252:254  50 */\n  0x32\n    /* \"solidity/IntToRoman.sol\":247:255  dict[50] */\n  dup2\n  mstore\n  0x20\n  add\n  swap1\n  dup2\n  mstore\n  0x20\n  add\n  0x00\n  keccak256\n  0x00\n    /* \"solidity/IntToRoman.sol\":247:269  dict[50] = bytes1('L') */\n  0x0100\n  exp\n  dup2\n  sload\n  dup2\n  0xff\n  mul\n  not\n  and\n  swap1\n  dup4\n  0xf8\n  shr\n  mul\n  or\n  swap1\n  sstore\n  pop\n    /* \"solidity/IntToRoman.sol\":291:302  bytes1('C') */\n  0x4300000000000000000000000000000000000000000000000000000000000000\n    /* \"solidity/IntToRoman.sol\":279:283  dict */\n  0x00\n    /* \"solidity/IntToRoman.sol\":279:288  dict[100] */\n  0x00\n    /* \"solidity/IntToRoman.sol\":284:287  100 */\n  0x64\n    /* \"solidity/IntToRoman.sol\":279:288  dict[100] */\n  dup2\n  mstore\n  0x20\n  add\n  swap1\n  dup2\n  mstore\n  0x20\n  add\n  0x00\n  keccak256\n  0x00\n    /* \"solidity/IntToRoman.sol\":279:302  dict[100] = bytes1('C') */\n  0x0100\n  exp\n  dup2\n  sload\n  dup2\n  0xff\n  mul\n  not\n  and\n  swap1\n  dup4\n  0xf8\n  shr\n  mul\n  or\n  swap1\n  sstore\n  pop\n    /* \"solidity/IntToRoman.sol\":324:335  bytes1('D') */\n  0x4400000000000000000000000000000000000000000000000000000000000000\n    /* \"solidity/IntToRoman.sol\":312:316  dict */\n  0x00\n    /* \"solidity/IntToRoman.sol\":312:321  dict[500] */\n  0x00\n    /* \"solidity/IntToRoman.sol\":317:320  500 */\n  0x01f4\n    /* \"solidity/IntToRoman.sol\":312:321  dict[500] */\n  dup2\n  mstore\n  0x20\n  add\n  swap1\n  dup2\n  mstore\n  0x20\n  add\n  0x00\n  keccak256\n  0x00\n    /* \"solidity/IntToRoman.sol\":312:335  dict[500] = bytes1('D') */\n  0x0100\n  exp\n  dup2\n  sload\n  dup2\n  0xff\n  mul\n  not\n  and\n  swap1\n  dup4\n  0xf8\n  shr\n  mul\n  or\n  swap1\n  sstore\n  pop\n    /* \"solidity/IntToRoman.sol\":358:369  bytes1('M') */\n  0x4d00000000000000000000000000000000000000000000000000000000000000\n    /* \"solidity/IntToRoman.sol\":345:349  dict */\n  0x00\n    /* \"solidity/IntToRoman.sol\":345:355  dict[1000] */\n  0x00\n    /* \"solidity/IntToRoman.sol\":350:354  1000 */\n  0x03e8\n    /* \"solidity/IntToRoman.sol\":345:355  dict[1000] */\n  dup2\n  mstore\n  0x20\n  add\n  swap1\n  dup2\n  mstore\n  0x20\n  add\n  0x00\n  keccak256\n  0x00\n    /* \"solidity/IntToRoman.sol\":345:369  dict[1000] = bytes1('M') */\n  0x0100\n  exp\n  dup2\n  sload\n  dup2\n  0xff\n  mul\n  not\n  and\n  swap1\n  dup4\n  0xf8\n  shr\n  mul\n  or\n  swap1\n  sstore\n  pop\n    /* \"solidity/IntToRoman.sol\":379:383  nums */\n  0x01\n    /* \"solidity/IntToRoman.sol\":389:393  1000 */\n  0x03e8\n    /* \"solidity/IntToRoman.sol\":379:394  nums.push(1000) */\n  swap1\n  dup1\n  0x01\n  dup2\n  sload\n  add\n  dup1\n  dup3\n  sstore\n  dup1\n  swap2\n  pop\n  pop\n  0x01\n  swap1\n  sub\n  swap1\n  0x00\n  mstore\n  keccak256(0x00, 0x20)\n  add\n  0x00\n  swap1\n  swap2\n  swap1\n  swap2\n  swap1\n  swap2\n  pop\n  sstore\n    /* \"solidity/IntToRoman.sol\":404:408  nums */\n  0x01\n    /* \"solidity/IntToRoman.sol\":415:418  500 */\n  0x01f4\n    /* \"solidity/IntToRoman.sol\":404:419  nums.push( 500) */\n  swap1\n  dup1\n  0x01\n  dup2\n  sload\n  add\n  dup1\n  dup3\n  sstore\n  dup1\n  swap2\n  pop\n  pop\n  0x01\n  swap1\n  sub\n  swap1\n  0x00\n  mstore\n  keccak256(0x00, 0x20)\n  add\n  0x00\n  swap1\n  swap2\n  swap1\n  swap2\n  swap1\n  swap2\n  pop\n  sstore\n    /* \"solidity/IntToRoman.sol\":429:433  nums */\n  0x01\n    /* \"solidity/IntToRoman.sol\":439:442  100 */\n  0x64\n    /* \"solidity/IntToRoman.sol\":429:443  nums.push(100) */\n  swap1\n  dup1\n  0x01\n  dup2\n  sload\n  add\n  dup1\n  dup3\n  sstore\n  dup1\n  swap2\n  pop\n  pop\n  0x01\n  swap1\n  sub\n  swap1\n  0x00\n  mstore\n  keccak256(0x00, 0x20)\n  add\n  0x00\n  swap1\n  swap2\n  swap1\n  swap2\n  swap1\n  swap2\n  pop\n  sstore\n    /* \"solidity/IntToRoman.sol\":453:457  nums */\n  0x01\n    /* \"solidity/IntToRoman.sol\":463:465  50 */\n  0x32\n    /* \"solidity/IntToRoman.sol\":453:466  nums.push(50) */\n  swap1\n  dup1\n  0x01\n  dup2\n  sload\n  add\n  dup1\n  dup3\n  sstore\n  dup1\n  swap2\n  pop\n  pop\n  0x01\n  swap1\n  sub\n  swap1\n  0x00\n  mstore\n  keccak256(0x00, 0x20)\n  add\n  0x00\n  swap1\n  swap2\n  swap1\n  swap2\n  swap1\n  swap2\n  pop\n  sstore\n    /* \"solidity/IntToRoman.sol\":476:480  nums */\n  0x01\n    /* \"solidity/IntToRoman.sol\":486:488  10 */\n  0x0a\n    /* \"solidity/IntToRoman.sol\":476:489  nums.push(10) */\n  swap1\n  dup1\n  0x01\n  dup2\n  sload\n  add\n  dup1\n  dup3\n  sstore\n  dup1\n  swap2\n  pop\n  pop\n  0x01\n  swap1\n  sub\n  swap1\n  0x00\n  mstore\n  keccak256(0x00, 0x20)\n  add\n  0x00\n  swap1\n  swap2\n  swap1\n  swap2\n  swap1\n  swap2\n  pop\n  sstore\n    /* \"solidity/IntToRoman.sol\":499:503  nums */\n  0x01\n    /* \"solidity/IntToRoman.sol\":509:510  5 */\n  0x05\n    /* \"solidity/IntToRoman.sol\":499:511  nums.push(5) */\n  swap1\n  dup1\n  0x01\n  dup2\n  sload\n  add\n  dup1\n  dup3\n  sstore\n  dup1\n  swap2\n  pop\n  pop\n  0x01\n  swap1\n  sub\n  swap1\n  0x00\n  mstore\n  keccak256(0x00, 0x20)\n  add\n  0x00\n  swap1\n  swap2\n  swap1\n  swap2\n  swap1\n  swap2\n  pop\n  sstore\n    /* \"solidity/IntToRoman.sol\":521:525  nums */\n  0x01\n    /* \"solidity/IntToRoman.sol\":531:532  1 */\n  dup1\n    /* \"solidity/IntToRoman.sol\":521:533  nums.push(1) */\n  dup1\n  0x01\n  dup2\n  sload\n  add\n  dup1\n  dup3\n  sstore\n  dup1\n  swap2\n  pop\n  pop\n  0x01\n  swap1\n  sub\n  swap1\n  0x00\n  mstore\n  keccak256(0x00, 0x20)\n  add\n  0x00\n  swap1\n  swap2\n  swap1\n  swap2\n  swap1\n  swap2\n  pop\n  sstore\n    /* \"solidity/IntToRoman.sol\":57:1471  contract IntToRoman {... */\n  dataSize(sub_0)\n  dup1\n  dataOffset(sub_0)\n  0x00\n  codecopy\n  0x00\n  return\nstop\n\nsub_0: assembly {\n        /* \"solidity/IntToRoman.sol\":57:1471  contract IntToRoman {... */\n      mstore(0x40, 0x80)\n      callvalue\n      dup1\n      iszero\n      tag_1\n      jumpi\n      revert(0x00, 0x00)\n    tag_1:\n      pop\n      jumpi(tag_2, lt(calldatasize, 0x04))\n      shr(0xe0, calldataload(0x00))\n      dup1\n      0x0cbc513a\n      eq\n      tag_3\n      jumpi\n    tag_2:\n      revert(0x00, 0x00)\n        /* \"solidity/IntToRoman.sol\":546:1469  function intToRoman(uint num) public view returns (string memory) {... */\n    tag_3:\n      tag_4\n      0x04\n      dup1\n      calldatasize\n      sub\n      dup2\n      add\n      swap1\n      tag_5\n      swap2\n      swap1\n      tag_6\n      jump\t// in\n    tag_5:\n      tag_7\n      jump\t// in\n    tag_4:\n      mload(0x40)\n      tag_8\n      swap2\n      swap1\n      tag_9\n      jump\t// in\n    tag_8:\n      mload(0x40)\n      dup1\n      swap2\n      sub\n      swap1\n      return\n    tag_7:\n        /* \"solidity/IntToRoman.sol\":597:610  string memory */\n      0x60\n        /* \"solidity/IntToRoman.sol\":622:641  bytes memory result */\n      0x00\n        /* \"solidity/IntToRoman.sol\":654:657  100 */\n      0x64\n        /* \"solidity/IntToRoman.sol\":644:658  new bytes(100) */\n      0xffffffffffffffff\n      dup2\n      gt\n      iszero\n      tag_11\n      jumpi\n      tag_12\n      tag_13\n      jump\t// in\n    tag_12:\n    tag_11:\n      mload(0x40)\n      swap1\n      dup1\n      dup3\n      mstore\n      dup1\n      0x1f\n      add\n      not(0x1f)\n      and\n      0x20\n      add\n      dup3\n      add\n      0x40\n      mstore\n      dup1\n      iszero\n      tag_14\n      jumpi\n      dup2\n      0x20\n      add\n      0x01\n      dup3\n      mul\n      dup1\n      calldatasize\n      dup4\n      calldatacopy\n      dup1\n      dup3\n      add\n      swap2\n      pop\n      pop\n      swap1\n      pop\n    tag_14:\n      pop\n        /* \"solidity/IntToRoman.sol\":622:658  bytes memory result = new bytes(100) */\n      swap1\n      pop\n        /* \"solidity/IntToRoman.sol\":668:674  uint v */\n      0x00\n        /* \"solidity/IntToRoman.sol\":677:680  num */\n      dup4\n        /* \"solidity/IntToRoman.sol\":668:680  uint v = num */\n      swap1\n      pop\n        /* \"solidity/IntToRoman.sol\":690:697  uint ct */\n      0x00\n        /* \"solidity/IntToRoman.sol\":700:701  0 */\n      0x00\n        /* \"solidity/IntToRoman.sol\":690:701  uint ct = 0 */\n      swap1\n      pop\n        /* \"solidity/IntToRoman.sol\":716:723  uint8 i */\n      0x00\n        /* \"solidity/IntToRoman.sol\":726:727  0 */\n      0x00\n        /* \"solidity/IntToRoman.sol\":716:727  uint8 i = 0 */\n      swap1\n      pop\n        /* \"solidity/IntToRoman.sol\":711:1301  for (uint8 i = 0; i< nums.length; i ++){... */\n    tag_15:\n        /* \"solidity/IntToRoman.sol\":732:736  nums */\n      0x01\n        /* \"solidity/IntToRoman.sol\":732:743  nums.length */\n      dup1\n      sload\n      swap1\n      pop\n        /* \"solidity/IntToRoman.sol\":729:730  i */\n      dup2\n        /* \"solidity/IntToRoman.sol\":729:743  i< nums.length */\n      0xff\n      and\n      lt\n        /* \"solidity/IntToRoman.sol\":711:1301  for (uint8 i = 0; i< nums.length; i ++){... */\n      iszero\n      tag_16\n      jumpi\n        /* \"solidity/IntToRoman.sol\":764:779  uint romanCount */\n      0x00\n        /* \"solidity/IntToRoman.sol\":786:790  nums */\n      0x01\n        /* \"solidity/IntToRoman.sol\":791:792  i */\n      dup3\n        /* \"solidity/IntToRoman.sol\":786:793  nums[i] */\n      0xff\n      and\n      dup2\n      sload\n      dup2\n      lt\n      tag_18\n      jumpi\n      tag_19\n      tag_20\n      jump\t// in\n    tag_19:\n    tag_18:\n      swap1\n      0x00\n      mstore\n      keccak256(0x00, 0x20)\n      add\n      sload\n        /* \"solidity/IntToRoman.sol\":782:783  v */\n      dup5\n        /* \"solidity/IntToRoman.sol\":782:793  v / nums[i] */\n      tag_22\n      swap2\n      swap1\n      tag_23\n      jump\t// in\n    tag_22:\n        /* \"solidity/IntToRoman.sol\":764:793  uint romanCount = v / nums[i] */\n      swap1\n      pop\n        /* \"solidity/IntToRoman.sol\":815:819  nums */\n      0x01\n        /* \"solidity/IntToRoman.sol\":820:821  i */\n      dup3\n        /* \"solidity/IntToRoman.sol\":815:822  nums[i] */\n      0xff\n      and\n      dup2\n      sload\n      dup2\n      lt\n      tag_24\n      jumpi\n      tag_25\n      tag_20\n      jump\t// in\n    tag_25:\n    tag_24:\n      swap1\n      0x00\n      mstore\n      keccak256(0x00, 0x20)\n      add\n      sload\n        /* \"solidity/IntToRoman.sol\":811:812  v */\n      dup5\n        /* \"solidity/IntToRoman.sol\":811:822  v % nums[i] */\n      tag_27\n      swap2\n      swap1\n      tag_28\n      jump\t// in\n    tag_27:\n        /* \"solidity/IntToRoman.sol\":807:822  v = v % nums[i] */\n      swap4\n      pop\n        /* \"solidity/IntToRoman.sol\":840:846  uint j */\n      0x00\n        /* \"solidity/IntToRoman.sol\":848:849  0 */\n      0x00\n        /* \"solidity/IntToRoman.sol\":840:849  uint j =0 */\n      swap1\n      pop\n        /* \"solidity/IntToRoman.sol\":836:1291  for(uint j =0; j < romanCount; j ++) {... */\n    tag_29:\n        /* \"solidity/IntToRoman.sol\":855:865  romanCount */\n      dup2\n        /* \"solidity/IntToRoman.sol\":851:852  j */\n      dup2\n        /* \"solidity/IntToRoman.sol\":851:865  j < romanCount */\n      lt\n        /* \"solidity/IntToRoman.sol\":836:1291  for(uint j =0; j < romanCount; j ++) {... */\n      iszero\n      tag_30\n      jumpi\n        /* \"solidity/IntToRoman.sol\":891:899  bytes1 c */\n      0x00\n        /* \"solidity/IntToRoman.sol\":902:906  dict */\n      0x00\n        /* \"solidity/IntToRoman.sol\":902:915  dict[nums[i]] */\n      0x00\n        /* \"solidity/IntToRoman.sol\":907:911  nums */\n      0x01\n        /* \"solidity/IntToRoman.sol\":912:913  i */\n      dup7\n        /* \"solidity/IntToRoman.sol\":907:914  nums[i] */\n      0xff\n      and\n      dup2\n      sload\n      dup2\n      lt\n      tag_32\n      jumpi\n      tag_33\n      tag_20\n      jump\t// in\n    tag_33:\n    tag_32:\n      swap1\n      0x00\n      mstore\n      keccak256(0x00, 0x20)\n      add\n      sload\n        /* \"solidity/IntToRoman.sol\":902:915  dict[nums[i]] */\n      dup2\n      mstore\n      0x20\n      add\n      swap1\n      dup2\n      mstore\n      0x20\n      add\n      0x00\n      keccak256\n      0x00\n      swap1\n      sload\n      swap1\n      0x0100\n      exp\n      swap1\n      div\n      0xf8\n      shl\n        /* \"solidity/IntToRoman.sol\":891:915  bytes1 c = dict[nums[i]] */\n      swap1\n      pop\n        /* \"solidity/IntToRoman.sol\":943:949  result */\n      dup7\n        /* \"solidity/IntToRoman.sol\":943:956  result.length */\n      mload\n        /* \"solidity/IntToRoman.sol\":937:939  ct */\n      dup6\n        /* \"solidity/IntToRoman.sol\":937:956  ct >= result.length */\n      lt\n        /* \"solidity/IntToRoman.sol\":933:1222  if (ct >= result.length) {... */\n      tag_35\n      jumpi\n        /* \"solidity/IntToRoman.sol\":980:1000  bytes memory result1 */\n      0x00\n        /* \"solidity/IntToRoman.sol\":1003:1009  result */\n      dup8\n        /* \"solidity/IntToRoman.sol\":980:1009  bytes memory result1 = result */\n      swap1\n      pop\n        /* \"solidity/IntToRoman.sol\":1066:1069  100 */\n      0x64\n        /* \"solidity/IntToRoman.sol\":1050:1056  result */\n      dup9\n        /* \"solidity/IntToRoman.sol\":1050:1063  result.length */\n      mload\n        /* \"solidity/IntToRoman.sol\":1050:1069  result.length + 100 */\n      tag_36\n      swap2\n      swap1\n      tag_37\n      jump\t// in\n    tag_36:\n        /* \"solidity/IntToRoman.sol\":1040:1070  new bytes(result.length + 100) */\n      0xffffffffffffffff\n      dup2\n      gt\n      iszero\n      tag_38\n      jumpi\n      tag_39\n      tag_13\n      jump\t// in\n    tag_39:\n    tag_38:\n      mload(0x40)\n      swap1\n      dup1\n      dup3\n      mstore\n      dup1\n      0x1f\n      add\n      not(0x1f)\n      and\n      0x20\n      add\n      dup3\n      add\n      0x40\n      mstore\n      dup1\n      iszero\n      tag_40\n      jumpi\n      dup2\n      0x20\n      add\n      0x01\n      dup3\n      mul\n      dup1\n      calldatasize\n      dup4\n      calldatacopy\n      dup1\n      dup3\n      add\n      swap2\n      pop\n      pop\n      swap1\n      pop\n    tag_40:\n      pop\n        /* \"solidity/IntToRoman.sol\":1031:1070  result = new bytes(result.length + 100) */\n      swap8\n      pop\n        /* \"solidity/IntToRoman.sol\":1096:1102  uint k */\n      0x00\n        /* \"solidity/IntToRoman.sol\":1105:1106  0 */\n      0x00\n        /* \"solidity/IntToRoman.sol\":1096:1106  uint k = 0 */\n      swap1\n      pop\n        /* \"solidity/IntToRoman.sol\":1092:1204  for(uint k = 0; k < result1.length; k ++){... */\n    tag_41:\n        /* \"solidity/IntToRoman.sol\":1112:1119  result1 */\n      dup2\n        /* \"solidity/IntToRoman.sol\":1112:1126  result1.length */\n      mload\n        /* \"solidity/IntToRoman.sol\":1108:1109  k */\n      dup2\n        /* \"solidity/IntToRoman.sol\":1108:1126  k < result1.length */\n      lt\n        /* \"solidity/IntToRoman.sol\":1092:1204  for(uint k = 0; k < result1.length; k ++){... */\n      iszero\n      tag_42\n      jumpi\n        /* \"solidity/IntToRoman.sol\":1171:1178  result1 */\n      dup2\n        /* \"solidity/IntToRoman.sol\":1179:1180  k */\n      dup2\n        /* \"solidity/IntToRoman.sol\":1171:1181  result1[k] */\n      dup2\n      mload\n      dup2\n      lt\n      tag_44\n      jumpi\n      tag_45\n      tag_20\n      jump\t// in\n    tag_45:\n    tag_44:\n      0x20\n      add\n      add\n      mload\n      0xf8\n      shr\n      0xf8\n      shl\n        /* \"solidity/IntToRoman.sol\":1159:1165  result */\n      dup10\n        /* \"solidity/IntToRoman.sol\":1166:1167  k */\n      dup3\n        /* \"solidity/IntToRoman.sol\":1159:1168  result[k] */\n      dup2\n      mload\n      dup2\n      lt\n      tag_46\n      jumpi\n      tag_47\n      tag_20\n      jump\t// in\n    tag_47:\n    tag_46:\n      0x20\n      add\n      add\n        /* \"solidity/IntToRoman.sol\":1159:1181  result[k] = result1[k] */\n      swap1\n      not(0xffffffffffffffffffffffffffffffffffffffffffffffffffffffffffffff)\n      and\n      swap1\n      dup2\n      0x00\n      byte\n      swap1\n      mstore8\n      pop\n        /* \"solidity/IntToRoman.sol\":1128:1132  k ++ */\n      dup1\n      dup1\n      0x01\n      add\n      swap2\n      pop\n      pop\n        /* \"solidity/IntToRoman.sol\":1092:1204  for(uint k = 0; k < result1.length; k ++){... */\n      jump(tag_41)\n    tag_42:\n      pop\n        /* \"solidity/IntToRoman.sol\":958:1222  {... */\n      pop\n        /* \"solidity/IntToRoman.sol\":933:1222  if (ct >= result.length) {... */\n    tag_35:\n        /* \"solidity/IntToRoman.sol\":1252:1253  c */\n      dup1\n        /* \"solidity/IntToRoman.sol\":1239:1245  result */\n      dup8\n        /* \"solidity/IntToRoman.sol\":1246:1248  ct */\n      dup7\n        /* \"solidity/IntToRoman.sol\":1239:1249  result[ct] */\n      dup2\n      mload\n      dup2\n      lt\n      tag_48\n      jumpi\n      tag_49\n      tag_20\n      jump\t// in\n    tag_49:\n    tag_48:\n      0x20\n      add\n      add\n        /* \"solidity/IntToRoman.sol\":1239:1253  result[ct] = c */\n      swap1\n      not(0xffffffffffffffffffffffffffffffffffffffffffffffffffffffffffffff)\n      and\n      swap1\n      dup2\n      0x00\n      byte\n      swap1\n      mstore8\n      pop\n        /* \"solidity/IntToRoman.sol\":1271:1276  ct ++ */\n      dup5\n      dup1\n      tag_50\n      swap1\n      tag_51\n      jump\t// in\n    tag_50:\n      swap6\n      pop\n      pop\n        /* \"solidity/IntToRoman.sol\":873:1291  {... */\n      pop\n        /* \"solidity/IntToRoman.sol\":867:871  j ++ */\n      dup1\n      dup1\n      0x01\n      add\n      swap2\n      pop\n      pop\n        /* \"solidity/IntToRoman.sol\":836:1291  for(uint j =0; j < romanCount; j ++) {... */\n      jump(tag_29)\n    tag_30:\n      pop\n        /* \"solidity/IntToRoman.sol\":750:1301  {... */\n      pop\n        /* \"solidity/IntToRoman.sol\":745:749  i ++ */\n      dup1\n      dup1\n      tag_52\n      swap1\n      tag_53\n      jump\t// in\n    tag_52:\n      swap2\n      pop\n      pop\n        /* \"solidity/IntToRoman.sol\":711:1301  for (uint8 i = 0; i< nums.length; i ++){... */\n      jump(tag_15)\n    tag_16:\n      pop\n        /* \"solidity/IntToRoman.sol\":1310:1330  bytes memory fresult */\n      0x00\n        /* \"solidity/IntToRoman.sol\":1343:1345  ct */\n      dup2\n        /* \"solidity/IntToRoman.sol\":1333:1346  new bytes(ct) */\n      0xffffffffffffffff\n      dup2\n      gt\n      iszero\n      tag_54\n      jumpi\n      tag_55\n      tag_13\n      jump\t// in\n    tag_55:\n    tag_54:\n      mload(0x40)\n      swap1\n      dup1\n      dup3\n      mstore\n      dup1\n      0x1f\n      add\n      not(0x1f)\n      and\n      0x20\n      add\n      dup3\n      add\n      0x40\n      mstore\n      dup1\n      iszero\n      tag_56\n      jumpi\n      dup2\n      0x20\n      add\n      0x01\n      dup3\n      mul\n      dup1\n      calldatasize\n      dup4\n      calldatacopy\n      dup1\n      dup3\n      add\n      swap2\n      pop\n      pop\n      swap1\n      pop\n    tag_56:\n      pop\n        /* \"solidity/IntToRoman.sol\":1310:1346  bytes memory fresult = new bytes(ct) */\n      swap1\n      pop\n        /* \"solidity/IntToRoman.sol\":1360:1366  uint i */\n      0x00\n        /* \"solidity/IntToRoman.sol\":1368:1369  0 */\n      0x00\n        /* \"solidity/IntToRoman.sol\":1360:1369  uint i =0 */\n      swap1\n      pop\n        /* \"solidity/IntToRoman.sol\":1356:1431  for(uint i =0; i < ct; i ++){... */\n    tag_57:\n        /* \"solidity/IntToRoman.sol\":1375:1377  ct */\n      dup3\n        /* \"solidity/IntToRoman.sol\":1371:1372  i */\n      dup2\n        /* \"solidity/IntToRoman.sol\":1371:1377  i < ct */\n      lt\n        /* \"solidity/IntToRoman.sol\":1356:1431  for(uint i =0; i < ct; i ++){... */\n      iszero\n      tag_58\n      jumpi\n        /* \"solidity/IntToRoman.sol\":1411:1417  result */\n      dup5\n        /* \"solidity/IntToRoman.sol\":1418:1419  i */\n      dup2\n        /* \"solidity/IntToRoman.sol\":1411:1420  result[i] */\n      dup2\n      mload\n      dup2\n      lt\n      tag_60\n      jumpi\n      tag_61\n      tag_20\n      jump\t// in\n    tag_61:\n    tag_60:\n      0x20\n      add\n      add\n      mload\n      0xf8\n      shr\n      0xf8\n      shl\n        /* \"solidity/IntToRoman.sol\":1398:1405  fresult */\n      dup3\n        /* \"solidity/IntToRoman.sol\":1406:1407  i */\n      dup3\n        /* \"solidity/IntToRoman.sol\":1398:1408  fresult[i] */\n      dup2\n      mload\n      dup2\n      lt\n      tag_62\n      jumpi\n      tag_63\n      tag_20\n      jump\t// in\n    tag_63:\n    tag_62:\n      0x20\n      add\n      add\n        /* \"solidity/IntToRoman.sol\":1398:1420  fresult[i] = result[i] */\n      swap1\n      not(0xffffffffffffffffffffffffffffffffffffffffffffffffffffffffffffff)\n      and\n      swap1\n      dup2\n      0x00\n      byte\n      swap1\n      mstore8\n      pop\n        /* \"solidity/IntToRoman.sol\":1379:1383  i ++ */\n      dup1\n      dup1\n      0x01\n      add\n      swap2\n      pop\n      pop\n        /* \"solidity/IntToRoman.sol\":1356:1431  for(uint i =0; i < ct; i ++){... */\n      jump(tag_57)\n    tag_58:\n      pop\n        /* \"solidity/IntToRoman.sol\":1454:1461  fresult */\n      dup1\n        /* \"solidity/IntToRoman.sol\":1440:1462  return string(fresult) */\n      swap5\n      pop\n      pop\n      pop\n      pop\n      pop\n        /* \"solidity/IntToRoman.sol\":546:1469  function intToRoman(uint num) public view returns (string memory) {... */\n      swap2\n      swap1\n      pop\n      jump\t// out\n        /* \"#utility.yul\":88:205   */\n    tag_65:\n        /* \"#utility.yul\":197:198   */\n      0x00\n        /* \"#utility.yul\":194:195   */\n      0x00\n        /* \"#utility.yul\":187:199   */\n      revert\n        /* \"#utility.yul\":334:411   */\n    tag_67:\n        /* \"#utility.yul\":371:378   */\n      0x00\n        /* \"#utility.yul\":400:405   */\n      dup2\n        /* \"#utility.yul\":389:405   */\n      swap1\n      pop\n        /* \"#utility.yul\":334:411   */\n      swap2\n      swap1\n      pop\n      jump\t// out\n        /* \"#utility.yul\":417:539   */\n    tag_68:\n        /* \"#utility.yul\":490:514   */\n      tag_84\n        /* \"#utility.yul\":508:513   */\n      dup2\n        /* \"#utility.yul\":490:514   */\n      tag_67\n      jump\t// in\n    tag_84:\n        /* \"#utility.yul\":483:488   */\n      dup2\n        /* \"#utility.yul\":480:515   */\n      eq\n        /* \"#utility.yul\":470:533   */\n      tag_85\n      jumpi\n        /* \"#utility.yul\":529:530   */\n      0x00\n        /* \"#utility.yul\":526:527   */\n      0x00\n        /* \"#utility.yul\":519:531   */\n      revert\n        /* \"#utility.yul\":470:533   */\n    tag_85:\n        /* \"#utility.yul\":417:539   */\n      pop\n      jump\t// out\n        /* \"#utility.yul\":545:684   */\n    tag_69:\n        /* \"#utility.yul\":591:596   */\n      0x00\n        /* \"#utility.yul\":629:635   */\n      dup2\n        /* \"#utility.yul\":616:636   */\n      calldataload\n        /* \"#utility.yul\":607:636   */\n      swap1\n      pop\n        /* \"#utility.yul\":645:678   */\n      tag_87\n        /* \"#utility.yul\":672:677   */\n      dup2\n        /* \"#utility.yul\":645:678   */\n      tag_68\n      jump\t// in\n    tag_87:\n        /* \"#utility.yul\":545:684   */\n      swap3\n      swap2\n      pop\n      pop\n      jump\t// out\n        /* \"#utility.yul\":690:1019   */\n    tag_6:\n        /* \"#utility.yul\":749:755   */\n      0x00\n        /* \"#utility.yul\":798:800   */\n      0x20\n        /* \"#utility.yul\":786:795   */\n      dup3\n        /* \"#utility.yul\":777:784   */\n      dup5\n        /* \"#utility.yul\":773:796   */\n      sub\n        /* \"#utility.yul\":769:801   */\n      slt\n        /* \"#utility.yul\":766:885   */\n      iszero\n      tag_89\n      jumpi\n        /* \"#utility.yul\":804:883   */\n      tag_90\n      tag_65\n      jump\t// in\n    tag_90:\n        /* \"#utility.yul\":766:885   */\n    tag_89:\n        /* \"#utility.yul\":924:925   */\n      0x00\n        /* \"#utility.yul\":949:1002   */\n      tag_91\n        /* \"#utility.yul\":994:1001   */\n      dup5\n        /* \"#utility.yul\":985:991   */\n      dup3\n        /* \"#utility.yul\":974:983   */\n      dup6\n        /* \"#utility.yul\":970:992   */\n      add\n        /* \"#utility.yul\":949:1002   */\n      tag_69\n      jump\t// in\n    tag_91:\n        /* \"#utility.yul\":939:1002   */\n      swap2\n      pop\n        /* \"#utility.yul\":895:1012   */\n      pop\n        /* \"#utility.yul\":690:1019   */\n      swap3\n      swap2\n      pop\n      pop\n      jump\t// out\n        /* \"#utility.yul\":1025:1124   */\n    tag_70:\n        /* \"#utility.yul\":1077:1083   */\n      0x00\n        /* \"#utility.yul\":1111:1116   */\n      dup2\n        /* \"#utility.yul\":1105:1117   */\n      mload\n        /* \"#utility.yul\":1095:1117   */\n      swap1\n      pop\n        /* \"#utility.yul\":1025:1124   */\n      swap2\n      swap1\n      pop\n      jump\t// out\n        /* \"#utility.yul\":1130:1299   */\n    tag_71:\n        /* \"#utility.yul\":1214:1225   */\n      0x00\n        /* \"#utility.yul\":1248:1254   */\n      dup3\n        /* \"#utility.yul\":1243:1246   */\n      dup3\n        /* \"#utility.yul\":1236:1255   */\n      mstore\n        /* \"#utility.yul\":1288:1292   */\n      0x20\n        /* \"#utility.yul\":1283:1286   */\n      dup3\n        /* \"#utility.yul\":1279:1293   */\n      add\n        /* \"#utility.yul\":1264:1293   */\n      swap1\n      pop\n        /* \"#utility.yul\":1130:1299   */\n      swap3\n      swap2\n      pop\n      pop\n      jump\t// out\n        /* \"#utility.yul\":1305:1444   */\n    tag_72:\n        /* \"#utility.yul\":1394:1400   */\n      dup3\n        /* \"#utility.yul\":1389:1392   */\n      dup2\n        /* \"#utility.yul\":1384:1387   */\n      dup4\n        /* \"#utility.yul\":1378:1401   */\n      mcopy\n        /* \"#utility.yul\":1435:1436   */\n      0x00\n        /* \"#utility.yul\":1426:1432   */\n      dup4\n        /* \"#utility.yul\":1421:1424   */\n      dup4\n        /* \"#utility.yul\":1417:1433   */\n      add\n        /* \"#utility.yul\":1410:1437   */\n      mstore\n        /* \"#utility.yul\":1305:1444   */\n      pop\n      pop\n      pop\n      jump\t// out\n        /* \"#utility.yul\":1450:1552   */\n    tag_73:\n        /* \"#utility.yul\":1491:1497   */\n      0x00\n        /* \"#utility.yul\":1542:1544   */\n      0x1f\n        /* \"#utility.yul\":1538:1545   */\n      not\n        /* \"#utility.yul\":1533:1535   */\n      0x1f\n        /* \"#utility.yul\":1526:1531   */\n      dup4\n        /* \"#utility.yul\":1522:1536   */\n      add\n        /* \"#utility.yul\":1518:1546   */\n      and\n        /* \"#utility.yul\":1508:1546   */\n      swap1\n      pop\n        /* \"#utility.yul\":1450:1552   */\n      swap2\n      swap1\n      pop\n      jump\t// out\n        /* \"#utility.yul\":1558:1935   */\n    tag_74:\n        /* \"#utility.yul\":1646:1649   */\n      0x00\n        /* \"#utility.yul\":1674:1713   */\n      tag_97\n        /* \"#utility.yul\":1707:1712   */\n      dup3\n        /* \"#utility.yul\":1674:1713   */\n      tag_70\n      jump\t// in\n    tag_97:\n        /* \"#utility.yul\":1729:1800   */\n      tag_98\n        /* \"#utility.yul\":1793:1799   */\n      dup2\n        /* \"#utility.yul\":1788:1791   */\n      dup6\n        /* \"#utility.yul\":1729:1800   */\n      tag_71\n      jump\t// in\n    tag_98:\n        /* \"#utility.yul\":1722:1800   */\n      swap4\n      pop\n        /* \"#utility.yul\":1809:1874   */\n      tag_99\n        /* \"#utility.yul\":1867:1873   */\n      dup2\n        /* \"#utility.yul\":1862:1865   */\n      dup6\n        /* \"#utility.yul\":1855:1859   */\n      0x20\n        /* \"#utility.yul\":1848:1853   */\n      dup7\n        /* \"#utility.yul\":1844:1860   */\n      add\n        /* \"#utility.yul\":1809:1874   */\n      tag_72\n      jump\t// in\n    tag_99:\n        /* \"#utility.yul\":1899:1928   */\n      tag_100\n        /* \"#utility.yul\":1921:1927   */\n      dup2\n        /* \"#utility.yul\":1899:1928   */\n      tag_73\n      jump\t// in\n    tag_100:\n        /* \"#utility.yul\":1894:1897   */\n      dup5\n        /* \"#utility.yul\":1890:1929   */\n      add\n        /* \"#utility.yul\":1883:1929   */\n      swap2\n      pop\n        /* \"#utility.yul\":1650:1935   */\n      pop\n        /* \"#utility.yul\":1558:1935   */\n      swap3\n      swap2\n      pop\n      pop\n      jump\t// out\n        /* \"#utility.yul\":1941:2254   */\n    tag_9:\n        /* \"#utility.yul\":2054:2058   */\n      0x00\n        /* \"#utility.yul\":2092:2094   */\n      0x20\n        /* \"#utility.yul\":2081:2090   */\n      dup3\n        /* \"#utility.yul\":2077:2095   */\n      add\n        /* \"#utility.yul\":2069:2095   */\n      swap1\n      pop\n        /* \"#utility.yul\":2141:2150   */\n      dup2\n        /* \"#utility.yul\":2135:2139   */\n      dup2\n        /* \"#utility.yul\":2131:2151   */\n      sub\n        /* \"#utility.yul\":2127:2128   */\n      0x00\n        /* \"#utility.yul\":2116:2125   */\n      dup4\n        /* \"#utility.yul\":2112:2129   */\n      add\n        /* \"#utility.yul\":2105:2152   */\n      mstore\n        /* \"#utility.yul\":2169:2247   */\n      tag_102\n        /* \"#utility.yul\":2242:2246   */\n      dup2\n        /* \"#utility.yul\":2233:2239   */\n      dup5\n        /* \"#utility.yul\":2169:2247   */\n      tag_74\n      jump\t// in\n    tag_102:\n        /* \"#utility.yul\":2161:2247   */\n      swap1\n      pop\n        /* \"#utility.yul\":1941:2254   */\n      swap3\n      swap2\n      pop\n      pop\n      jump\t// out\n        /* \"#utility.yul\":2260:2440   */\n    tag_13:\n        /* \"#utility.yul\":2308:2385   */\n      0x4e487b7100000000000000000000000000000000000000000000000000000000\n        /* \"#utility.yul\":2305:2306   */\n      0x00\n        /* \"#utility.yul\":2298:2386   */\n      mstore\n        /* \"#utility.yul\":2405:2409   */\n      0x41\n        /* \"#utility.yul\":2402:2403   */\n      0x04\n        /* \"#utility.yul\":2395:2410   */\n      mstore\n        /* \"#utility.yul\":2429:2433   */\n      0x24\n        /* \"#utility.yul\":2426:2427   */\n      0x00\n        /* \"#utility.yul\":2419:2434   */\n      revert\n        /* \"#utility.yul\":2446:2626   */\n    tag_20:\n        /* \"#utility.yul\":2494:2571   */\n      0x4e487b7100000000000000000000000000000000000000000000000000000000\n        /* \"#utility.yul\":2491:2492   */\n      0x00\n        /* \"#utility.yul\":2484:2572   */\n      mstore\n        /* \"#utility.yul\":2591:2595   */\n      0x32\n        /* \"#utility.yul\":2588:2589   */\n      0x04\n        /* \"#utility.yul\":2581:2596   */\n      mstore\n        /* \"#utility.yul\":2615:2619   */\n      0x24\n        /* \"#utility.yul\":2612:2613   */\n      0x00\n        /* \"#utility.yul\":2605:2620   */\n      revert\n        /* \"#utility.yul\":2632:2812   */\n    tag_75:\n        /* \"#utility.yul\":2680:2757   */\n      0x4e487b7100000000000000000000000000000000000000000000000000000000\n        /* \"#utility.yul\":2677:2678   */\n      0x00\n        /* \"#utility.yul\":2670:2758   */\n      mstore\n        /* \"#utility.yul\":2777:2781   */\n      0x12\n        /* \"#utility.yul\":2774:2775   */\n      0x04\n        /* \"#utility.yul\":2767:2782   */\n      mstore\n        /* \"#utility.yul\":2801:2805   */\n      0x24\n        /* \"#utility.yul\":2798:2799   */\n      0x00\n        /* \"#utility.yul\":2791:2806   */\n      revert\n        /* \"#utility.yul\":2818:2998   */\n    tag_76:\n        /* \"#utility.yul\":2866:2943   */\n      0x4e487b7100000000000000000000000000000000000000000000000000000000\n        /* \"#utility.yul\":2863:2864   */\n      0x00\n        /* \"#utility.yul\":2856:2944   */\n      mstore\n        /* \"#utility.yul\":2963:2967   */\n      0x11\n        /* \"#utility.yul\":2960:2961   */\n      0x04\n        /* \"#utility.yul\":2953:2968   */\n      mstore\n        /* \"#utility.yul\":2987:2991   */\n      0x24\n        /* \"#utility.yul\":2984:2985   */\n      0x00\n        /* \"#utility.yul\":2977:2992   */\n      revert\n        /* \"#utility.yul\":3004:3189   */\n    tag_23:\n        /* \"#utility.yul\":3044:3045   */\n      0x00\n        /* \"#utility.yul\":3061:3081   */\n      tag_108\n        /* \"#utility.yul\":3079:3080   */\n      dup3\n        /* \"#utility.yul\":3061:3081   */\n      tag_67\n      jump\t// in\n    tag_108:\n        /* \"#utility.yul\":3056:3081   */\n      swap2\n      pop\n        /* \"#utility.yul\":3095:3115   */\n      tag_109\n        /* \"#utility.yul\":3113:3114   */\n      dup4\n        /* \"#utility.yul\":3095:3115   */\n      tag_67\n      jump\t// in\n    tag_109:\n        /* \"#utility.yul\":3090:3115   */\n      swap3\n      pop\n        /* \"#utility.yul\":3134:3135   */\n      dup3\n        /* \"#utility.yul\":3124:3159   */\n      tag_110\n      jumpi\n        /* \"#utility.yul\":3139:3157   */\n      tag_111\n      tag_75\n      jump\t// in\n    tag_111:\n        /* \"#utility.yul\":3124:3159   */\n    tag_110:\n        /* \"#utility.yul\":3181:3182   */\n      dup3\n        /* \"#utility.yul\":3178:3179   */\n      dup3\n        /* \"#utility.yul\":3174:3183   */\n      div\n        /* \"#utility.yul\":3169:3183   */\n      swap1\n      pop\n        /* \"#utility.yul\":3004:3189   */\n      swap3\n      swap2\n      pop\n      pop\n      jump\t// out\n        /* \"#utility.yul\":3195:3371   */\n    tag_28:\n        /* \"#utility.yul\":3227:3228   */\n      0x00\n        /* \"#utility.yul\":3244:3264   */\n      tag_113\n        /* \"#utility.yul\":3262:3263   */\n      dup3\n        /* \"#utility.yul\":3244:3264   */\n      tag_67\n      jump\t// in\n    tag_113:\n        /* \"#utility.yul\":3239:3264   */\n      swap2\n      pop\n        /* \"#utility.yul\":3278:3298   */\n      tag_114\n        /* \"#utility.yul\":3296:3297   */\n      dup4\n        /* \"#utility.yul\":3278:3298   */\n      tag_67\n      jump\t// in\n    tag_114:\n        /* \"#utility.yul\":3273:3298   */\n      swap3\n      pop\n        /* \"#utility.yul\":3317:3318   */\n      dup3\n        /* \"#utility.yul\":3307:3342   */\n      tag_115\n      jumpi\n        /* \"#utility.yul\":3322:3340   */\n      tag_116\n      tag_75\n      jump\t// in\n    tag_116:\n        /* \"#utility.yul\":3307:3342   */\n    tag_115:\n        /* \"#utility.yul\":3363:3364   */\n      dup3\n        /* \"#utility.yul\":3360:3361   */\n      dup3\n        /* \"#utility.yul\":3356:3365   */\n      mod\n        /* \"#utility.yul\":3351:3365   */\n      swap1\n      pop\n        /* \"#utility.yul\":3195:3371   */\n      swap3\n      swap2\n      pop\n      pop\n      jump\t// out\n        /* \"#utility.yul\":3377:3568   */\n    tag_37:\n        /* \"#utility.yul\":3417:3420   */\n      0x00\n        /* \"#utility.yul\":3436:3456   */\n      tag_118\n        /* \"#utility.yul\":3454:3455   */\n      dup3\n        /* \"#utility.yul\":3436:3456   */\n      tag_67\n      jump\t// in\n    tag_118:\n        /* \"#utility.yul\":3431:3456   */\n      swap2\n      pop\n        /* \"#utility.yul\":3470:3490   */\n      tag_119\n        /* \"#utility.yul\":3488:3489   */\n      dup4\n        /* \"#utility.yul\":3470:3490   */\n      tag_67\n      jump\t// in\n    tag_119:\n        /* \"#utility.yul\":3465:3490   */\n      swap3\n      pop\n        /* \"#utility.yul\":3513:3514   */\n      dup3\n        /* \"#utility.yul\":3510:3511   */\n      dup3\n        /* \"#utility.yul\":3506:3515   */\n      add\n        /* \"#utility.yul\":3499:3515   */\n      swap1\n      pop\n        /* \"#utility.yul\":3534:3537   */\n      dup1\n        /* \"#utility.yul\":3531:3532   */\n      dup3\n        /* \"#utility.yul\":3528:3538   */\n      gt\n        /* \"#utility.yul\":3525:3561   */\n      iszero\n      tag_120\n      jumpi\n        /* \"#utility.yul\":3541:3559   */\n      tag_121\n      tag_76\n      jump\t// in\n    tag_121:\n        /* \"#utility.yul\":3525:3561   */\n    tag_120:\n        /* \"#utility.yul\":3377:3568   */\n      swap3\n      swap2\n      pop\n      pop\n      jump\t// out\n        /* \"#utility.yul\":3574:3807   */\n    tag_51:\n        /* \"#utility.yul\":3613:3616   */\n      0x00\n        /* \"#utility.yul\":3636:3660   */\n      tag_123\n        /* \"#utility.yul\":3654:3659   */\n      dup3\n        /* \"#utility.yul\":3636:3660   */\n      tag_67\n      jump\t// in\n    tag_123:\n        /* \"#utility.yul\":3627:3660   */\n      swap2\n      pop\n        /* \"#utility.yul\":3682:3748   */\n      0xffffffffffffffffffffffffffffffffffffffffffffffffffffffffffffffff\n        /* \"#utility.yul\":3675:3680   */\n      dup3\n        /* \"#utility.yul\":3672:3749   */\n      sub\n        /* \"#utility.yul\":3669:3772   */\n      tag_124\n      jumpi\n        /* \"#utility.yul\":3752:3770   */\n      tag_125\n      tag_76\n      jump\t// in\n    tag_125:\n        /* \"#utility.yul\":3669:3772   */\n    tag_124:\n        /* \"#utility.yul\":3799:3800   */\n      0x01\n        /* \"#utility.yul\":3792:3797   */\n      dup3\n        /* \"#utility.yul\":3788:3801   */\n      add\n        /* \"#utility.yul\":3781:3801   */\n      swap1\n      pop\n        /* \"#utility.yul\":3574:3807   */\n      swap2\n      swap1\n      pop\n      jump\t// out\n        /* \"#utility.yul\":3813:3899   */\n    tag_77:\n        /* \"#utility.yul\":3848:3855   */\n      0x00\n        /* \"#utility.yul\":3888:3892   */\n      0xff\n        /* \"#utility.yul\":3881:3886   */\n      dup3\n        /* \"#utility.yul\":3877:3893   */\n      and\n        /* \"#utility.yul\":3866:3893   */\n      swap1\n      pop\n        /* \"#utility.yul\":3813:3899   */\n      swap2\n      swap1\n      pop\n      jump\t// out\n        /* \"#utility.yul\":3905:4072   */\n    tag_53:\n        /* \"#utility.yul\":3942:3945   */\n      0x00\n        /* \"#utility.yul\":3965:3987   */\n      tag_128\n        /* \"#utility.yul\":3981:3986   */\n      dup3\n        /* \"#utility.yul\":3965:3987   */\n      tag_77\n      jump\t// in\n    tag_128:\n        /* \"#utility.yul\":3956:3987   */\n      swap2\n      pop\n        /* \"#utility.yul\":4009:4013   */\n      0xff\n        /* \"#utility.yul\":4002:4007   */\n      dup3\n        /* \"#utility.yul\":3999:4014   */\n      sub\n        /* \"#utility.yul\":3996:4037   */\n      tag_129\n      jumpi\n        /* \"#utility.yul\":4017:4035   */\n      tag_130\n      tag_76\n      jump\t// in\n    tag_130:\n        /* \"#utility.yul\":3996:4037   */\n    tag_129:\n        /* \"#utility.yul\":4064:4065   */\n      0x01\n        /* \"#utility.yul\":4057:4062   */\n      dup3\n        /* \"#utility.yul\":4053:4066   */\n      add\n        /* \"#utility.yul\":4046:4066   */\n      swap1\n      pop\n        /* \"#utility.yul\":3905:4072   */\n      swap2\n      swap1\n      pop\n      jump\t// out\n\n    auxdata: 0xa264697066735822122073001cd5684d3c1c2bfb5a06f88f2f154c79396a5f730541efc669338f3177b564736f6c634300081e0033\n}\n",
				"bytecode": {
					"linkReferences": {},
					"object": "608060405234801561000f575f5ffd5b507f49000000000000000000000000000000000000000000000000000000000000005f5f600181526020019081526020015f205f6101000a81548160ff021916908360f81c02179055507f56000000000000000000000000000000000000000000000000000000000000005f5f600581526020019081526020015f205f6101000a81548160ff021916908360f81c02179055507f58000000000000000000000000000000000000000000000000000000000000005f5f600a81526020019081526020015f205f6101000a81548160ff021916908360f81c02179055507f4c000000000000000000000000000000000000000000000000000000000000005f5f603281526020019081526020015f205f6101000a81548160ff021916908360f81c02179055507f43000000000000000000000000000000000000000000000000000000000000005f5f606481526020019081526020015f205f6101000a81548160ff021916908360f81c02179055507f44000000000000000000000000000000000000000000000000000000000000005f5f6101f481526020019081526020015f205f6101000a81548160ff021916908360f81c02179055507f4d000000000000000000000000000000000000000000000000000000000000005f5f6103e881526020019081526020015f205f6101000a81548160ff021916908360f81c021790555060016103e8908060018154018082558091505060019003905f5260205f20015f909190919091505560016101f4908060018154018082558091505060019003905f5260205f20015f909190919091505560016064908060018154018082558091505060019003905f5260205f20015f909190919091505560016032908060018154018082558091505060019003905f5260205f20015f90919091909150556001600a908060018154018082558091505060019003905f5260205f20015f909190919091505560016005908060018154018082558091505060019003905f5260205f20015f90919091909150556001808060018154018082558091505060019003905f5260205f20015f909190919091505561068d8061032f5f395ff3fe608060405234801561000f575f5ffd5b5060043610610029575f3560e01c80630cbc513a1461002d575b5f5ffd5b610047600480360381019061004291906103da565b61005d565b6040516100549190610475565b60405180910390f35b60605f606467ffffffffffffffff81111561007b5761007a610495565b5b6040519080825280601f01601f1916602001820160405280156100ad5781602001600182028036833780820191505090505b5090505f8390505f5f90505f5f90505b6001805490508160ff1610156102cc575f60018260ff16815481106100e5576100e46104c2565b5b905f5260205f200154846100f99190610549565b905060018260ff1681548110610112576101116104c2565b5b905f5260205f200154846101269190610579565b93505f5f90505b818110156102b7575f5f5f60018660ff168154811061014f5761014e6104c2565b5b905f5260205f20015481526020019081526020015f205f9054906101000a900460f81b905086518510610259575f8790506064885161018e91906105a9565b67ffffffffffffffff8111156101a7576101a6610495565b5b6040519080825280601f01601f1916602001820160405280156101d95781602001600182028036833780820191505090505b5097505f5f90505b8151811015610256578181815181106101fd576101fc6104c2565b5b602001015160f81c60f81b89828151811061021b5761021a6104c2565b5b60200101907effffffffffffffffffffffffffffffffffffffffffffffffffffffffffffff191690815f1a90535080806001019150506101e1565b50505b8087868151811061026d5761026c6104c2565b5b60200101907effffffffffffffffffffffffffffffffffffffffffffffffffffffffffffff191690815f1a90535084806102a6906105dc565b95505050808060010191505061012d565b505080806102c49061062f565b9150506100bd565b505f8167ffffffffffffffff8111156102e8576102e7610495565b5b6040519080825280601f01601f19166020018201604052801561031a5781602001600182028036833780820191505090505b5090505f5f90505b828110156103965784818151811061033d5761033c6104c2565b5b602001015160f81c60f81b82828151811061035b5761035a6104c2565b5b60200101907effffffffffffffffffffffffffffffffffffffffffffffffffffffffffffff191690815f1a9053508080600101915050610322565b5080945050505050919050565b5f5ffd5b5f819050919050565b6103b9816103a7565b81146103c3575f5ffd5b50565b5f813590506103d4816103b0565b92915050565b5f602082840312156103ef576103ee6103a3565b5b5f6103fc848285016103c6565b91505092915050565b5f81519050919050565b5f82825260208201905092915050565b8281835e5f83830152505050565b5f601f19601f8301169050919050565b5f61044782610405565b610451818561040f565b935061046181856020860161041f565b61046a8161042d565b840191505092915050565b5f6020820190508181035f83015261048d818461043d565b905092915050565b7f4e487b71000000000000000000000000000000000000000000000000000000005f52604160045260245ffd5b7f4e487b71000000000000000000000000000000000000000000000000000000005f52603260045260245ffd5b7f4e487b71000000000000000000000000000000000000000000000000000000005f52601260045260245ffd5b7f4e487b71000000000000000000000000000000000000000000000000000000005f52601160045260245ffd5b5f610553826103a7565b915061055e836103a7565b92508261056e5761056d6104ef565b5b828204905092915050565b5f610583826103a7565b915061058e836103a7565b92508261059e5761059d6104ef565b5b828206905092915050565b5f6105b3826103a7565b91506105be836103a7565b92508282019050808211156105d6576105d561051c565b5b92915050565b5f6105e6826103a7565b91507fffffffffffffffffffffffffffffffffffffffffffffffffffffffffffffffff82036106185761061761051c565b5b600182019050919050565b5f60ff82169050919050565b5f61063982610623565b915060ff820361064c5761064b61051c565b5b60018201905091905056fea264697066735822122073001cd5684d3c1c2bfb5a06f88f2f154c79396a5f730541efc669338f3177b564736f6c634300081e0033",
					"opcodes": "PUSH1 0x80 PUSH1 0x40 MSTORE CALLVALUE DUP1 ISZERO PUSH2 0xF JUMPI PUSH0 PUSH0 REVERT JUMPDEST POP PUSH32 0x4900000000000000000000000000000000000000000000000000000000000000 PUSH0 PUSH0 PUSH1 0x1 DUP2 MSTORE PUSH1 0x20 ADD SWAP1 DUP2 MSTORE PUSH1 0x20 ADD PUSH0 KECCAK256 PUSH0 PUSH2 0x100 EXP DUP2 SLOAD DUP2 PUSH1 0xFF MUL NOT AND SWAP1 DUP4 PUSH1 0xF8 SHR MUL OR SWAP1 SSTORE POP PUSH32 0x5600000000000000000000000000000000000000000000000000000000000000 PUSH0 PUSH0 PUSH1 0x5 DUP2 MSTORE PUSH1 0x20 ADD SWAP1 DUP2 MSTORE PUSH1 0x20 ADD PUSH0 KECCAK256 PUSH0 PUSH2 0x100 EXP DUP2 SLOAD DUP2 PUSH1 0xFF MUL NOT AND SWAP1 DUP4 PUSH1 0xF8 SHR MUL OR SWAP1 SSTORE POP PUSH32 0x5800000000000000000000000000000000000000000000000000000000000000 PUSH0 PUSH0 PUSH1 0xA DUP2 MSTORE PUSH1 0x20 ADD SWAP1 DUP2 MSTORE PUSH1 0x20 ADD PUSH0 KECCAK256 PUSH0 PUSH2 0x100 EXP DUP2 SLOAD DUP2 PUSH1 0xFF MUL NOT AND SWAP1 DUP4 PUSH1 0xF8 SHR MUL OR SWAP1 SSTORE POP PUSH32 0x4C00000000000000000000000000000000000000000000000000000000000000 PUSH0 PUSH0 PUSH1 0x32 DUP2 MSTORE PUSH1 0x20 ADD SWAP1 DUP2 MSTORE PUSH1 0x20 ADD PUSH0 KECCAK256 PUSH0 PUSH2 0x100 EXP DUP2 SLOAD DUP2 PUSH1 0xFF MUL NOT AND SWAP1 DUP4 PUSH1 0xF8 SHR MUL OR SWAP1 SSTORE POP PUSH32 0x4300000000000000000000000000000000000000000000000000000000000000 PUSH0 PUSH0 PUSH1 0x64 DUP2 MSTORE PUSH1 0x20 ADD SWAP1 DUP2 MSTORE PUSH1 0x20 ADD PUSH0 KECCAK256 PUSH0 PUSH2 0x100 EXP DUP2 SLOAD DUP2 PUSH1 0xFF MUL NOT AND SWAP1 DUP4 PUSH1 0xF8 SHR MUL OR SWAP1 SSTORE POP PUSH32 0x4400000000000000000000000000000000000000000000000000000000000000 PUSH0 PUSH0 PUSH2 0x1F4 DUP2 MSTORE PUSH1 0x20 ADD SWAP1 DUP2 MSTORE PUSH1 0x20 ADD PUSH0 KECCAK256 PUSH0 PUSH2 0x100 EXP DUP2 SLOAD DUP2 PUSH1 0xFF MUL NOT AND SWAP1 DUP4 PUSH1 0xF8 SHR MUL OR SWAP1 SSTORE POP PUSH32 0x4D00000000000000000000000000000000000000000000000000000000000000 PUSH0 PUSH0 PUSH2 0x3E8 DUP2 MSTORE PUSH1 0x20 ADD SWAP1 DUP2 MSTORE PUSH1 0x20 ADD PUSH0 KECCAK256 PUSH0 PUSH2 0x100 EXP DUP2 SLOAD DUP2 PUSH1 0xFF MUL NOT AND SWAP1 DUP4 PUSH1 0xF8 SHR MUL OR SWAP1 SSTORE POP PUSH1 0x1 PUSH2 0x3E8 SWAP1 DUP1 PUSH1 0x1 DUP2 SLOAD ADD DUP1 DUP3 SSTORE DUP1 SWAP2 POP POP PUSH1 0x1 SWAP1 SUB SWAP1 PUSH0 MSTORE PUSH1 0x20 PUSH0 KECCAK256 ADD PUSH0 SWAP1 SWAP2 SWAP1 SWAP2 SWAP1 SWAP2 POP SSTORE PUSH1 0x1 PUSH2 0x1F4 SWAP1 DUP1 PUSH1 0x1 DUP2 SLOAD ADD DUP1 DUP3 SSTORE DUP1 SWAP2 POP POP PUSH1 0x1 SWAP1 SUB SWAP1 PUSH0 MSTORE PUSH1 0x20 PUSH0 KECCAK256 ADD PUSH0 SWAP1 SWAP2 SWAP1 SWAP2 SWAP1 SWAP2 POP SSTORE PUSH1 0x1 PUSH1 0x64 SWAP1 DUP1 PUSH1 0x1 DUP2 SLOAD ADD DUP1 DUP3 SSTORE DUP1 SWAP2 POP POP PUSH1 0x1 SWAP1 SUB SWAP1 PUSH0 MSTORE PUSH1 0x20 PUSH0 KECCAK256 ADD PUSH0 SWAP1 SWAP2 SWAP1 SWAP2 SWAP1 SWAP2 POP SSTORE PUSH1 0x1 PUSH1 0x32 SWAP1 DUP1 PUSH1 0x1 DUP2 SLOAD ADD DUP1 DUP3 SSTORE DUP1 SWAP2 POP POP PUSH1 0x1 SWAP1 SUB SWAP1 PUSH0 MSTORE PUSH1 0x20 PUSH0 KECCAK256 ADD PUSH0 SWAP1 SWAP2 SWAP1 SWAP2 SWAP1 SWAP2 POP SSTORE PUSH1 0x1 PUSH1 0xA SWAP1 DUP1 PUSH1 0x1 DUP2 SLOAD ADD DUP1 DUP3 SSTORE DUP1 SWAP2 POP POP PUSH1 0x1 SWAP1 SUB SWAP1 PUSH0 MSTORE PUSH1 0x20 PUSH0 KECCAK256 ADD PUSH0 SWAP1 SWAP2 SWAP1 SWAP2 SWAP1 SWAP2 POP SSTORE PUSH1 0x1 PUSH1 0x5 SWAP1 DUP1 PUSH1 0x1 DUP2 SLOAD ADD DUP1 DUP3 SSTORE DUP1 SWAP2 POP POP PUSH1 0x1 SWAP1 SUB SWAP1 PUSH0 MSTORE PUSH1 0x20 PUSH0 KECCAK256 ADD PUSH0 SWAP1 SWAP2 SWAP1 SWAP2 SWAP1 SWAP2 POP SSTORE PUSH1 0x1 DUP1 DUP1 PUSH1 0x1 DUP2 SLOAD ADD DUP1 DUP3 SSTORE DUP1 SWAP2 POP POP PUSH1 0x1 SWAP1 SUB SWAP1 PUSH0 MSTORE PUSH1 0x20 PUSH0 KECCAK256 ADD PUSH0 SWAP1 SWAP2 SWAP1 SWAP2 SWAP1 SWAP2 POP SSTORE PUSH2 0x68D DUP1 PUSH2 0x32F PUSH0 CODECOPY PUSH0 RETURN INVALID PUSH1 0x80 PUSH1 0x40 MSTORE CALLVALUE DUP1 ISZERO PUSH2 0xF JUMPI PUSH0 PUSH0 REVERT JUMPDEST POP PUSH1 0x4 CALLDATASIZE LT PUSH2 0x29 JUMPI PUSH0 CALLDATALOAD PUSH1 0xE0 SHR DUP1 PUSH4 0xCBC513A EQ PUSH2 0x2D JUMPI JUMPDEST PUSH0 PUSH0 REVERT JUMPDEST PUSH2 0x47 PUSH1 0x4 DUP1 CALLDATASIZE SUB DUP2 ADD SWAP1 PUSH2 0x42 SWAP2 SWAP1 PUSH2 0x3DA JUMP JUMPDEST PUSH2 0x5D JUMP JUMPDEST PUSH1 0x40 MLOAD PUSH2 0x54 SWAP2 SWAP1 PUSH2 0x475 JUMP JUMPDEST PUSH1 0x40 MLOAD DUP1 SWAP2 SUB SWAP1 RETURN JUMPDEST PUSH1 0x60 PUSH0 PUSH1 0x64 PUSH8 0xFFFFFFFFFFFFFFFF DUP2 GT ISZERO PUSH2 0x7B JUMPI PUSH2 0x7A PUSH2 0x495 JUMP JUMPDEST JUMPDEST PUSH1 0x40 MLOAD SWAP1 DUP1 DUP3 MSTORE DUP1 PUSH1 0x1F ADD PUSH1 0x1F NOT AND PUSH1 0x20 ADD DUP3 ADD PUSH1 0x40 MSTORE DUP1 ISZERO PUSH2 0xAD JUMPI DUP2 PUSH1 0x20 ADD PUSH1 0x1 DUP3 MUL DUP1 CALLDATASIZE DUP4 CALLDATACOPY DUP1 DUP3 ADD SWAP2 POP POP SWAP1 POP JUMPDEST POP SWAP1 POP PUSH0 DUP4 SWAP1 POP PUSH0 PUSH0 SWAP1 POP PUSH0 PUSH0 SWAP1 POP JUMPDEST PUSH1 0x1 DUP1 SLOAD SWAP1 POP DUP2 PUSH1 0xFF AND LT ISZERO PUSH2 0x2CC JUMPI PUSH0 PUSH1 0x1 DUP3 PUSH1 0xFF AND DUP2 SLOAD DUP2 LT PUSH2 0xE5 JUMPI PUSH2 0xE4 PUSH2 0x4C2 JUMP JUMPDEST JUMPDEST SWAP1 PUSH0 MSTORE PUSH1 0x20 PUSH0 KECCAK256 ADD SLOAD DUP5 PUSH2 0xF9 SWAP2 SWAP1 PUSH2 0x549 JUMP JUMPDEST SWAP1 POP PUSH1 0x1 DUP3 PUSH1 0xFF AND DUP2 SLOAD DUP2 LT PUSH2 0x112 JUMPI PUSH2 0x111 PUSH2 0x4C2 JUMP JUMPDEST JUMPDEST SWAP1 PUSH0 MSTORE PUSH1 0x20 PUSH0 KECCAK256 ADD SLOAD DUP5 PUSH2 0x126 SWAP2 SWAP1 PUSH2 0x579 JUMP JUMPDEST SWAP4 POP PUSH0 PUSH0 SWAP1 POP JUMPDEST DUP2 DUP2 LT ISZERO PUSH2 0x2B7 JUMPI PUSH0 PUSH0 PUSH0 PUSH1 0x1 DUP7 PUSH1 0xFF AND DUP2 SLOAD DUP2 LT PUSH2 0x14F JUMPI PUSH2 0x14E PUSH2 0x4C2 JUMP JUMPDEST JUMPDEST SWAP1 PUSH0 MSTORE PUSH1 0x20 PUSH0 KECCAK256 ADD SLOAD DUP2 MSTORE PUSH1 0x20 ADD SWAP1 DUP2 MSTORE PUSH1 0x20 ADD PUSH0 KECCAK256 PUSH0 SWAP1 SLOAD SWAP1 PUSH2 0x100 EXP SWAP1 DIV PUSH1 0xF8 SHL SWAP1 POP DUP7 MLOAD DUP6 LT PUSH2 0x259 JUMPI PUSH0 DUP8 SWAP1 POP PUSH1 0x64 DUP9 MLOAD PUSH2 0x18E SWAP2 SWAP1 PUSH2 0x5A9 JUMP JUMPDEST PUSH8 0xFFFFFFFFFFFFFFFF DUP2 GT ISZERO PUSH2 0x1A7 JUMPI PUSH2 0x1A6 PUSH2 0x495 JUMP JUMPDEST JUMPDEST PUSH1 0x40 MLOAD SWAP1 DUP1 DUP3 MSTORE DUP1 PUSH1 0x1F ADD PUSH1 0x1F NOT AND PUSH1 0x20 ADD DUP3 ADD PUSH1 0x40 MSTORE DUP1 ISZERO PUSH2 0x1D9 JUMPI DUP2 PUSH1 0x20 ADD PUSH1 0x1 DUP3 MUL DUP1 CALLDATASIZE DUP4 CALLDATACOPY DUP1 DUP3 ADD SWAP2 POP POP SWAP1 POP JUMPDEST POP SWAP8 POP PUSH0 PUSH0 SWAP1 POP JUMPDEST DUP2 MLOAD DUP2 LT ISZERO PUSH2 0x256 JUMPI DUP2 DUP2 DUP2 MLOAD DUP2 LT PUSH2 0x1FD JUMPI PUSH2 0x1FC PUSH2 0x4C2 JUMP JUMPDEST JUMPDEST PUSH1 0x20 ADD ADD MLOAD PUSH1 0xF8 SHR PUSH1 0xF8 SHL DUP10 DUP3 DUP2 MLOAD DUP2 LT PUSH2 0x21B JUMPI PUSH2 0x21A PUSH2 0x4C2 JUMP JUMPDEST JUMPDEST PUSH1 0x20 ADD ADD SWAP1 PUSH31 0xFFFFFFFFFFFFFFFFFFFFFFFFFFFFFFFFFFFFFFFFFFFFFFFFFFFFFFFFFFFFFF NOT AND SWAP1 DUP2 PUSH0 BYTE SWAP1 MSTORE8 POP DUP1 DUP1 PUSH1 0x1 ADD SWAP2 POP POP PUSH2 0x1E1 JUMP JUMPDEST POP POP JUMPDEST DUP1 DUP8 DUP7 DUP2 MLOAD DUP2 LT PUSH2 0x26D JUMPI PUSH2 0x26C PUSH2 0x4C2 JUMP JUMPDEST JUMPDEST PUSH1 0x20 ADD ADD SWAP1 PUSH31 0xFFFFFFFFFFFFFFFFFFFFFFFFFFFFFFFFFFFFFFFFFFFFFFFFFFFFFFFFFFFFFF NOT AND SWAP1 DUP2 PUSH0 BYTE SWAP1 MSTORE8 POP DUP5 DUP1 PUSH2 0x2A6 SWAP1 PUSH2 0x5DC JUMP JUMPDEST SWAP6 POP POP POP DUP1 DUP1 PUSH1 0x1 ADD SWAP2 POP POP PUSH2 0x12D JUMP JUMPDEST POP POP DUP1 DUP1 PUSH2 0x2C4 SWAP1 PUSH2 0x62F JUMP JUMPDEST SWAP2 POP POP PUSH2 0xBD JUMP JUMPDEST POP PUSH0 DUP2 PUSH8 0xFFFFFFFFFFFFFFFF DUP2 GT ISZERO PUSH2 0x2E8 JUMPI PUSH2 0x2E7 PUSH2 0x495 JUMP JUMPDEST JUMPDEST PUSH1 0x40 MLOAD SWAP1 DUP1 DUP3 MSTORE DUP1 PUSH1 0x1F ADD PUSH1 0x1F NOT AND PUSH1 0x20 ADD DUP3 ADD PUSH1 0x40 MSTORE DUP1 ISZERO PUSH2 0x31A JUMPI DUP2 PUSH1 0x20 ADD PUSH1 0x1 DUP3 MUL DUP1 CALLDATASIZE DUP4 CALLDATACOPY DUP1 DUP3 ADD SWAP2 POP POP SWAP1 POP JUMPDEST POP SWAP1 POP PUSH0 PUSH0 SWAP1 POP JUMPDEST DUP3 DUP2 LT ISZERO PUSH2 0x396 JUMPI DUP5 DUP2 DUP2 MLOAD DUP2 LT PUSH2 0x33D JUMPI PUSH2 0x33C PUSH2 0x4C2 JUMP JUMPDEST JUMPDEST PUSH1 0x20 ADD ADD MLOAD PUSH1 0xF8 SHR PUSH1 0xF8 SHL DUP3 DUP3 DUP2 MLOAD DUP2 LT PUSH2 0x35B JUMPI PUSH2 0x35A PUSH2 0x4C2 JUMP JUMPDEST JUMPDEST PUSH1 0x20 ADD ADD SWAP1 PUSH31 0xFFFFFFFFFFFFFFFFFFFFFFFFFFFFFFFFFFFFFFFFFFFFFFFFFFFFFFFFFFFFFF NOT AND SWAP1 DUP2 PUSH0 BYTE SWAP1 MSTORE8 POP DUP1 DUP1 PUSH1 0x1 ADD SWAP2 POP POP PUSH2 0x322 JUMP JUMPDEST POP DUP1 SWAP5 POP POP POP POP POP SWAP2 SWAP1 POP JUMP JUMPDEST PUSH0 PUSH0 REVERT JUMPDEST PUSH0 DUP2 SWAP1 POP SWAP2 SWAP1 POP JUMP JUMPDEST PUSH2 0x3B9 DUP2 PUSH2 0x3A7 JUMP JUMPDEST DUP2 EQ PUSH2 0x3C3 JUMPI PUSH0 PUSH0 REVERT JUMPDEST POP JUMP JUMPDEST PUSH0 DUP2 CALLDATALOAD SWAP1 POP PUSH2 0x3D4 DUP2 PUSH2 0x3B0 JUMP JUMPDEST SWAP3 SWAP2 POP POP JUMP JUMPDEST PUSH0 PUSH1 0x20 DUP3 DUP5 SUB SLT ISZERO PUSH2 0x3EF JUMPI PUSH2 0x3EE PUSH2 0x3A3 JUMP JUMPDEST JUMPDEST PUSH0 PUSH2 0x3FC DUP5 DUP3 DUP6 ADD PUSH2 0x3C6 JUMP JUMPDEST SWAP2 POP POP SWAP3 SWAP2 POP POP JUMP JUMPDEST PUSH0 DUP2 MLOAD SWAP1 POP SWAP2 SWAP1 POP JUMP JUMPDEST PUSH0 DUP3 DUP3 MSTORE PUSH1 0x20 DUP3 ADD SWAP1 POP SWAP3 SWAP2 POP POP JUMP JUMPDEST DUP3 DUP2 DUP4 MCOPY PUSH0 DUP4 DUP4 ADD MSTORE POP POP POP JUMP JUMPDEST PUSH0 PUSH1 0x1F NOT PUSH1 0x1F DUP4 ADD AND SWAP1 POP SWAP2 SWAP1 POP JUMP JUMPDEST PUSH0 PUSH2 0x447 DUP3 PUSH2 0x405 JUMP JUMPDEST PUSH2 0x451 DUP2 DUP6 PUSH2 0x40F JUMP JUMPDEST SWAP4 POP PUSH2 0x461 DUP2 DUP6 PUSH1 0x20 DUP7 ADD PUSH2 0x41F JUMP JUMPDEST PUSH2 0x46A DUP2 PUSH2 0x42D JUMP JUMPDEST DUP5 ADD SWAP2 POP POP SWAP3 SWAP2 POP POP JUMP JUMPDEST PUSH0 PUSH1 0x20 DUP3 ADD SWAP1 POP DUP2 DUP2 SUB PUSH0 DUP4 ADD MSTORE PUSH2 0x48D DUP2 DUP5 PUSH2 0x43D JUMP JUMPDEST SWAP1 POP SWAP3 SWAP2 POP POP JUMP JUMPDEST PUSH32 0x4E487B7100000000000000000000000000000000000000000000000000000000 PUSH0 MSTORE PUSH1 0x41 PUSH1 0x4 MSTORE PUSH1 0x24 PUSH0 REVERT JUMPDEST PUSH32 0x4E487B7100000000000000000000000000000000000000000000000000000000 PUSH0 MSTORE PUSH1 0x32 PUSH1 0x4 MSTORE PUSH1 0x24 PUSH0 REVERT JUMPDEST PUSH32 0x4E487B7100000000000000000000000000000000000000000000000000000000 PUSH0 MSTORE PUSH1 0x12 PUSH1 0x4 MSTORE PUSH1 0x24 PUSH0 REVERT JUMPDEST PUSH32 0x4E487B7100000000000000000000000000000000000000000000000000000000 PUSH0 MSTORE PUSH1 0x11 PUSH1 0x4 MSTORE PUSH1 0x24 PUSH0 REVERT JUMPDEST PUSH0 PUSH2 0x553 DUP3 PUSH2 0x3A7 JUMP JUMPDEST SWAP2 POP PUSH2 0x55E DUP4 PUSH2 0x3A7 JUMP JUMPDEST SWAP3 POP DUP3 PUSH2 0x56E JUMPI PUSH2 0x56D PUSH2 0x4EF JUMP JUMPDEST JUMPDEST DUP3 DUP3 DIV SWAP1 POP SWAP3 SWAP2 POP POP JUMP JUMPDEST PUSH0 PUSH2 0x583 DUP3 PUSH2 0x3A7 JUMP JUMPDEST SWAP2 POP PUSH2 0x58E DUP4 PUSH2 0x3A7 JUMP JUMPDEST SWAP3 POP DUP3 PUSH2 0x59E JUMPI PUSH2 0x59D PUSH2 0x4EF JUMP JUMPDEST JUMPDEST DUP3 DUP3 MOD SWAP1 POP SWAP3 SWAP2 POP POP JUMP JUMPDEST PUSH0 PUSH2 0x5B3 DUP3 PUSH2 0x3A7 JUMP JUMPDEST SWAP2 POP PUSH2 0x5BE DUP4 PUSH2 0x3A7 JUMP JUMPDEST SWAP3 POP DUP3 DUP3 ADD SWAP1 POP DUP1 DUP3 GT ISZERO PUSH2 0x5D6 JUMPI PUSH2 0x5D5 PUSH2 0x51C JUMP JUMPDEST JUMPDEST SWAP3 SWAP2 POP POP JUMP JUMPDEST PUSH0 PUSH2 0x5E6 DUP3 PUSH2 0x3A7 JUMP JUMPDEST SWAP2 POP PUSH32 0xFFFFFFFFFFFFFFFFFFFFFFFFFFFFFFFFFFFFFFFFFFFFFFFFFFFFFFFFFFFFFFFF DUP3 SUB PUSH2 0x618 JUMPI PUSH2 0x617 PUSH2 0x51C JUMP JUMPDEST JUMPDEST PUSH1 0x1 DUP3 ADD SWAP1 POP SWAP2 SWAP1 POP JUMP JUMPDEST PUSH0 PUSH1 0xFF DUP3 AND SWAP1 POP SWAP2 SWAP1 POP JUMP JUMPDEST PUSH0 PUSH2 0x639 DUP3 PUSH2 0x623 JUMP JUMPDEST SWAP2 POP PUSH1 0xFF DUP3 SUB PUSH2 0x64C JUMPI PUSH2 0x64B PUSH2 0x51C JUMP JUMPDEST JUMPDEST PUSH1 0x1 DUP3 ADD SWAP1 POP SWAP2 SWAP1 POP JUMP INVALID LOG2 PUSH5 0x6970667358 0x22 SLT KECCAK256 PUSH20 0x1CD5684D3C1C2BFB5A06F88F2F154C79396A5F PUSH20 0x541EFC669338F3177B564736F6C634300081E00 CALLER "
				},
				"gasEstimates": {
					"creation": {
						"codeDepositCost": "335400",
						"executionCost": "495696",
						"totalCost": "831096"
					},
					"external": {
						"intToRoman(uint256)": "infinite"
					}
				},
				"methodIdentifiers": {
					"intToRoman(uint256)": "0cbc513a"
				}
			},
			"storageLayout": {
				"storage": [
					{
						"astId": 5,
						"contract": "solidity/IntToRoman.sol:IntToRoman",
						"label": "dict",
						"offset": 0,
						"slot": "0",
						"type": "t_mapping(t_uint256,t_bytes1)"
					},
					{
						"astId": 8,
						"contract": "solidity/IntToRoman.sol:IntToRoman",
						"label": "nums",
						"offset": 0,
						"slot": "1",
						"type": "t_array(t_uint256)dyn_storage"
					}
				],
				"types": {
					"t_array(t_uint256)dyn_storage": {
						"base": "t_uint256",
						"encoding": "dynamic_array",
						"label": "uint256[]",
						"numberOfBytes": "32"
					},
					"t_bytes1": {
						"encoding": "inplace",
						"label": "bytes1",
						"numberOfBytes": "1"
					},
					"t_mapping(t_uint256,t_bytes1)": {
						"encoding": "mapping",
						"key": "t_uint256",
						"label": "mapping(uint256 => bytes1)",
						"numberOfBytes": "32",
						"value": "t_bytes1"
					},
					"t_uint256": {
						"encoding": "inplace",
						"label": "uint256",
						"numberOfBytes": "32"
					}
				}
			},
			"userdoc": {
				"kind": "user",
				"methods": {},
				"version": 1
			}
		}
	}
}