{
	"solidity/ReverseStr.sol": {
		"ReverseStr": {
			"abi": [
				{
					"inputs": [
						{
							"internalType": "string",
							"name": "str",
							"type": "string"
						}
					],
					"name": "reverseStr",
					"outputs": [
						{
							"internalType": "string",
							"name": "",
							"type": "string"
						}
					],
					"stateMutability": "pure",
					"type": "function"
				}
			],
			"devdoc": {
				"kind": "dev",
				"methods": {},
				"version": 1
			},
			"evm": {
				"assembly": "    /* \"solidity/ReverseStr.sol\":57:400  contract ReverseStr {... */\n  mstore(0x40, 0x80)\n  callvalue\n  dup1\n  iszero\n  tag_1\n  jumpi\n  revert(0x00, 0x00)\ntag_1:\n  pop\n  dataSize(sub_0)\n  dup1\n  dataOffset(sub_0)\n  0x00\n  codecopy\n  0x00\n  return\nstop\n\nsub_0: assembly {\n        /* \"solidity/ReverseStr.sol\":57:400  contract ReverseStr {... */\n      mstore(0x40, 0x80)\n      callvalue\n      dup1\n      iszero\n      tag_1\n      jumpi\n      revert(0x00, 0x00)\n    tag_1:\n      pop\n      jumpi(tag_2, lt(calldatasize, 0x04))\n      shr(0xe0, calldataload(0x00))\n      dup1\n      0x84119917\n      eq\n      tag_3\n      jumpi\n    tag_2:\n      revert(0x00, 0x00)\n        /* \"solidity/ReverseStr.sol\":88:398  function reverseStr(string memory str) public pure returns (string memory) {... */\n    tag_3:\n      tag_4\n      0x04\n      dup1\n      calldatasize\n      sub\n      dup2\n      add\n      swap1\n      tag_5\n      swap2\n      swap1\n      tag_6\n      jump\t// in\n    tag_5:\n      tag_7\n      jump\t// in\n    tag_4:\n      mload(0x40)\n      tag_8\n      swap2\n      swap1\n      tag_9\n      jump\t// in\n    tag_8:\n      mload(0x40)\n      dup1\n      swap2\n      sub\n      swap1\n      return\n    tag_7:\n        /* \"solidity/ReverseStr.sol\":148:161  string memory */\n      0x60\n        /* \"solidity/ReverseStr.sol\":173:187  bytes memory b */\n      0x00\n        /* \"solidity/ReverseStr.sol\":196:199  str */\n      dup3\n        /* \"solidity/ReverseStr.sol\":173:200  bytes memory b = bytes(str) */\n      swap1\n      pop\n        /* \"solidity/ReverseStr.sol\":210:225  bytes memory nb */\n      0x00\n        /* \"solidity/ReverseStr.sol\":238:239  b */\n      dup2\n        /* \"solidity/ReverseStr.sol\":238:246  b.length */\n      mload\n        /* \"solidity/ReverseStr.sol\":228:247  new bytes(b.length) */\n      0xffffffffffffffff\n      dup2\n      gt\n      iszero\n      tag_11\n      jumpi\n      tag_12\n      tag_13\n      jump\t// in\n    tag_12:\n    tag_11:\n      mload(0x40)\n      swap1\n      dup1\n      dup3\n      mstore\n      dup1\n      0x1f\n      add\n      not(0x1f)\n      and\n      0x20\n      add\n      dup3\n      add\n      0x40\n      mstore\n      dup1\n      iszero\n      tag_14\n      jumpi\n      dup2\n      0x20\n      add\n      0x01\n      dup3\n      mul\n      dup1\n      calldatasize\n      dup4\n      calldatacopy\n      dup1\n      dup3\n      add\n      swap2\n      pop\n      pop\n      swap1\n      pop\n    tag_14:\n      pop\n        /* \"solidity/ReverseStr.sol\":210:247  bytes memory nb = new bytes(b.length) */\n      swap1\n      pop\n        /* \"solidity/ReverseStr.sol\":270:276  uint i */\n      0x00\n        /* \"solidity/ReverseStr.sol\":279:280  b */\n      dup3\n        /* \"solidity/ReverseStr.sol\":279:287  b.length */\n      mload\n        /* \"solidity/ReverseStr.sol\":270:287  uint i = b.length */\n      swap1\n      pop\n        /* \"solidity/ReverseStr.sol\":266:365  for(uint i = b.length; i > 0; i --) {... */\n    tag_15:\n        /* \"solidity/ReverseStr.sol\":293:294  0 */\n      0x00\n        /* \"solidity/ReverseStr.sol\":289:290  i */\n      dup2\n        /* \"solidity/ReverseStr.sol\":289:294  i > 0 */\n      gt\n        /* \"solidity/ReverseStr.sol\":266:365  for(uint i = b.length; i > 0; i --) {... */\n      iszero\n      tag_16\n      jumpi\n        /* \"solidity/ReverseStr.sol\":335:336  b */\n      dup3\n        /* \"solidity/ReverseStr.sol\":339:340  1 */\n      0x01\n        /* \"solidity/ReverseStr.sol\":337:338  i */\n      dup3\n        /* \"solidity/ReverseStr.sol\":337:340  i-1 */\n      tag_18\n      swap2\n      swap1\n      tag_19\n      jump\t// in\n    tag_18:\n        /* \"solidity/ReverseStr.sol\":335:341  b[i-1] */\n      dup2\n      mload\n      dup2\n      lt\n      tag_20\n      jumpi\n      tag_21\n      tag_22\n      jump\t// in\n    tag_21:\n    tag_20:\n      0x20\n      add\n      add\n      mload\n      0xf8\n      shr\n      0xf8\n      shl\n        /* \"solidity/ReverseStr.sol\":316:318  nb */\n      dup3\n        /* \"solidity/ReverseStr.sol\":330:331  i */\n      dup3\n        /* \"solidity/ReverseStr.sol\":319:320  b */\n      dup6\n        /* \"solidity/ReverseStr.sol\":319:327  b.length */\n      mload\n        /* \"solidity/ReverseStr.sol\":319:331  b.length - i */\n      tag_23\n      swap2\n      swap1\n      tag_19\n      jump\t// in\n    tag_23:\n        /* \"solidity/ReverseStr.sol\":316:332  nb[b.length - i] */\n      dup2\n      mload\n      dup2\n      lt\n      tag_24\n      jumpi\n      tag_25\n      tag_22\n      jump\t// in\n    tag_25:\n    tag_24:\n      0x20\n      add\n      add\n        /* \"solidity/ReverseStr.sol\":316:341  nb[b.length - i] = b[i-1] */\n      swap1\n      not(0xffffffffffffffffffffffffffffffffffffffffffffffffffffffffffffff)\n      and\n      swap1\n      dup2\n      0x00\n      byte\n      swap1\n      mstore8\n      pop\n        /* \"solidity/ReverseStr.sol\":296:300  i -- */\n      dup1\n      dup1\n      tag_26\n      swap1\n      tag_27\n      jump\t// in\n    tag_26:\n      swap2\n      pop\n      pop\n        /* \"solidity/ReverseStr.sol\":266:365  for(uint i = b.length; i > 0; i --) {... */\n      jump(tag_15)\n    tag_16:\n      pop\n        /* \"solidity/ReverseStr.sol\":388:390  nb */\n      dup1\n        /* \"solidity/ReverseStr.sol\":374:391  return string(nb) */\n      swap3\n      pop\n      pop\n      pop\n        /* \"solidity/ReverseStr.sol\":88:398  function reverseStr(string memory str) public pure returns (string memory) {... */\n      swap2\n      swap1\n      pop\n      jump\t// out\n        /* \"#utility.yul\":7:82   */\n    tag_28:\n        /* \"#utility.yul\":40:46   */\n      0x00\n        /* \"#utility.yul\":73:75   */\n      0x40\n        /* \"#utility.yul\":67:76   */\n      mload\n        /* \"#utility.yul\":57:76   */\n      swap1\n      pop\n        /* \"#utility.yul\":7:82   */\n      swap1\n      jump\t// out\n        /* \"#utility.yul\":88:205   */\n    tag_29:\n        /* \"#utility.yul\":197:198   */\n      0x00\n        /* \"#utility.yul\":194:195   */\n      0x00\n        /* \"#utility.yul\":187:199   */\n      revert\n        /* \"#utility.yul\":211:328   */\n    tag_30:\n        /* \"#utility.yul\":320:321   */\n      0x00\n        /* \"#utility.yul\":317:318   */\n      0x00\n        /* \"#utility.yul\":310:322   */\n      revert\n        /* \"#utility.yul\":334:451   */\n    tag_31:\n        /* \"#utility.yul\":443:444   */\n      0x00\n        /* \"#utility.yul\":440:441   */\n      0x00\n        /* \"#utility.yul\":433:445   */\n      revert\n        /* \"#utility.yul\":457:574   */\n    tag_32:\n        /* \"#utility.yul\":566:567   */\n      0x00\n        /* \"#utility.yul\":563:564   */\n      0x00\n        /* \"#utility.yul\":556:568   */\n      revert\n        /* \"#utility.yul\":580:682   */\n    tag_33:\n        /* \"#utility.yul\":621:627   */\n      0x00\n        /* \"#utility.yul\":672:674   */\n      0x1f\n        /* \"#utility.yul\":668:675   */\n      not\n        /* \"#utility.yul\":663:665   */\n      0x1f\n        /* \"#utility.yul\":656:661   */\n      dup4\n        /* \"#utility.yul\":652:666   */\n      add\n        /* \"#utility.yul\":648:676   */\n      and\n        /* \"#utility.yul\":638:676   */\n      swap1\n      pop\n        /* \"#utility.yul\":580:682   */\n      swap2\n      swap1\n      pop\n      jump\t// out\n        /* \"#utility.yul\":688:868   */\n    tag_13:\n        /* \"#utility.yul\":736:813   */\n      0x4e487b7100000000000000000000000000000000000000000000000000000000\n        /* \"#utility.yul\":733:734   */\n      0x00\n        /* \"#utility.yul\":726:814   */\n      mstore\n        /* \"#utility.yul\":833:837   */\n      0x41\n        /* \"#utility.yul\":830:831   */\n      0x04\n        /* \"#utility.yul\":823:838   */\n      mstore\n        /* \"#utility.yul\":857:861   */\n      0x24\n        /* \"#utility.yul\":854:855   */\n      0x00\n        /* \"#utility.yul\":847:862   */\n      revert\n        /* \"#utility.yul\":874:1155   */\n    tag_34:\n        /* \"#utility.yul\":957:984   */\n      tag_55\n        /* \"#utility.yul\":979:983   */\n      dup3\n        /* \"#utility.yul\":957:984   */\n      tag_33\n      jump\t// in\n    tag_55:\n        /* \"#utility.yul\":949:955   */\n      dup2\n        /* \"#utility.yul\":945:985   */\n      add\n        /* \"#utility.yul\":1087:1093   */\n      dup2\n        /* \"#utility.yul\":1075:1085   */\n      dup2\n        /* \"#utility.yul\":1072:1094   */\n      lt\n        /* \"#utility.yul\":1051:1069   */\n      0xffffffffffffffff\n        /* \"#utility.yul\":1039:1049   */\n      dup3\n        /* \"#utility.yul\":1036:1070   */\n      gt\n        /* \"#utility.yul\":1033:1095   */\n      or\n        /* \"#utility.yul\":1030:1118   */\n      iszero\n      tag_56\n      jumpi\n        /* \"#utility.yul\":1098:1116   */\n      tag_57\n      tag_13\n      jump\t// in\n    tag_57:\n        /* \"#utility.yul\":1030:1118   */\n    tag_56:\n        /* \"#utility.yul\":1138:1148   */\n      dup1\n        /* \"#utility.yul\":1134:1136   */\n      0x40\n        /* \"#utility.yul\":1127:1149   */\n      mstore\n        /* \"#utility.yul\":917:1155   */\n      pop\n        /* \"#utility.yul\":874:1155   */\n      pop\n      pop\n      jump\t// out\n        /* \"#utility.yul\":1161:1290   */\n    tag_35:\n        /* \"#utility.yul\":1195:1201   */\n      0x00\n        /* \"#utility.yul\":1222:1242   */\n      tag_59\n      tag_28\n      jump\t// in\n    tag_59:\n        /* \"#utility.yul\":1212:1242   */\n      swap1\n      pop\n        /* \"#utility.yul\":1251:1284   */\n      tag_60\n        /* \"#utility.yul\":1279:1283   */\n      dup3\n        /* \"#utility.yul\":1271:1277   */\n      dup3\n        /* \"#utility.yul\":1251:1284   */\n      tag_34\n      jump\t// in\n    tag_60:\n        /* \"#utility.yul\":1161:1290   */\n      swap2\n      swap1\n      pop\n      jump\t// out\n        /* \"#utility.yul\":1296:1604   */\n    tag_36:\n        /* \"#utility.yul\":1358:1362   */\n      0x00\n        /* \"#utility.yul\":1448:1466   */\n      0xffffffffffffffff\n        /* \"#utility.yul\":1440:1446   */\n      dup3\n        /* \"#utility.yul\":1437:1467   */\n      gt\n        /* \"#utility.yul\":1434:1490   */\n      iszero\n      tag_62\n      jumpi\n        /* \"#utility.yul\":1470:1488   */\n      tag_63\n      tag_13\n      jump\t// in\n    tag_63:\n        /* \"#utility.yul\":1434:1490   */\n    tag_62:\n        /* \"#utility.yul\":1508:1537   */\n      tag_64\n        /* \"#utility.yul\":1530:1536   */\n      dup3\n        /* \"#utility.yul\":1508:1537   */\n      tag_33\n      jump\t// in\n    tag_64:\n        /* \"#utility.yul\":1500:1537   */\n      swap1\n      pop\n        /* \"#utility.yul\":1592:1596   */\n      0x20\n        /* \"#utility.yul\":1586:1590   */\n      dup2\n        /* \"#utility.yul\":1582:1597   */\n      add\n        /* \"#utility.yul\":1574:1597   */\n      swap1\n      pop\n        /* \"#utility.yul\":1296:1604   */\n      swap2\n      swap1\n      pop\n      jump\t// out\n        /* \"#utility.yul\":1610:1758   */\n    tag_37:\n        /* \"#utility.yul\":1708:1714   */\n      dup3\n        /* \"#utility.yul\":1703:1706   */\n      dup2\n        /* \"#utility.yul\":1698:1701   */\n      dup4\n        /* \"#utility.yul\":1685:1715   */\n      calldatacopy\n        /* \"#utility.yul\":1749:1750   */\n      0x00\n        /* \"#utility.yul\":1740:1746   */\n      dup4\n        /* \"#utility.yul\":1735:1738   */\n      dup4\n        /* \"#utility.yul\":1731:1747   */\n      add\n        /* \"#utility.yul\":1724:1751   */\n      mstore\n        /* \"#utility.yul\":1610:1758   */\n      pop\n      pop\n      pop\n      jump\t// out\n        /* \"#utility.yul\":1764:2189   */\n    tag_38:\n        /* \"#utility.yul\":1842:1847   */\n      0x00\n        /* \"#utility.yul\":1867:1933   */\n      tag_67\n        /* \"#utility.yul\":1883:1932   */\n      tag_68\n        /* \"#utility.yul\":1925:1931   */\n      dup5\n        /* \"#utility.yul\":1883:1932   */\n      tag_36\n      jump\t// in\n    tag_68:\n        /* \"#utility.yul\":1867:1933   */\n      tag_35\n      jump\t// in\n    tag_67:\n        /* \"#utility.yul\":1858:1933   */\n      swap1\n      pop\n        /* \"#utility.yul\":1956:1962   */\n      dup3\n        /* \"#utility.yul\":1949:1954   */\n      dup2\n        /* \"#utility.yul\":1942:1963   */\n      mstore\n        /* \"#utility.yul\":1994:1998   */\n      0x20\n        /* \"#utility.yul\":1987:1992   */\n      dup2\n        /* \"#utility.yul\":1983:1999   */\n      add\n        /* \"#utility.yul\":2032:2035   */\n      dup5\n        /* \"#utility.yul\":2023:2029   */\n      dup5\n        /* \"#utility.yul\":2018:2021   */\n      dup5\n        /* \"#utility.yul\":2014:2030   */\n      add\n        /* \"#utility.yul\":2011:2036   */\n      gt\n        /* \"#utility.yul\":2008:2120   */\n      iszero\n      tag_69\n      jumpi\n        /* \"#utility.yul\":2039:2118   */\n      tag_70\n      tag_32\n      jump\t// in\n    tag_70:\n        /* \"#utility.yul\":2008:2120   */\n    tag_69:\n        /* \"#utility.yul\":2129:2183   */\n      tag_71\n        /* \"#utility.yul\":2176:2182   */\n      dup5\n        /* \"#utility.yul\":2171:2174   */\n      dup3\n        /* \"#utility.yul\":2166:2169   */\n      dup6\n        /* \"#utility.yul\":2129:2183   */\n      tag_37\n      jump\t// in\n    tag_71:\n        /* \"#utility.yul\":1848:2189   */\n      pop\n        /* \"#utility.yul\":1764:2189   */\n      swap4\n      swap3\n      pop\n      pop\n      pop\n      jump\t// out\n        /* \"#utility.yul\":2209:2549   */\n    tag_39:\n        /* \"#utility.yul\":2265:2270   */\n      0x00\n        /* \"#utility.yul\":2314:2317   */\n      dup3\n        /* \"#utility.yul\":2307:2311   */\n      0x1f\n        /* \"#utility.yul\":2299:2305   */\n      dup4\n        /* \"#utility.yul\":2295:2312   */\n      add\n        /* \"#utility.yul\":2291:2318   */\n      slt\n        /* \"#utility.yul\":2281:2403   */\n      tag_73\n      jumpi\n        /* \"#utility.yul\":2322:2401   */\n      tag_74\n      tag_31\n      jump\t// in\n    tag_74:\n        /* \"#utility.yul\":2281:2403   */\n    tag_73:\n        /* \"#utility.yul\":2439:2445   */\n      dup2\n        /* \"#utility.yul\":2426:2446   */\n      calldataload\n        /* \"#utility.yul\":2464:2543   */\n      tag_75\n        /* \"#utility.yul\":2539:2542   */\n      dup5\n        /* \"#utility.yul\":2531:2537   */\n      dup3\n        /* \"#utility.yul\":2524:2528   */\n      0x20\n        /* \"#utility.yul\":2516:2522   */\n      dup7\n        /* \"#utility.yul\":2512:2529   */\n      add\n        /* \"#utility.yul\":2464:2543   */\n      tag_38\n      jump\t// in\n    tag_75:\n        /* \"#utility.yul\":2455:2543   */\n      swap2\n      pop\n        /* \"#utility.yul\":2271:2549   */\n      pop\n        /* \"#utility.yul\":2209:2549   */\n      swap3\n      swap2\n      pop\n      pop\n      jump\t// out\n        /* \"#utility.yul\":2555:3064   */\n    tag_6:\n        /* \"#utility.yul\":2624:2630   */\n      0x00\n        /* \"#utility.yul\":2673:2675   */\n      0x20\n        /* \"#utility.yul\":2661:2670   */\n      dup3\n        /* \"#utility.yul\":2652:2659   */\n      dup5\n        /* \"#utility.yul\":2648:2671   */\n      sub\n        /* \"#utility.yul\":2644:2676   */\n      slt\n        /* \"#utility.yul\":2641:2760   */\n      iszero\n      tag_77\n      jumpi\n        /* \"#utility.yul\":2679:2758   */\n      tag_78\n      tag_29\n      jump\t// in\n    tag_78:\n        /* \"#utility.yul\":2641:2760   */\n    tag_77:\n        /* \"#utility.yul\":2827:2828   */\n      0x00\n        /* \"#utility.yul\":2816:2825   */\n      dup3\n        /* \"#utility.yul\":2812:2829   */\n      add\n        /* \"#utility.yul\":2799:2830   */\n      calldataload\n        /* \"#utility.yul\":2857:2875   */\n      0xffffffffffffffff\n        /* \"#utility.yul\":2849:2855   */\n      dup2\n        /* \"#utility.yul\":2846:2876   */\n      gt\n        /* \"#utility.yul\":2843:2960   */\n      iszero\n      tag_79\n      jumpi\n        /* \"#utility.yul\":2879:2958   */\n      tag_80\n      tag_30\n      jump\t// in\n    tag_80:\n        /* \"#utility.yul\":2843:2960   */\n    tag_79:\n        /* \"#utility.yul\":2984:3047   */\n      tag_81\n        /* \"#utility.yul\":3039:3046   */\n      dup5\n        /* \"#utility.yul\":3030:3036   */\n      dup3\n        /* \"#utility.yul\":3019:3028   */\n      dup6\n        /* \"#utility.yul\":3015:3037   */\n      add\n        /* \"#utility.yul\":2984:3047   */\n      tag_39\n      jump\t// in\n    tag_81:\n        /* \"#utility.yul\":2974:3047   */\n      swap2\n      pop\n        /* \"#utility.yul\":2770:3057   */\n      pop\n        /* \"#utility.yul\":2555:3064   */\n      swap3\n      swap2\n      pop\n      pop\n      jump\t// out\n        /* \"#utility.yul\":3070:3169   */\n    tag_40:\n        /* \"#utility.yul\":3122:3128   */\n      0x00\n        /* \"#utility.yul\":3156:3161   */\n      dup2\n        /* \"#utility.yul\":3150:3162   */\n      mload\n        /* \"#utility.yul\":3140:3162   */\n      swap1\n      pop\n        /* \"#utility.yul\":3070:3169   */\n      swap2\n      swap1\n      pop\n      jump\t// out\n        /* \"#utility.yul\":3175:3344   */\n    tag_41:\n        /* \"#utility.yul\":3259:3270   */\n      0x00\n        /* \"#utility.yul\":3293:3299   */\n      dup3\n        /* \"#utility.yul\":3288:3291   */\n      dup3\n        /* \"#utility.yul\":3281:3300   */\n      mstore\n        /* \"#utility.yul\":3333:3337   */\n      0x20\n        /* \"#utility.yul\":3328:3331   */\n      dup3\n        /* \"#utility.yul\":3324:3338   */\n      add\n        /* \"#utility.yul\":3309:3338   */\n      swap1\n      pop\n        /* \"#utility.yul\":3175:3344   */\n      swap3\n      swap2\n      pop\n      pop\n      jump\t// out\n        /* \"#utility.yul\":3350:3489   */\n    tag_42:\n        /* \"#utility.yul\":3439:3445   */\n      dup3\n        /* \"#utility.yul\":3434:3437   */\n      dup2\n        /* \"#utility.yul\":3429:3432   */\n      dup4\n        /* \"#utility.yul\":3423:3446   */\n      mcopy\n        /* \"#utility.yul\":3480:3481   */\n      0x00\n        /* \"#utility.yul\":3471:3477   */\n      dup4\n        /* \"#utility.yul\":3466:3469   */\n      dup4\n        /* \"#utility.yul\":3462:3478   */\n      add\n        /* \"#utility.yul\":3455:3482   */\n      mstore\n        /* \"#utility.yul\":3350:3489   */\n      pop\n      pop\n      pop\n      jump\t// out\n        /* \"#utility.yul\":3495:3872   */\n    tag_43:\n        /* \"#utility.yul\":3583:3586   */\n      0x00\n        /* \"#utility.yul\":3611:3650   */\n      tag_86\n        /* \"#utility.yul\":3644:3649   */\n      dup3\n        /* \"#utility.yul\":3611:3650   */\n      tag_40\n      jump\t// in\n    tag_86:\n        /* \"#utility.yul\":3666:3737   */\n      tag_87\n        /* \"#utility.yul\":3730:3736   */\n      dup2\n        /* \"#utility.yul\":3725:3728   */\n      dup6\n        /* \"#utility.yul\":3666:3737   */\n      tag_41\n      jump\t// in\n    tag_87:\n        /* \"#utility.yul\":3659:3737   */\n      swap4\n      pop\n        /* \"#utility.yul\":3746:3811   */\n      tag_88\n        /* \"#utility.yul\":3804:3810   */\n      dup2\n        /* \"#utility.yul\":3799:3802   */\n      dup6\n        /* \"#utility.yul\":3792:3796   */\n      0x20\n        /* \"#utility.yul\":3785:3790   */\n      dup7\n        /* \"#utility.yul\":3781:3797   */\n      add\n        /* \"#utility.yul\":3746:3811   */\n      tag_42\n      jump\t// in\n    tag_88:\n        /* \"#utility.yul\":3836:3865   */\n      tag_89\n        /* \"#utility.yul\":3858:3864   */\n      dup2\n        /* \"#utility.yul\":3836:3865   */\n      tag_33\n      jump\t// in\n    tag_89:\n        /* \"#utility.yul\":3831:3834   */\n      dup5\n        /* \"#utility.yul\":3827:3866   */\n      add\n        /* \"#utility.yul\":3820:3866   */\n      swap2\n      pop\n        /* \"#utility.yul\":3587:3872   */\n      pop\n        /* \"#utility.yul\":3495:3872   */\n      swap3\n      swap2\n      pop\n      pop\n      jump\t// out\n        /* \"#utility.yul\":3878:4191   */\n    tag_9:\n        /* \"#utility.yul\":3991:3995   */\n      0x00\n        /* \"#utility.yul\":4029:4031   */\n      0x20\n        /* \"#utility.yul\":4018:4027   */\n      dup3\n        /* \"#utility.yul\":4014:4032   */\n      add\n        /* \"#utility.yul\":4006:4032   */\n      swap1\n      pop\n        /* \"#utility.yul\":4078:4087   */\n      dup2\n        /* \"#utility.yul\":4072:4076   */\n      dup2\n        /* \"#utility.yul\":4068:4088   */\n      sub\n        /* \"#utility.yul\":4064:4065   */\n      0x00\n        /* \"#utility.yul\":4053:4062   */\n      dup4\n        /* \"#utility.yul\":4049:4066   */\n      add\n        /* \"#utility.yul\":4042:4089   */\n      mstore\n        /* \"#utility.yul\":4106:4184   */\n      tag_91\n        /* \"#utility.yul\":4179:4183   */\n      dup2\n        /* \"#utility.yul\":4170:4176   */\n      dup5\n        /* \"#utility.yul\":4106:4184   */\n      tag_43\n      jump\t// in\n    tag_91:\n        /* \"#utility.yul\":4098:4184   */\n      swap1\n      pop\n        /* \"#utility.yul\":3878:4191   */\n      swap3\n      swap2\n      pop\n      pop\n      jump\t// out\n        /* \"#utility.yul\":4197:4274   */\n    tag_44:\n        /* \"#utility.yul\":4234:4241   */\n      0x00\n        /* \"#utility.yul\":4263:4268   */\n      dup2\n        /* \"#utility.yul\":4252:4268   */\n      swap1\n      pop\n        /* \"#utility.yul\":4197:4274   */\n      swap2\n      swap1\n      pop\n      jump\t// out\n        /* \"#utility.yul\":4280:4460   */\n    tag_45:\n        /* \"#utility.yul\":4328:4405   */\n      0x4e487b7100000000000000000000000000000000000000000000000000000000\n        /* \"#utility.yul\":4325:4326   */\n      0x00\n        /* \"#utility.yul\":4318:4406   */\n      mstore\n        /* \"#utility.yul\":4425:4429   */\n      0x11\n        /* \"#utility.yul\":4422:4423   */\n      0x04\n        /* \"#utility.yul\":4415:4430   */\n      mstore\n        /* \"#utility.yul\":4449:4453   */\n      0x24\n        /* \"#utility.yul\":4446:4447   */\n      0x00\n        /* \"#utility.yul\":4439:4454   */\n      revert\n        /* \"#utility.yul\":4466:4660   */\n    tag_19:\n        /* \"#utility.yul\":4506:4510   */\n      0x00\n        /* \"#utility.yul\":4526:4546   */\n      tag_95\n        /* \"#utility.yul\":4544:4545   */\n      dup3\n        /* \"#utility.yul\":4526:4546   */\n      tag_44\n      jump\t// in\n    tag_95:\n        /* \"#utility.yul\":4521:4546   */\n      swap2\n      pop\n        /* \"#utility.yul\":4560:4580   */\n      tag_96\n        /* \"#utility.yul\":4578:4579   */\n      dup4\n        /* \"#utility.yul\":4560:4580   */\n      tag_44\n      jump\t// in\n    tag_96:\n        /* \"#utility.yul\":4555:4580   */\n      swap3\n      pop\n        /* \"#utility.yul\":4604:4605   */\n      dup3\n        /* \"#utility.yul\":4601:4602   */\n      dup3\n        /* \"#utility.yul\":4597:4606   */\n      sub\n        /* \"#utility.yul\":4589:4606   */\n      swap1\n      pop\n        /* \"#utility.yul\":4628:4629   */\n      dup2\n        /* \"#utility.yul\":4622:4626   */\n      dup2\n        /* \"#utility.yul\":4619:4630   */\n      gt\n        /* \"#utility.yul\":4616:4653   */\n      iszero\n      tag_97\n      jumpi\n        /* \"#utility.yul\":4633:4651   */\n      tag_98\n      tag_45\n      jump\t// in\n    tag_98:\n        /* \"#utility.yul\":4616:4653   */\n    tag_97:\n        /* \"#utility.yul\":4466:4660   */\n      swap3\n      swap2\n      pop\n      pop\n      jump\t// out\n        /* \"#utility.yul\":4666:4846   */\n    tag_22:\n        /* \"#utility.yul\":4714:4791   */\n      0x4e487b7100000000000000000000000000000000000000000000000000000000\n        /* \"#utility.yul\":4711:4712   */\n      0x00\n        /* \"#utility.yul\":4704:4792   */\n      mstore\n        /* \"#utility.yul\":4811:4815   */\n      0x32\n        /* \"#utility.yul\":4808:4809   */\n      0x04\n        /* \"#utility.yul\":4801:4816   */\n      mstore\n        /* \"#utility.yul\":4835:4839   */\n      0x24\n        /* \"#utility.yul\":4832:4833   */\n      0x00\n        /* \"#utility.yul\":4825:4840   */\n      revert\n        /* \"#utility.yul\":4852:5023   */\n    tag_27:\n        /* \"#utility.yul\":4891:4894   */\n      0x00\n        /* \"#utility.yul\":4914:4938   */\n      tag_101\n        /* \"#utility.yul\":4932:4937   */\n      dup3\n        /* \"#utility.yul\":4914:4938   */\n      tag_44\n      jump\t// in\n    tag_101:\n        /* \"#utility.yul\":4905:4938   */\n      swap2\n      pop\n        /* \"#utility.yul\":4960:4964   */\n      0x00\n        /* \"#utility.yul\":4953:4958   */\n      dup3\n        /* \"#utility.yul\":4950:4965   */\n      sub\n        /* \"#utility.yul\":4947:4988   */\n      tag_102\n      jumpi\n        /* \"#utility.yul\":4968:4986   */\n      tag_103\n      tag_45\n      jump\t// in\n    tag_103:\n        /* \"#utility.yul\":4947:4988   */\n    tag_102:\n        /* \"#utility.yul\":5015:5016   */\n      0x01\n        /* \"#utility.yul\":5008:5013   */\n      dup3\n        /* \"#utility.yul\":5004:5017   */\n      sub\n        /* \"#utility.yul\":4997:5017   */\n      swap1\n      pop\n        /* \"#utility.yul\":4852:5023   */\n      swap2\n      swap1\n      pop\n      jump\t// out\n\n    auxdata: 0xa2646970667358221220ed17ea9201c91567ed5877de4f8d0d7f269e076e3ee0d3bf399169df1e8bf5a564736f6c634300081e0033\n}\n",
				"bytecode": {
					"linkReferences": {},
					"object": "6080604052348015600e575f5ffd5b5061045e8061001c5f395ff3fe608060405234801561000f575f5ffd5b5060043610610029575f3560e01c8063841199171461002d575b5f5ffd5b610047600480360381019061004291906102a4565b61005d565b604051610054919061034b565b60405180910390f35b60605f8290505f815167ffffffffffffffff81111561007f5761007e610180565b5b6040519080825280601f01601f1916602001820160405280156100b15781602001600182028036833780820191505090505b5090505f825190505b5f81111561014c57826001826100d091906103a1565b815181106100e1576100e06103d4565b5b602001015160f81c60f81b828285516100fa91906103a1565b8151811061010b5761010a6103d4565b5b60200101907effffffffffffffffffffffffffffffffffffffffffffffffffffffffffffff191690815f1a905350808061014490610401565b9150506100ba565b508092505050919050565b5f604051905090565b5f5ffd5b5f5ffd5b5f5ffd5b5f5ffd5b5f601f19601f8301169050919050565b7f4e487b71000000000000000000000000000000000000000000000000000000005f52604160045260245ffd5b6101b682610170565b810181811067ffffffffffffffff821117156101d5576101d4610180565b5b80604052505050565b5f6101e7610157565b90506101f382826101ad565b919050565b5f67ffffffffffffffff82111561021257610211610180565b5b61021b82610170565b9050602081019050919050565b828183375f83830152505050565b5f610248610243846101f8565b6101de565b9050828152602081018484840111156102645761026361016c565b5b61026f848285610228565b509392505050565b5f82601f83011261028b5761028a610168565b5b813561029b848260208601610236565b91505092915050565b5f602082840312156102b9576102b8610160565b5b5f82013567ffffffffffffffff8111156102d6576102d5610164565b5b6102e284828501610277565b91505092915050565b5f81519050919050565b5f82825260208201905092915050565b8281835e5f83830152505050565b5f61031d826102eb565b61032781856102f5565b9350610337818560208601610305565b61034081610170565b840191505092915050565b5f6020820190508181035f8301526103638184610313565b905092915050565b5f819050919050565b7f4e487b71000000000000000000000000000000000000000000000000000000005f52601160045260245ffd5b5f6103ab8261036b565b91506103b68361036b565b92508282039050818111156103ce576103cd610374565b5b92915050565b7f4e487b71000000000000000000000000000000000000000000000000000000005f52603260045260245ffd5b5f61040b8261036b565b91505f820361041d5761041c610374565b5b60018203905091905056fea2646970667358221220ed17ea9201c91567ed5877de4f8d0d7f269e076e3ee0d3bf399169df1e8bf5a564736f6c634300081e0033",
					"opcodes": "PUSH1 0x80 PUSH1 0x40 MSTORE CALLVALUE DUP1 ISZERO PUSH1 0xE JUMPI PUSH0 PUSH0 REVERT JUMPDEST POP PUSH2 0x45E DUP1 PUSH2 0x1C PUSH0 CODECOPY PUSH0 RETURN INVALID PUSH1 0x80 PUSH1 0x40 MSTORE CALLVALUE DUP1 ISZERO PUSH2 0xF JUMPI PUSH0 PUSH0 REVERT JUMPDEST POP PUSH1 0x4 CALLDATASIZE LT PUSH2 0x29 JUMPI PUSH0 CALLDATALOAD PUSH1 0xE0 SHR DUP1 PUSH4 0x84119917 EQ PUSH2 0x2D JUMPI JUMPDEST PUSH0 PUSH0 REVERT JUMPDEST PUSH2 0x47 PUSH1 0x4 DUP1 CALLDATASIZE SUB DUP2 ADD SWAP1 PUSH2 0x42 SWAP2 SWAP1 PUSH2 0x2A4 JUMP JUMPDEST PUSH2 0x5D JUMP JUMPDEST PUSH1 0x40 MLOAD PUSH2 0x54 SWAP2 SWAP1 PUSH2 0x34B JUMP JUMPDEST PUSH1 0x40 MLOAD DUP1 SWAP2 SUB SWAP1 RETURN JUMPDEST PUSH1 0x60 PUSH0 DUP3 SWAP1 POP PUSH0 DUP2 MLOAD PUSH8 0xFFFFFFFFFFFFFFFF DUP2 GT ISZERO PUSH2 0x7F JUMPI PUSH2 0x7E PUSH2 0x180 JUMP JUMPDEST JUMPDEST PUSH1 0x40 MLOAD SWAP1 DUP1 DUP3 MSTORE DUP1 PUSH1 0x1F ADD PUSH1 0x1F NOT AND PUSH1 0x20 ADD DUP3 ADD PUSH1 0x40 MSTORE DUP1 ISZERO PUSH2 0xB1 JUMPI DUP2 PUSH1 0x20 ADD PUSH1 0x1 DUP3 MUL DUP1 CALLDATASIZE DUP4 CALLDATACOPY DUP1 DUP3 ADD SWAP2 POP POP SWAP1 POP JUMPDEST POP SWAP1 POP PUSH0 DUP3 MLOAD SWAP1 POP JUMPDEST PUSH0 DUP2 GT ISZERO PUSH2 0x14C JUMPI DUP3 PUSH1 0x1 DUP3 PUSH2 0xD0 SWAP2 SWAP1 PUSH2 0x3A1 JUMP JUMPDEST DUP2 MLOAD DUP2 LT PUSH2 0xE1 JUMPI PUSH2 0xE0 PUSH2 0x3D4 JUMP JUMPDEST JUMPDEST PUSH1 0x20 ADD ADD MLOAD PUSH1 0xF8 SHR PUSH1 0xF8 SHL DUP3 DUP3 DUP6 MLOAD PUSH2 0xFA SWAP2 SWAP1 PUSH2 0x3A1 JUMP JUMPDEST DUP2 MLOAD DUP2 LT PUSH2 0x10B JUMPI PUSH2 0x10A PUSH2 0x3D4 JUMP JUMPDEST JUMPDEST PUSH1 0x20 ADD ADD SWAP1 PUSH31 0xFFFFFFFFFFFFFFFFFFFFFFFFFFFFFFFFFFFFFFFFFFFFFFFFFFFFFFFFFFFFFF NOT AND SWAP1 DUP2 PUSH0 BYTE SWAP1 MSTORE8 POP DUP1 DUP1 PUSH2 0x144 SWAP1 PUSH2 0x401 JUMP JUMPDEST SWAP2 POP POP PUSH2 0xBA JUMP JUMPDEST POP DUP1 SWAP3 POP POP POP SWAP2 SWAP1 POP JUMP JUMPDEST PUSH0 PUSH1 0x40 MLOAD SWAP1 POP SWAP1 JUMP JUMPDEST PUSH0 PUSH0 REVERT JUMPDEST PUSH0 PUSH0 REVERT JUMPDEST PUSH0 PUSH0 REVERT JUMPDEST PUSH0 PUSH0 REVERT JUMPDEST PUSH0 PUSH1 0x1F NOT PUSH1 0x1F DUP4 ADD AND SWAP1 POP SWAP2 SWAP1 POP JUMP JUMPDEST PUSH32 0x4E487B7100000000000000000000000000000000000000000000000000000000 PUSH0 MSTORE PUSH1 0x41 PUSH1 0x4 MSTORE PUSH1 0x24 PUSH0 REVERT JUMPDEST PUSH2 0x1B6 DUP3 PUSH2 0x170 JUMP JUMPDEST DUP2 ADD DUP2 DUP2 LT PUSH8 0xFFFFFFFFFFFFFFFF DUP3 GT OR ISZERO PUSH2 0x1D5 JUMPI PUSH2 0x1D4 PUSH2 0x180 JUMP JUMPDEST JUMPDEST DUP1 PUSH1 0x40 MSTORE POP POP POP JUMP JUMPDEST PUSH0 PUSH2 0x1E7 PUSH2 0x157 JUMP JUMPDEST SWAP1 POP PUSH2 0x1F3 DUP3 DUP3 PUSH2 0x1AD JUMP JUMPDEST SWAP2 SWAP1 POP JUMP JUMPDEST PUSH0 PUSH8 0xFFFFFFFFFFFFFFFF DUP3 GT ISZERO PUSH2 0x212 JUMPI PUSH2 0x211 PUSH2 0x180 JUMP JUMPDEST JUMPDEST PUSH2 0x21B DUP3 PUSH2 0x170 JUMP JUMPDEST SWAP1 POP PUSH1 0x20 DUP2 ADD SWAP1 POP SWAP2 SWAP1 POP JUMP JUMPDEST DUP3 DUP2 DUP4 CALLDATACOPY PUSH0 DUP4 DUP4 ADD MSTORE POP POP POP JUMP JUMPDEST PUSH0 PUSH2 0x248 PUSH2 0x243 DUP5 PUSH2 0x1F8 JUMP JUMPDEST PUSH2 0x1DE JUMP JUMPDEST SWAP1 POP DUP3 DUP2 MSTORE PUSH1 0x20 DUP2 ADD DUP5 DUP5 DUP5 ADD GT ISZERO PUSH2 0x264 JUMPI PUSH2 0x263 PUSH2 0x16C JUMP JUMPDEST JUMPDEST PUSH2 0x26F DUP5 DUP3 DUP6 PUSH2 0x228 JUMP JUMPDEST POP SWAP4 SWAP3 POP POP POP JUMP JUMPDEST PUSH0 DUP3 PUSH1 0x1F DUP4 ADD SLT PUSH2 0x28B JUMPI PUSH2 0x28A PUSH2 0x168 JUMP JUMPDEST JUMPDEST DUP2 CALLDATALOAD PUSH2 0x29B DUP5 DUP3 PUSH1 0x20 DUP7 ADD PUSH2 0x236 JUMP JUMPDEST SWAP2 POP POP SWAP3 SWAP2 POP POP JUMP JUMPDEST PUSH0 PUSH1 0x20 DUP3 DUP5 SUB SLT ISZERO PUSH2 0x2B9 JUMPI PUSH2 0x2B8 PUSH2 0x160 JUMP JUMPDEST JUMPDEST PUSH0 DUP3 ADD CALLDATALOAD PUSH8 0xFFFFFFFFFFFFFFFF DUP2 GT ISZERO PUSH2 0x2D6 JUMPI PUSH2 0x2D5 PUSH2 0x164 JUMP JUMPDEST JUMPDEST PUSH2 0x2E2 DUP5 DUP3 DUP6 ADD PUSH2 0x277 JUMP JUMPDEST SWAP2 POP POP SWAP3 SWAP2 POP POP JUMP JUMPDEST PUSH0 DUP2 MLOAD SWAP1 POP SWAP2 SWAP1 POP JUMP JUMPDEST PUSH0 DUP3 DUP3 MSTORE PUSH1 0x20 DUP3 ADD SWAP1 POP SWAP3 SWAP2 POP POP JUMP JUMPDEST DUP3 DUP2 DUP4 MCOPY PUSH0 DUP4 DUP4 ADD MSTORE POP POP POP JUMP JUMPDEST PUSH0 PUSH2 0x31D DUP3 PUSH2 0x2EB JUMP JUMPDEST PUSH2 0x327 DUP2 DUP6 PUSH2 0x2F5 JUMP JUMPDEST SWAP4 POP PUSH2 0x337 DUP2 DUP6 PUSH1 0x20 DUP7 ADD PUSH2 0x305 JUMP JUMPDEST PUSH2 0x340 DUP2 PUSH2 0x170 JUMP JUMPDEST DUP5 ADD SWAP2 POP POP SWAP3 SWAP2 POP POP JUMP JUMPDEST PUSH0 PUSH1 0x20 DUP3 ADD SWAP1 POP DUP2 DUP2 SUB PUSH0 DUP4 ADD MSTORE PUSH2 0x363 DUP2 DUP5 PUSH2 0x313 JUMP JUMPDEST SWAP1 POP SWAP3 SWAP2 POP POP JUMP JUMPDEST PUSH0 DUP2 SWAP1 POP SWAP2 SWAP1 POP JUMP JUMPDEST PUSH32 0x4E487B7100000000000000000000000000000000000000000000000000000000 PUSH0 MSTORE PUSH1 0x11 PUSH1 0x4 MSTORE PUSH1 0x24 PUSH0 REVERT JUMPDEST PUSH0 PUSH2 0x3AB DUP3 PUSH2 0x36B JUMP JUMPDEST SWAP2 POP PUSH2 0x3B6 DUP4 PUSH2 0x36B JUMP JUMPDEST SWAP3 POP DUP3 DUP3 SUB SWAP1 POP DUP2 DUP2 GT ISZERO PUSH2 0x3CE JUMPI PUSH2 0x3CD PUSH2 0x374 JUMP JUMPDEST JUMPDEST SWAP3 SWAP2 POP POP JUMP JUMPDEST PUSH32 0x4E487B7100000000000000000000000000000000000000000000000000000000 PUSH0 MSTORE PUSH1 0x32 PUSH1 0x4 MSTORE PUSH1 0x24 PUSH0 REVERT JUMPDEST PUSH0 PUSH2 0x40B DUP3 PUSH2 0x36B JUMP JUMPDEST SWAP2 POP PUSH0 DUP3 SUB PUSH2 0x41D JUMPI PUSH2 0x41C PUSH2 0x374 JUMP JUMPDEST JUMPDEST PUSH1 0x1 DUP3 SUB SWAP1 POP SWAP2 SWAP1 POP JUMP INVALID LOG2 PUSH5 0x6970667358 0x22 SLT KECCAK256 0xED OR 0xEA SWAP3 ADD 0xC9 ISZERO PUSH8 0xED5877DE4F8D0D7F 0x26 SWAP15 SMOD PUSH15 0x3EE0D3BF399169DF1E8BF5A564736F PUSH13 0x634300081E0033000000000000 "
				},
				"gasEstimates": {
					"creation": {
						"codeDepositCost": "223600",
						"executionCost": "261",
						"totalCost": "223861"
					},
					"external": {
						"reverseStr(string)": "infinite"
					}
				},
				"methodIdentifiers": {
					"reverseStr(string)": "84119917"
				}
			},
			"storageLayout": {
				"storage": [],
				"types": null
			},
			"userdoc": {
				"kind": "user",
				"methods": {},
				"version": 1
			}
		}
	}
}