{
	"solidity/MergeSortArr.sol": {
		"MergeSortArr": {
			"abi": [
				{
					"inputs": [
						{
							"internalType": "uint256",
							"name": "x",
							"type": "uint256"
						}
					],
					"name": "compute",
					"outputs": [
						{
							"internalType": "uint256",
							"name": "",
							"type": "uint256"
						}
					],
					"stateMutability": "pure",
					"type": "function"
				},
				{
					"inputs": [
						{
							"internalType": "uint256[]",
							"name": "arr1",
							"type": "uint256[]"
						},
						{
							"internalType": "uint256[]",
							"name": "arr2",
							"type": "uint256[]"
						}
					],
					"name": "doMerge",
					"outputs": [
						{
							"internalType": "uint256[]",
							"name": "",
							"type": "uint256[]"
						}
					],
					"stateMutability": "pure",
					"type": "function"
				},
				{
					"inputs": [
						{
							"internalType": "uint256[]",
							"name": "arr1",
							"type": "uint256[]"
						},
						{
							"internalType": "uint256[]",
							"name": "arr2",
							"type": "uint256[]"
						}
					],
					"name": "merge",
					"outputs": [
						{
							"internalType": "uint256[]",
							"name": "",
							"type": "uint256[]"
						}
					],
					"stateMutability": "nonpayable",
					"type": "function"
				}
			],
			"devdoc": {
				"kind": "dev",
				"methods": {},
				"version": 1
			},
			"evm": {
				"assembly": "    /* \"solidity/MergeSortArr.sol\":58:1969  contract MergeSortArr {... */\n  mstore(0x40, 0x80)\n  callvalue\n  dup1\n  iszero\n  tag_1\n  jumpi\n  revert(0x00, 0x00)\ntag_1:\n  pop\n  dataSize(sub_0)\n  dup1\n  dataOffset(sub_0)\n  0x00\n  codecopy\n  0x00\n  return\nstop\n\nsub_0: assembly {\n        /* \"solidity/MergeSortArr.sol\":58:1969  contract MergeSortArr {... */\n      mstore(0x40, 0x80)\n      callvalue\n      dup1\n      iszero\n      tag_1\n      jumpi\n      revert(0x00, 0x00)\n    tag_1:\n      pop\n      jumpi(tag_2, lt(calldatasize, 0x04))\n      shr(0xe0, calldataload(0x00))\n      dup1\n      0x088b9bf6\n      eq\n      tag_3\n      jumpi\n      dup1\n      0x31bf1a01\n      eq\n      tag_4\n      jumpi\n      dup1\n      0x5ed86d5c\n      eq\n      tag_5\n      jumpi\n    tag_2:\n      revert(0x00, 0x00)\n        /* \"solidity/MergeSortArr.sol\":87:539  function merge(uint[] memory arr1, uint[] memory arr2) public returns ( uint[] memory) {... */\n    tag_3:\n      tag_6\n      0x04\n      dup1\n      calldatasize\n      sub\n      dup2\n      add\n      swap1\n      tag_7\n      swap2\n      swap1\n      tag_8\n      jump\t// in\n    tag_7:\n      tag_9\n      jump\t// in\n    tag_6:\n      mload(0x40)\n      tag_10\n      swap2\n      swap1\n      tag_11\n      jump\t// in\n    tag_10:\n      mload(0x40)\n      dup1\n      swap2\n      sub\n      swap1\n      return\n        /* \"solidity/MergeSortArr.sol\":1201:1967  function doMerge(uint[] memory arr1, uint[] memory arr2) public pure returns ( uint[] memory) {... */\n    tag_4:\n      tag_12\n      0x04\n      dup1\n      calldatasize\n      sub\n      dup2\n      add\n      swap1\n      tag_13\n      swap2\n      swap1\n      tag_8\n      jump\t// in\n    tag_13:\n      tag_14\n      jump\t// in\n    tag_12:\n      mload(0x40)\n      tag_15\n      swap2\n      swap1\n      tag_11\n      jump\t// in\n    tag_15:\n      mload(0x40)\n      dup1\n      swap2\n      sub\n      swap1\n      return\n        /* \"solidity/MergeSortArr.sol\":545:626  function compute(uint x) public pure returns (uint) {... */\n    tag_5:\n      tag_16\n      0x04\n      dup1\n      calldatasize\n      sub\n      dup2\n      add\n      swap1\n      tag_17\n      swap2\n      swap1\n      tag_18\n      jump\t// in\n    tag_17:\n      tag_19\n      jump\t// in\n    tag_16:\n      mload(0x40)\n      tag_20\n      swap2\n      swap1\n      tag_21\n      jump\t// in\n    tag_20:\n      mload(0x40)\n      dup1\n      swap2\n      sub\n      swap1\n      return\n        /* \"solidity/MergeSortArr.sol\":87:539  function merge(uint[] memory arr1, uint[] memory arr2) public returns ( uint[] memory) {... */\n    tag_9:\n        /* \"solidity/MergeSortArr.sol\":159:172  uint[] memory */\n      0x60\n        /* \"solidity/MergeSortArr.sol\":184:192  uint len */\n      0x00\n        /* \"solidity/MergeSortArr.sol\":209:213  arr2 */\n      dup3\n        /* \"solidity/MergeSortArr.sol\":209:220  arr2.length */\n      mload\n        /* \"solidity/MergeSortArr.sol\":195:199  arr1 */\n      dup5\n        /* \"solidity/MergeSortArr.sol\":195:206  arr1.length */\n      mload\n        /* \"solidity/MergeSortArr.sol\":195:220  arr1.length + arr2.length */\n      tag_23\n      swap2\n      swap1\n      tag_24\n      jump\t// in\n    tag_23:\n        /* \"solidity/MergeSortArr.sol\":184:220  uint len = arr1.length + arr2.length */\n      swap1\n      pop\n        /* \"solidity/MergeSortArr.sol\":230:248  uint[] memory marr */\n      0x00\n        /* \"solidity/MergeSortArr.sol\":262:265  len */\n      dup2\n        /* \"solidity/MergeSortArr.sol\":251:266  new uint[](len) */\n      0xffffffffffffffff\n      dup2\n      gt\n      iszero\n      tag_25\n      jumpi\n      tag_26\n      tag_27\n      jump\t// in\n    tag_26:\n    tag_25:\n      mload(0x40)\n      swap1\n      dup1\n      dup3\n      mstore\n      dup1\n      0x20\n      mul\n      0x20\n      add\n      dup3\n      add\n      0x40\n      mstore\n      dup1\n      iszero\n      tag_28\n      jumpi\n      dup2\n      0x20\n      add\n      0x20\n      dup3\n      mul\n      dup1\n      calldatasize\n      dup4\n      calldatacopy\n      dup1\n      dup3\n      add\n      swap2\n      pop\n      pop\n      swap1\n      pop\n    tag_28:\n      pop\n        /* \"solidity/MergeSortArr.sol\":230:266  uint[] memory marr = new uint[](len) */\n      swap1\n      pop\n        /* \"solidity/MergeSortArr.sol\":276:282  uint l */\n      0x00\n        /* \"solidity/MergeSortArr.sol\":285:286  0 */\n      0x00\n        /* \"solidity/MergeSortArr.sol\":276:286  uint l = 0 */\n      swap1\n      pop\n        /* \"solidity/MergeSortArr.sol\":301:307  uint i */\n      0x00\n        /* \"solidity/MergeSortArr.sol\":308:309  0 */\n      0x00\n        /* \"solidity/MergeSortArr.sol\":301:309  uint i=0 */\n      swap1\n      pop\n        /* \"solidity/MergeSortArr.sol\":296:394  for (uint i=0; i < arr1.length; i ++) {... */\n    tag_29:\n        /* \"solidity/MergeSortArr.sol\":315:319  arr1 */\n      dup7\n        /* \"solidity/MergeSortArr.sol\":315:326  arr1.length */\n      mload\n        /* \"solidity/MergeSortArr.sol\":311:312  i */\n      dup2\n        /* \"solidity/MergeSortArr.sol\":311:326  i < arr1.length */\n      lt\n        /* \"solidity/MergeSortArr.sol\":296:394  for (uint i=0; i < arr1.length; i ++) {... */\n      iszero\n      tag_30\n      jumpi\n        /* \"solidity/MergeSortArr.sol\":358:362  arr1 */\n      dup7\n        /* \"solidity/MergeSortArr.sol\":363:364  i */\n      dup2\n        /* \"solidity/MergeSortArr.sol\":358:365  arr1[i] */\n      dup2\n      mload\n      dup2\n      lt\n      tag_32\n      jumpi\n      tag_33\n      tag_34\n      jump\t// in\n    tag_33:\n    tag_32:\n      0x20\n      mul\n      0x20\n      add\n      add\n      mload\n        /* \"solidity/MergeSortArr.sol\":348:352  marr */\n      dup4\n        /* \"solidity/MergeSortArr.sol\":353:354  l */\n      dup4\n        /* \"solidity/MergeSortArr.sol\":348:355  marr[l] */\n      dup2\n      mload\n      dup2\n      lt\n      tag_35\n      jumpi\n      tag_36\n      tag_34\n      jump\t// in\n    tag_36:\n    tag_35:\n      0x20\n      mul\n      0x20\n      add\n      add\n        /* \"solidity/MergeSortArr.sol\":348:365  marr[l] = arr1[i] */\n      dup2\n      dup2\n      mstore\n      pop\n      pop\n        /* \"solidity/MergeSortArr.sol\":379:383  l ++ */\n      dup2\n      dup1\n      tag_37\n      swap1\n      tag_38\n      jump\t// in\n    tag_37:\n      swap3\n      pop\n      pop\n        /* \"solidity/MergeSortArr.sol\":328:332  i ++ */\n      dup1\n      dup1\n      0x01\n      add\n      swap2\n      pop\n      pop\n        /* \"solidity/MergeSortArr.sol\":296:394  for (uint i=0; i < arr1.length; i ++) {... */\n      jump(tag_29)\n    tag_30:\n      pop\n        /* \"solidity/MergeSortArr.sol\":408:414  uint j */\n      0x00\n        /* \"solidity/MergeSortArr.sol\":417:418  0 */\n      0x00\n        /* \"solidity/MergeSortArr.sol\":408:418  uint j = 0 */\n      swap1\n      pop\n        /* \"solidity/MergeSortArr.sol\":403:503  for (uint j = 0; j < arr2.length; j ++) {... */\n    tag_39:\n        /* \"solidity/MergeSortArr.sol\":424:428  arr2 */\n      dup6\n        /* \"solidity/MergeSortArr.sol\":424:435  arr2.length */\n      mload\n        /* \"solidity/MergeSortArr.sol\":420:421  j */\n      dup2\n        /* \"solidity/MergeSortArr.sol\":420:435  j < arr2.length */\n      lt\n        /* \"solidity/MergeSortArr.sol\":403:503  for (uint j = 0; j < arr2.length; j ++) {... */\n      iszero\n      tag_40\n      jumpi\n        /* \"solidity/MergeSortArr.sol\":467:471  arr2 */\n      dup6\n        /* \"solidity/MergeSortArr.sol\":472:473  j */\n      dup2\n        /* \"solidity/MergeSortArr.sol\":467:474  arr2[j] */\n      dup2\n      mload\n      dup2\n      lt\n      tag_42\n      jumpi\n      tag_43\n      tag_34\n      jump\t// in\n    tag_43:\n    tag_42:\n      0x20\n      mul\n      0x20\n      add\n      add\n      mload\n        /* \"solidity/MergeSortArr.sol\":457:461  marr */\n      dup4\n        /* \"solidity/MergeSortArr.sol\":462:463  l */\n      dup4\n        /* \"solidity/MergeSortArr.sol\":457:464  marr[l] */\n      dup2\n      mload\n      dup2\n      lt\n      tag_44\n      jumpi\n      tag_45\n      tag_34\n      jump\t// in\n    tag_45:\n    tag_44:\n      0x20\n      mul\n      0x20\n      add\n      add\n        /* \"solidity/MergeSortArr.sol\":457:474  marr[l] = arr2[j] */\n      dup2\n      dup2\n      mstore\n      pop\n      pop\n        /* \"solidity/MergeSortArr.sol\":488:492  l ++ */\n      dup2\n      dup1\n      tag_46\n      swap1\n      tag_38\n      jump\t// in\n    tag_46:\n      swap3\n      pop\n      pop\n        /* \"solidity/MergeSortArr.sol\":437:441  j ++ */\n      dup1\n      dup1\n      0x01\n      add\n      swap2\n      pop\n      pop\n        /* \"solidity/MergeSortArr.sol\":403:503  for (uint j = 0; j < arr2.length; j ++) {... */\n      jump(tag_39)\n    tag_40:\n      pop\n        /* \"solidity/MergeSortArr.sol\":519:531  merge1(marr) */\n      tag_47\n        /* \"solidity/MergeSortArr.sol\":526:530  marr */\n      dup3\n        /* \"solidity/MergeSortArr.sol\":519:525  merge1 */\n      tag_48\n        /* \"solidity/MergeSortArr.sol\":519:531  merge1(marr) */\n      jump\t// in\n    tag_47:\n        /* \"solidity/MergeSortArr.sol\":512:531  return merge1(marr) */\n      swap4\n      pop\n      pop\n      pop\n      pop\n        /* \"solidity/MergeSortArr.sol\":87:539  function merge(uint[] memory arr1, uint[] memory arr2) public returns ( uint[] memory) {... */\n      swap3\n      swap2\n      pop\n      pop\n      jump\t// out\n        /* \"solidity/MergeSortArr.sol\":1201:1967  function doMerge(uint[] memory arr1, uint[] memory arr2) public pure returns ( uint[] memory) {... */\n    tag_14:\n        /* \"solidity/MergeSortArr.sol\":1280:1293  uint[] memory */\n      0x60\n        /* \"solidity/MergeSortArr.sol\":1305:1313  uint len */\n      0x00\n        /* \"solidity/MergeSortArr.sol\":1330:1334  arr2 */\n      dup3\n        /* \"solidity/MergeSortArr.sol\":1330:1341  arr2.length */\n      mload\n        /* \"solidity/MergeSortArr.sol\":1316:1320  arr1 */\n      dup5\n        /* \"solidity/MergeSortArr.sol\":1316:1327  arr1.length */\n      mload\n        /* \"solidity/MergeSortArr.sol\":1316:1341  arr1.length + arr2.length */\n      tag_50\n      swap2\n      swap1\n      tag_24\n      jump\t// in\n    tag_50:\n        /* \"solidity/MergeSortArr.sol\":1305:1341  uint len = arr1.length + arr2.length */\n      swap1\n      pop\n        /* \"solidity/MergeSortArr.sol\":1351:1372  uint [] memory result */\n      0x00\n        /* \"solidity/MergeSortArr.sol\":1386:1389  len */\n      dup2\n        /* \"solidity/MergeSortArr.sol\":1375:1390  new uint[](len) */\n      0xffffffffffffffff\n      dup2\n      gt\n      iszero\n      tag_51\n      jumpi\n      tag_52\n      tag_27\n      jump\t// in\n    tag_52:\n    tag_51:\n      mload(0x40)\n      swap1\n      dup1\n      dup3\n      mstore\n      dup1\n      0x20\n      mul\n      0x20\n      add\n      dup3\n      add\n      0x40\n      mstore\n      dup1\n      iszero\n      tag_53\n      jumpi\n      dup2\n      0x20\n      add\n      0x20\n      dup3\n      mul\n      dup1\n      calldatasize\n      dup4\n      calldatacopy\n      dup1\n      dup3\n      add\n      swap2\n      pop\n      pop\n      swap1\n      pop\n    tag_53:\n      pop\n        /* \"solidity/MergeSortArr.sol\":1351:1390  uint [] memory result = new uint[](len) */\n      swap1\n      pop\n        /* \"solidity/MergeSortArr.sol\":1400:1406  uint i */\n      0x00\n        /* \"solidity/MergeSortArr.sol\":1409:1410  0 */\n      0x00\n        /* \"solidity/MergeSortArr.sol\":1400:1410  uint i = 0 */\n      swap1\n      pop\n        /* \"solidity/MergeSortArr.sol\":1420:1426  uint j */\n      0x00\n        /* \"solidity/MergeSortArr.sol\":1429:1430  0 */\n      0x00\n        /* \"solidity/MergeSortArr.sol\":1420:1430  uint j = 0 */\n      swap1\n      pop\n        /* \"solidity/MergeSortArr.sol\":1440:1446  uint k */\n      0x00\n        /* \"solidity/MergeSortArr.sol\":1449:1450  0 */\n      0x00\n        /* \"solidity/MergeSortArr.sol\":1440:1450  uint k = 0 */\n      swap1\n      pop\n        /* \"solidity/MergeSortArr.sol\":1460:1718  while(i < arr1.length && j < arr2.length ){... */\n    tag_54:\n        /* \"solidity/MergeSortArr.sol\":1470:1474  arr1 */\n      dup8\n        /* \"solidity/MergeSortArr.sol\":1470:1481  arr1.length */\n      mload\n        /* \"solidity/MergeSortArr.sol\":1466:1467  i */\n      dup4\n        /* \"solidity/MergeSortArr.sol\":1466:1481  i < arr1.length */\n      lt\n        /* \"solidity/MergeSortArr.sol\":1466:1500  i < arr1.length && j < arr2.length */\n      dup1\n      iszero\n      tag_56\n      jumpi\n      pop\n        /* \"solidity/MergeSortArr.sol\":1489:1493  arr2 */\n      dup7\n        /* \"solidity/MergeSortArr.sol\":1489:1500  arr2.length */\n      mload\n        /* \"solidity/MergeSortArr.sol\":1485:1486  j */\n      dup3\n        /* \"solidity/MergeSortArr.sol\":1485:1500  j < arr2.length */\n      lt\n        /* \"solidity/MergeSortArr.sol\":1466:1500  i < arr1.length && j < arr2.length */\n    tag_56:\n        /* \"solidity/MergeSortArr.sol\":1460:1718  while(i < arr1.length && j < arr2.length ){... */\n      iszero\n      tag_55\n      jumpi\n        /* \"solidity/MergeSortArr.sol\":1530:1534  arr2 */\n      dup7\n        /* \"solidity/MergeSortArr.sol\":1535:1536  j */\n      dup3\n        /* \"solidity/MergeSortArr.sol\":1530:1537  arr2[j] */\n      dup2\n      mload\n      dup2\n      lt\n      tag_57\n      jumpi\n      tag_58\n      tag_34\n      jump\t// in\n    tag_58:\n    tag_57:\n      0x20\n      mul\n      0x20\n      add\n      add\n      mload\n        /* \"solidity/MergeSortArr.sol\":1520:1524  arr1 */\n      dup9\n        /* \"solidity/MergeSortArr.sol\":1525:1526  i */\n      dup5\n        /* \"solidity/MergeSortArr.sol\":1520:1527  arr1[i] */\n      dup2\n      mload\n      dup2\n      lt\n      tag_59\n      jumpi\n      tag_60\n      tag_34\n      jump\t// in\n    tag_60:\n    tag_59:\n      0x20\n      mul\n      0x20\n      add\n      add\n      mload\n        /* \"solidity/MergeSortArr.sol\":1520:1537  arr1[i] < arr2[j] */\n      lt\n        /* \"solidity/MergeSortArr.sol\":1516:1691  if (arr1[i] < arr2[j]) {... */\n      iszero\n      tag_61\n      jumpi\n        /* \"solidity/MergeSortArr.sol\":1569:1573  arr1 */\n      dup8\n        /* \"solidity/MergeSortArr.sol\":1574:1575  i */\n      dup4\n        /* \"solidity/MergeSortArr.sol\":1569:1576  arr1[i] */\n      dup2\n      mload\n      dup2\n      lt\n      tag_62\n      jumpi\n      tag_63\n      tag_34\n      jump\t// in\n    tag_63:\n    tag_62:\n      0x20\n      mul\n      0x20\n      add\n      add\n      mload\n        /* \"solidity/MergeSortArr.sol\":1557:1563  result */\n      dup5\n        /* \"solidity/MergeSortArr.sol\":1564:1565  k */\n      dup3\n        /* \"solidity/MergeSortArr.sol\":1557:1566  result[k] */\n      dup2\n      mload\n      dup2\n      lt\n      tag_64\n      jumpi\n      tag_65\n      tag_34\n      jump\t// in\n    tag_65:\n    tag_64:\n      0x20\n      mul\n      0x20\n      add\n      add\n        /* \"solidity/MergeSortArr.sol\":1557:1576  result[k] = arr1[i] */\n      dup2\n      dup2\n      mstore\n      pop\n      pop\n        /* \"solidity/MergeSortArr.sol\":1594:1597  i++ */\n      dup3\n      dup1\n      tag_66\n      swap1\n      tag_38\n      jump\t// in\n    tag_66:\n      swap4\n      pop\n      pop\n        /* \"solidity/MergeSortArr.sol\":1516:1691  if (arr1[i] < arr2[j]) {... */\n      jump(tag_67)\n    tag_61:\n        /* \"solidity/MergeSortArr.sol\":1648:1652  arr2 */\n      dup7\n        /* \"solidity/MergeSortArr.sol\":1653:1654  j */\n      dup3\n        /* \"solidity/MergeSortArr.sol\":1648:1655  arr2[j] */\n      dup2\n      mload\n      dup2\n      lt\n      tag_68\n      jumpi\n      tag_69\n      tag_34\n      jump\t// in\n    tag_69:\n    tag_68:\n      0x20\n      mul\n      0x20\n      add\n      add\n      mload\n        /* \"solidity/MergeSortArr.sol\":1636:1642  result */\n      dup5\n        /* \"solidity/MergeSortArr.sol\":1643:1644  k */\n      dup3\n        /* \"solidity/MergeSortArr.sol\":1636:1645  result[k] */\n      dup2\n      mload\n      dup2\n      lt\n      tag_70\n      jumpi\n      tag_71\n      tag_34\n      jump\t// in\n    tag_71:\n    tag_70:\n      0x20\n      mul\n      0x20\n      add\n      add\n        /* \"solidity/MergeSortArr.sol\":1636:1655  result[k] = arr2[j] */\n      dup2\n      dup2\n      mstore\n      pop\n      pop\n        /* \"solidity/MergeSortArr.sol\":1673:1676  j++ */\n      dup2\n      dup1\n      tag_72\n      swap1\n      tag_38\n      jump\t// in\n    tag_72:\n      swap3\n      pop\n      pop\n        /* \"solidity/MergeSortArr.sol\":1516:1691  if (arr1[i] < arr2[j]) {... */\n    tag_67:\n        /* \"solidity/MergeSortArr.sol\":1704:1707  k++ */\n      dup1\n      dup1\n      tag_73\n      swap1\n      tag_38\n      jump\t// in\n    tag_73:\n      swap2\n      pop\n      pop\n        /* \"solidity/MergeSortArr.sol\":1460:1718  while(i < arr1.length && j < arr2.length ){... */\n      jump(tag_54)\n    tag_55:\n        /* \"solidity/MergeSortArr.sol\":1727:1828  while(i < arr1.length) {... */\n    tag_74:\n        /* \"solidity/MergeSortArr.sol\":1737:1741  arr1 */\n      dup8\n        /* \"solidity/MergeSortArr.sol\":1737:1748  arr1.length */\n      mload\n        /* \"solidity/MergeSortArr.sol\":1733:1734  i */\n      dup4\n        /* \"solidity/MergeSortArr.sol\":1733:1748  i < arr1.length */\n      lt\n        /* \"solidity/MergeSortArr.sol\":1727:1828  while(i < arr1.length) {... */\n      iszero\n      tag_75\n      jumpi\n        /* \"solidity/MergeSortArr.sol\":1776:1780  arr1 */\n      dup8\n        /* \"solidity/MergeSortArr.sol\":1781:1782  i */\n      dup4\n        /* \"solidity/MergeSortArr.sol\":1776:1783  arr1[i] */\n      dup2\n      mload\n      dup2\n      lt\n      tag_76\n      jumpi\n      tag_77\n      tag_34\n      jump\t// in\n    tag_77:\n    tag_76:\n      0x20\n      mul\n      0x20\n      add\n      add\n      mload\n        /* \"solidity/MergeSortArr.sol\":1764:1770  result */\n      dup5\n        /* \"solidity/MergeSortArr.sol\":1771:1772  k */\n      dup3\n        /* \"solidity/MergeSortArr.sol\":1764:1773  result[k] */\n      dup2\n      mload\n      dup2\n      lt\n      tag_78\n      jumpi\n      tag_79\n      tag_34\n      jump\t// in\n    tag_79:\n    tag_78:\n      0x20\n      mul\n      0x20\n      add\n      add\n        /* \"solidity/MergeSortArr.sol\":1764:1783  result[k] = arr1[i] */\n      dup2\n      dup2\n      mstore\n      pop\n      pop\n        /* \"solidity/MergeSortArr.sol\":1797:1800  i++ */\n      dup3\n      dup1\n      tag_80\n      swap1\n      tag_38\n      jump\t// in\n    tag_80:\n      swap4\n      pop\n      pop\n        /* \"solidity/MergeSortArr.sol\":1814:1817  k++ */\n      dup1\n      dup1\n      tag_81\n      swap1\n      tag_38\n      jump\t// in\n    tag_81:\n      swap2\n      pop\n      pop\n        /* \"solidity/MergeSortArr.sol\":1727:1828  while(i < arr1.length) {... */\n      jump(tag_74)\n    tag_75:\n        /* \"solidity/MergeSortArr.sol\":1837:1938  while(j < arr2.length) {... */\n    tag_82:\n        /* \"solidity/MergeSortArr.sol\":1847:1851  arr2 */\n      dup7\n        /* \"solidity/MergeSortArr.sol\":1847:1858  arr2.length */\n      mload\n        /* \"solidity/MergeSortArr.sol\":1843:1844  j */\n      dup3\n        /* \"solidity/MergeSortArr.sol\":1843:1858  j < arr2.length */\n      lt\n        /* \"solidity/MergeSortArr.sol\":1837:1938  while(j < arr2.length) {... */\n      iszero\n      tag_83\n      jumpi\n        /* \"solidity/MergeSortArr.sol\":1886:1890  arr2 */\n      dup7\n        /* \"solidity/MergeSortArr.sol\":1891:1892  j */\n      dup3\n        /* \"solidity/MergeSortArr.sol\":1886:1893  arr2[j] */\n      dup2\n      mload\n      dup2\n      lt\n      tag_84\n      jumpi\n      tag_85\n      tag_34\n      jump\t// in\n    tag_85:\n    tag_84:\n      0x20\n      mul\n      0x20\n      add\n      add\n      mload\n        /* \"solidity/MergeSortArr.sol\":1874:1880  result */\n      dup5\n        /* \"solidity/MergeSortArr.sol\":1881:1882  k */\n      dup3\n        /* \"solidity/MergeSortArr.sol\":1874:1883  result[k] */\n      dup2\n      mload\n      dup2\n      lt\n      tag_86\n      jumpi\n      tag_87\n      tag_34\n      jump\t// in\n    tag_87:\n    tag_86:\n      0x20\n      mul\n      0x20\n      add\n      add\n        /* \"solidity/MergeSortArr.sol\":1874:1893  result[k] = arr2[j] */\n      dup2\n      dup2\n      mstore\n      pop\n      pop\n        /* \"solidity/MergeSortArr.sol\":1907:1910  j++ */\n      dup2\n      dup1\n      tag_88\n      swap1\n      tag_38\n      jump\t// in\n    tag_88:\n      swap3\n      pop\n      pop\n        /* \"solidity/MergeSortArr.sol\":1924:1927  k++ */\n      dup1\n      dup1\n      tag_89\n      swap1\n      tag_38\n      jump\t// in\n    tag_89:\n      swap2\n      pop\n      pop\n        /* \"solidity/MergeSortArr.sol\":1837:1938  while(j < arr2.length) {... */\n      jump(tag_82)\n    tag_83:\n        /* \"solidity/MergeSortArr.sol\":1954:1960  result */\n      dup4\n        /* \"solidity/MergeSortArr.sol\":1947:1960  return result */\n      swap6\n      pop\n      pop\n      pop\n      pop\n      pop\n      pop\n        /* \"solidity/MergeSortArr.sol\":1201:1967  function doMerge(uint[] memory arr1, uint[] memory arr2) public pure returns ( uint[] memory) {... */\n      swap3\n      swap2\n      pop\n      pop\n      jump\t// out\n        /* \"solidity/MergeSortArr.sol\":545:626  function compute(uint x) public pure returns (uint) {... */\n    tag_19:\n        /* \"solidity/MergeSortArr.sol\":591:595  uint */\n      0x00\n        /* \"solidity/MergeSortArr.sol\":618:619  2 */\n      0x02\n        /* \"solidity/MergeSortArr.sol\":614:615  x */\n      dup3\n        /* \"solidity/MergeSortArr.sol\":614:619  x / 2 */\n      tag_91\n      swap2\n      swap1\n      tag_92\n      jump\t// in\n    tag_91:\n        /* \"solidity/MergeSortArr.sol\":607:619  return x / 2 */\n      swap1\n      pop\n        /* \"solidity/MergeSortArr.sol\":545:626  function compute(uint x) public pure returns (uint) {... */\n      swap2\n      swap1\n      pop\n      jump\t// out\n        /* \"solidity/MergeSortArr.sol\":632:1195  function merge1(uint[] memory arr) private returns (uint[]memory) {... */\n    tag_48:\n        /* \"solidity/MergeSortArr.sol\":684:696  uint[]memory */\n      0x60\n        /* \"solidity/MergeSortArr.sol\":708:714  uint l */\n      0x00\n        /* \"solidity/MergeSortArr.sol\":730:731  2 */\n      0x02\n        /* \"solidity/MergeSortArr.sol\":717:720  arr */\n      dup4\n        /* \"solidity/MergeSortArr.sol\":717:727  arr.length */\n      mload\n        /* \"solidity/MergeSortArr.sol\":717:731  arr.length / 2 */\n      tag_94\n      swap2\n      swap1\n      tag_92\n      jump\t// in\n    tag_94:\n        /* \"solidity/MergeSortArr.sol\":708:731  uint l = arr.length / 2 */\n      swap1\n      pop\n        /* \"solidity/MergeSortArr.sol\":748:749  1 */\n      0x01\n        /* \"solidity/MergeSortArr.sol\":744:745  l */\n      dup2\n        /* \"solidity/MergeSortArr.sol\":744:749  l < 1 */\n      lt\n        /* \"solidity/MergeSortArr.sol\":741:785  if(l < 1){... */\n      iszero\n      tag_95\n      jumpi\n        /* \"solidity/MergeSortArr.sol\":771:774  arr */\n      dup3\n        /* \"solidity/MergeSortArr.sol\":764:774  return arr */\n      swap2\n      pop\n      pop\n      jump(tag_93)\n        /* \"solidity/MergeSortArr.sol\":741:785  if(l < 1){... */\n    tag_95:\n        /* \"solidity/MergeSortArr.sol\":794:812  uint[] memory left */\n      0x00\n        /* \"solidity/MergeSortArr.sol\":826:827  l */\n      dup2\n        /* \"solidity/MergeSortArr.sol\":815:828  new uint[](l) */\n      0xffffffffffffffff\n      dup2\n      gt\n      iszero\n      tag_96\n      jumpi\n      tag_97\n      tag_27\n      jump\t// in\n    tag_97:\n    tag_96:\n      mload(0x40)\n      swap1\n      dup1\n      dup3\n      mstore\n      dup1\n      0x20\n      mul\n      0x20\n      add\n      dup3\n      add\n      0x40\n      mstore\n      dup1\n      iszero\n      tag_98\n      jumpi\n      dup2\n      0x20\n      add\n      0x20\n      dup3\n      mul\n      dup1\n      calldatasize\n      dup4\n      calldatacopy\n      dup1\n      dup3\n      add\n      swap2\n      pop\n      pop\n      swap1\n      pop\n    tag_98:\n      pop\n        /* \"solidity/MergeSortArr.sol\":794:828  uint[] memory left = new uint[](l) */\n      swap1\n      pop\n        /* \"solidity/MergeSortArr.sol\":838:857  uint[] memory right */\n      0x00\n        /* \"solidity/MergeSortArr.sol\":882:883  l */\n      dup3\n        /* \"solidity/MergeSortArr.sol\":871:874  arr */\n      dup6\n        /* \"solidity/MergeSortArr.sol\":871:881  arr.length */\n      mload\n        /* \"solidity/MergeSortArr.sol\":871:883  arr.length-l */\n      tag_99\n      swap2\n      swap1\n      tag_100\n      jump\t// in\n    tag_99:\n        /* \"solidity/MergeSortArr.sol\":860:884  new uint[](arr.length-l) */\n      0xffffffffffffffff\n      dup2\n      gt\n      iszero\n      tag_101\n      jumpi\n      tag_102\n      tag_27\n      jump\t// in\n    tag_102:\n    tag_101:\n      mload(0x40)\n      swap1\n      dup1\n      dup3\n      mstore\n      dup1\n      0x20\n      mul\n      0x20\n      add\n      dup3\n      add\n      0x40\n      mstore\n      dup1\n      iszero\n      tag_103\n      jumpi\n      dup2\n      0x20\n      add\n      0x20\n      dup3\n      mul\n      dup1\n      calldatasize\n      dup4\n      calldatacopy\n      dup1\n      dup3\n      add\n      swap2\n      pop\n      pop\n      swap1\n      pop\n    tag_103:\n      pop\n        /* \"solidity/MergeSortArr.sol\":838:884  uint[] memory right = new uint[](arr.length-l) */\n      swap1\n      pop\n        /* \"solidity/MergeSortArr.sol\":898:904  uint i */\n      0x00\n        /* \"solidity/MergeSortArr.sol\":907:908  0 */\n      0x00\n        /* \"solidity/MergeSortArr.sol\":898:908  uint i = 0 */\n      swap1\n      pop\n        /* \"solidity/MergeSortArr.sol\":894:1071  for(uint i = 0; i < arr.length; i++) {... */\n    tag_104:\n        /* \"solidity/MergeSortArr.sol\":914:917  arr */\n      dup6\n        /* \"solidity/MergeSortArr.sol\":914:924  arr.length */\n      mload\n        /* \"solidity/MergeSortArr.sol\":910:911  i */\n      dup2\n        /* \"solidity/MergeSortArr.sol\":910:924  i < arr.length */\n      lt\n        /* \"solidity/MergeSortArr.sol\":894:1071  for(uint i = 0; i < arr.length; i++) {... */\n      iszero\n      tag_105\n      jumpi\n        /* \"solidity/MergeSortArr.sol\":952:953  l */\n      dup4\n        /* \"solidity/MergeSortArr.sol\":948:949  i */\n      dup2\n        /* \"solidity/MergeSortArr.sol\":948:953  i < l */\n      lt\n        /* \"solidity/MergeSortArr.sol\":945:1061  if(i < l) {... */\n      iszero\n      tag_107\n      jumpi\n        /* \"solidity/MergeSortArr.sol\":983:986  arr */\n      dup6\n        /* \"solidity/MergeSortArr.sol\":987:988  i */\n      dup2\n        /* \"solidity/MergeSortArr.sol\":983:989  arr[i] */\n      dup2\n      mload\n      dup2\n      lt\n      tag_108\n      jumpi\n      tag_109\n      tag_34\n      jump\t// in\n    tag_109:\n    tag_108:\n      0x20\n      mul\n      0x20\n      add\n      add\n      mload\n        /* \"solidity/MergeSortArr.sol\":973:977  left */\n      dup4\n        /* \"solidity/MergeSortArr.sol\":978:979  i */\n      dup3\n        /* \"solidity/MergeSortArr.sol\":973:980  left[i] */\n      dup2\n      mload\n      dup2\n      lt\n      tag_110\n      jumpi\n      tag_111\n      tag_34\n      jump\t// in\n    tag_111:\n    tag_110:\n      0x20\n      mul\n      0x20\n      add\n      add\n        /* \"solidity/MergeSortArr.sol\":973:989  left[i] = arr[i] */\n      dup2\n      dup2\n      mstore\n      pop\n      pop\n        /* \"solidity/MergeSortArr.sol\":945:1061  if(i < l) {... */\n      jump(tag_112)\n    tag_107:\n        /* \"solidity/MergeSortArr.sol\":1040:1043  arr */\n      dup6\n        /* \"solidity/MergeSortArr.sol\":1044:1045  i */\n      dup2\n        /* \"solidity/MergeSortArr.sol\":1040:1046  arr[i] */\n      dup2\n      mload\n      dup2\n      lt\n      tag_113\n      jumpi\n      tag_114\n      tag_34\n      jump\t// in\n    tag_114:\n    tag_113:\n      0x20\n      mul\n      0x20\n      add\n      add\n      mload\n        /* \"solidity/MergeSortArr.sol\":1027:1032  right */\n      dup3\n        /* \"solidity/MergeSortArr.sol\":1035:1036  l */\n      dup6\n        /* \"solidity/MergeSortArr.sol\":1033:1034  i */\n      dup4\n        /* \"solidity/MergeSortArr.sol\":1033:1036  i-l */\n      tag_115\n      swap2\n      swap1\n      tag_100\n      jump\t// in\n    tag_115:\n        /* \"solidity/MergeSortArr.sol\":1027:1037  right[i-l] */\n      dup2\n      mload\n      dup2\n      lt\n      tag_116\n      jumpi\n      tag_117\n      tag_34\n      jump\t// in\n    tag_117:\n    tag_116:\n      0x20\n      mul\n      0x20\n      add\n      add\n        /* \"solidity/MergeSortArr.sol\":1027:1046  right[i-l] = arr[i] */\n      dup2\n      dup2\n      mstore\n      pop\n      pop\n        /* \"solidity/MergeSortArr.sol\":945:1061  if(i < l) {... */\n    tag_112:\n        /* \"solidity/MergeSortArr.sol\":926:929  i++ */\n      dup1\n      dup1\n      0x01\n      add\n      swap2\n      pop\n      pop\n        /* \"solidity/MergeSortArr.sol\":894:1071  for(uint i = 0; i < arr.length; i++) {... */\n      jump(tag_104)\n    tag_105:\n      pop\n        /* \"solidity/MergeSortArr.sol\":1080:1097  uint [] memory lr */\n      0x00\n        /* \"solidity/MergeSortArr.sol\":1100:1112  merge1(left) */\n      tag_118\n        /* \"solidity/MergeSortArr.sol\":1107:1111  left */\n      dup4\n        /* \"solidity/MergeSortArr.sol\":1100:1106  merge1 */\n      tag_48\n        /* \"solidity/MergeSortArr.sol\":1100:1112  merge1(left) */\n      jump\t// in\n    tag_118:\n        /* \"solidity/MergeSortArr.sol\":1080:1112  uint [] memory lr = merge1(left) */\n      swap1\n      pop\n        /* \"solidity/MergeSortArr.sol\":1122:1139  uint [] memory rr */\n      0x00\n        /* \"solidity/MergeSortArr.sol\":1142:1155  merge1(right) */\n      tag_119\n        /* \"solidity/MergeSortArr.sol\":1149:1154  right */\n      dup4\n        /* \"solidity/MergeSortArr.sol\":1142:1148  merge1 */\n      tag_48\n        /* \"solidity/MergeSortArr.sol\":1142:1155  merge1(right) */\n      jump\t// in\n    tag_119:\n        /* \"solidity/MergeSortArr.sol\":1122:1155  uint [] memory rr = merge1(right) */\n      swap1\n      pop\n        /* \"solidity/MergeSortArr.sol\":1173:1188  doMerge(lr, rr) */\n      tag_120\n        /* \"solidity/MergeSortArr.sol\":1181:1183  lr */\n      dup3\n        /* \"solidity/MergeSortArr.sol\":1185:1187  rr */\n      dup3\n        /* \"solidity/MergeSortArr.sol\":1173:1180  doMerge */\n      tag_14\n        /* \"solidity/MergeSortArr.sol\":1173:1188  doMerge(lr, rr) */\n      jump\t// in\n    tag_120:\n        /* \"solidity/MergeSortArr.sol\":1166:1188  return doMerge(lr, rr) */\n      swap6\n      pop\n      pop\n      pop\n      pop\n      pop\n      pop\n        /* \"solidity/MergeSortArr.sol\":632:1195  function merge1(uint[] memory arr) private returns (uint[]memory) {... */\n    tag_93:\n      swap2\n      swap1\n      pop\n      jump\t// out\n        /* \"#utility.yul\":7:82   */\n    tag_121:\n        /* \"#utility.yul\":40:46   */\n      0x00\n        /* \"#utility.yul\":73:75   */\n      0x40\n        /* \"#utility.yul\":67:76   */\n      mload\n        /* \"#utility.yul\":57:76   */\n      swap1\n      pop\n        /* \"#utility.yul\":7:82   */\n      swap1\n      jump\t// out\n        /* \"#utility.yul\":88:205   */\n    tag_122:\n        /* \"#utility.yul\":197:198   */\n      0x00\n        /* \"#utility.yul\":194:195   */\n      0x00\n        /* \"#utility.yul\":187:199   */\n      revert\n        /* \"#utility.yul\":211:328   */\n    tag_123:\n        /* \"#utility.yul\":320:321   */\n      0x00\n        /* \"#utility.yul\":317:318   */\n      0x00\n        /* \"#utility.yul\":310:322   */\n      revert\n        /* \"#utility.yul\":334:451   */\n    tag_124:\n        /* \"#utility.yul\":443:444   */\n      0x00\n        /* \"#utility.yul\":440:441   */\n      0x00\n        /* \"#utility.yul\":433:445   */\n      revert\n        /* \"#utility.yul\":457:559   */\n    tag_125:\n        /* \"#utility.yul\":498:504   */\n      0x00\n        /* \"#utility.yul\":549:551   */\n      0x1f\n        /* \"#utility.yul\":545:552   */\n      not\n        /* \"#utility.yul\":540:542   */\n      0x1f\n        /* \"#utility.yul\":533:538   */\n      dup4\n        /* \"#utility.yul\":529:543   */\n      add\n        /* \"#utility.yul\":525:553   */\n      and\n        /* \"#utility.yul\":515:553   */\n      swap1\n      pop\n        /* \"#utility.yul\":457:559   */\n      swap2\n      swap1\n      pop\n      jump\t// out\n        /* \"#utility.yul\":565:745   */\n    tag_27:\n        /* \"#utility.yul\":613:690   */\n      0x4e487b7100000000000000000000000000000000000000000000000000000000\n        /* \"#utility.yul\":610:611   */\n      0x00\n        /* \"#utility.yul\":603:691   */\n      mstore\n        /* \"#utility.yul\":710:714   */\n      0x41\n        /* \"#utility.yul\":707:708   */\n      0x04\n        /* \"#utility.yul\":700:715   */\n      mstore\n        /* \"#utility.yul\":734:738   */\n      0x24\n        /* \"#utility.yul\":731:732   */\n      0x00\n        /* \"#utility.yul\":724:739   */\n      revert\n        /* \"#utility.yul\":751:1032   */\n    tag_126:\n        /* \"#utility.yul\":834:861   */\n      tag_153\n        /* \"#utility.yul\":856:860   */\n      dup3\n        /* \"#utility.yul\":834:861   */\n      tag_125\n      jump\t// in\n    tag_153:\n        /* \"#utility.yul\":826:832   */\n      dup2\n        /* \"#utility.yul\":822:862   */\n      add\n        /* \"#utility.yul\":964:970   */\n      dup2\n        /* \"#utility.yul\":952:962   */\n      dup2\n        /* \"#utility.yul\":949:971   */\n      lt\n        /* \"#utility.yul\":928:946   */\n      0xffffffffffffffff\n        /* \"#utility.yul\":916:926   */\n      dup3\n        /* \"#utility.yul\":913:947   */\n      gt\n        /* \"#utility.yul\":910:972   */\n      or\n        /* \"#utility.yul\":907:995   */\n      iszero\n      tag_154\n      jumpi\n        /* \"#utility.yul\":975:993   */\n      tag_155\n      tag_27\n      jump\t// in\n    tag_155:\n        /* \"#utility.yul\":907:995   */\n    tag_154:\n        /* \"#utility.yul\":1015:1025   */\n      dup1\n        /* \"#utility.yul\":1011:1013   */\n      0x40\n        /* \"#utility.yul\":1004:1026   */\n      mstore\n        /* \"#utility.yul\":794:1032   */\n      pop\n        /* \"#utility.yul\":751:1032   */\n      pop\n      pop\n      jump\t// out\n        /* \"#utility.yul\":1038:1167   */\n    tag_127:\n        /* \"#utility.yul\":1072:1078   */\n      0x00\n        /* \"#utility.yul\":1099:1119   */\n      tag_157\n      tag_121\n      jump\t// in\n    tag_157:\n        /* \"#utility.yul\":1089:1119   */\n      swap1\n      pop\n        /* \"#utility.yul\":1128:1161   */\n      tag_158\n        /* \"#utility.yul\":1156:1160   */\n      dup3\n        /* \"#utility.yul\":1148:1154   */\n      dup3\n        /* \"#utility.yul\":1128:1161   */\n      tag_126\n      jump\t// in\n    tag_158:\n        /* \"#utility.yul\":1038:1167   */\n      swap2\n      swap1\n      pop\n      jump\t// out\n        /* \"#utility.yul\":1173:1484   */\n    tag_128:\n        /* \"#utility.yul\":1250:1254   */\n      0x00\n        /* \"#utility.yul\":1340:1358   */\n      0xffffffffffffffff\n        /* \"#utility.yul\":1332:1338   */\n      dup3\n        /* \"#utility.yul\":1329:1359   */\n      gt\n        /* \"#utility.yul\":1326:1382   */\n      iszero\n      tag_160\n      jumpi\n        /* \"#utility.yul\":1362:1380   */\n      tag_161\n      tag_27\n      jump\t// in\n    tag_161:\n        /* \"#utility.yul\":1326:1382   */\n    tag_160:\n        /* \"#utility.yul\":1412:1416   */\n      0x20\n        /* \"#utility.yul\":1404:1410   */\n      dup3\n        /* \"#utility.yul\":1400:1417   */\n      mul\n        /* \"#utility.yul\":1392:1417   */\n      swap1\n      pop\n        /* \"#utility.yul\":1472:1476   */\n      0x20\n        /* \"#utility.yul\":1466:1470   */\n      dup2\n        /* \"#utility.yul\":1462:1477   */\n      add\n        /* \"#utility.yul\":1454:1477   */\n      swap1\n      pop\n        /* \"#utility.yul\":1173:1484   */\n      swap2\n      swap1\n      pop\n      jump\t// out\n        /* \"#utility.yul\":1490:1607   */\n    tag_129:\n        /* \"#utility.yul\":1599:1600   */\n      0x00\n        /* \"#utility.yul\":1596:1597   */\n      0x00\n        /* \"#utility.yul\":1589:1601   */\n      revert\n        /* \"#utility.yul\":1613:1690   */\n    tag_130:\n        /* \"#utility.yul\":1650:1657   */\n      0x00\n        /* \"#utility.yul\":1679:1684   */\n      dup2\n        /* \"#utility.yul\":1668:1684   */\n      swap1\n      pop\n        /* \"#utility.yul\":1613:1690   */\n      swap2\n      swap1\n      pop\n      jump\t// out\n        /* \"#utility.yul\":1696:1818   */\n    tag_131:\n        /* \"#utility.yul\":1769:1793   */\n      tag_165\n        /* \"#utility.yul\":1787:1792   */\n      dup2\n        /* \"#utility.yul\":1769:1793   */\n      tag_130\n      jump\t// in\n    tag_165:\n        /* \"#utility.yul\":1762:1767   */\n      dup2\n        /* \"#utility.yul\":1759:1794   */\n      eq\n        /* \"#utility.yul\":1749:1812   */\n      tag_166\n      jumpi\n        /* \"#utility.yul\":1808:1809   */\n      0x00\n        /* \"#utility.yul\":1805:1806   */\n      0x00\n        /* \"#utility.yul\":1798:1810   */\n      revert\n        /* \"#utility.yul\":1749:1812   */\n    tag_166:\n        /* \"#utility.yul\":1696:1818   */\n      pop\n      jump\t// out\n        /* \"#utility.yul\":1824:1963   */\n    tag_132:\n        /* \"#utility.yul\":1870:1875   */\n      0x00\n        /* \"#utility.yul\":1908:1914   */\n      dup2\n        /* \"#utility.yul\":1895:1915   */\n      calldataload\n        /* \"#utility.yul\":1886:1915   */\n      swap1\n      pop\n        /* \"#utility.yul\":1924:1957   */\n      tag_168\n        /* \"#utility.yul\":1951:1956   */\n      dup2\n        /* \"#utility.yul\":1924:1957   */\n      tag_131\n      jump\t// in\n    tag_168:\n        /* \"#utility.yul\":1824:1963   */\n      swap3\n      swap2\n      pop\n      pop\n      jump\t// out\n        /* \"#utility.yul\":1986:2696   */\n    tag_133:\n        /* \"#utility.yul\":2082:2087   */\n      0x00\n        /* \"#utility.yul\":2107:2188   */\n      tag_170\n        /* \"#utility.yul\":2123:2187   */\n      tag_171\n        /* \"#utility.yul\":2180:2186   */\n      dup5\n        /* \"#utility.yul\":2123:2187   */\n      tag_128\n      jump\t// in\n    tag_171:\n        /* \"#utility.yul\":2107:2188   */\n      tag_127\n      jump\t// in\n    tag_170:\n        /* \"#utility.yul\":2098:2188   */\n      swap1\n      pop\n        /* \"#utility.yul\":2208:2213   */\n      dup1\n        /* \"#utility.yul\":2237:2243   */\n      dup4\n        /* \"#utility.yul\":2230:2235   */\n      dup3\n        /* \"#utility.yul\":2223:2244   */\n      mstore\n        /* \"#utility.yul\":2271:2275   */\n      0x20\n        /* \"#utility.yul\":2264:2269   */\n      dup3\n        /* \"#utility.yul\":2260:2276   */\n      add\n        /* \"#utility.yul\":2253:2276   */\n      swap1\n      pop\n        /* \"#utility.yul\":2324:2328   */\n      0x20\n        /* \"#utility.yul\":2316:2322   */\n      dup5\n        /* \"#utility.yul\":2312:2329   */\n      mul\n        /* \"#utility.yul\":2304:2310   */\n      dup4\n        /* \"#utility.yul\":2300:2330   */\n      add\n        /* \"#utility.yul\":2353:2356   */\n      dup6\n        /* \"#utility.yul\":2345:2351   */\n      dup2\n        /* \"#utility.yul\":2342:2357   */\n      gt\n        /* \"#utility.yul\":2339:2461   */\n      iszero\n      tag_172\n      jumpi\n        /* \"#utility.yul\":2372:2451   */\n      tag_173\n      tag_129\n      jump\t// in\n    tag_173:\n        /* \"#utility.yul\":2339:2461   */\n    tag_172:\n        /* \"#utility.yul\":2487:2493   */\n      dup4\n        /* \"#utility.yul\":2470:2690   */\n    tag_174:\n        /* \"#utility.yul\":2504:2510   */\n      dup2\n        /* \"#utility.yul\":2499:2502   */\n      dup2\n        /* \"#utility.yul\":2496:2511   */\n      lt\n        /* \"#utility.yul\":2470:2690   */\n      iszero\n      tag_176\n      jumpi\n        /* \"#utility.yul\":2579:2582   */\n      dup1\n        /* \"#utility.yul\":2608:2645   */\n      tag_177\n        /* \"#utility.yul\":2641:2644   */\n      dup9\n        /* \"#utility.yul\":2629:2639   */\n      dup3\n        /* \"#utility.yul\":2608:2645   */\n      tag_132\n      jump\t// in\n    tag_177:\n        /* \"#utility.yul\":2603:2606   */\n      dup5\n        /* \"#utility.yul\":2596:2646   */\n      mstore\n        /* \"#utility.yul\":2675:2679   */\n      0x20\n        /* \"#utility.yul\":2670:2673   */\n      dup5\n        /* \"#utility.yul\":2666:2680   */\n      add\n        /* \"#utility.yul\":2659:2680   */\n      swap4\n      pop\n        /* \"#utility.yul\":2546:2690   */\n      pop\n        /* \"#utility.yul\":2530:2534   */\n      0x20\n        /* \"#utility.yul\":2525:2528   */\n      dup2\n        /* \"#utility.yul\":2521:2535   */\n      add\n        /* \"#utility.yul\":2514:2535   */\n      swap1\n      pop\n        /* \"#utility.yul\":2470:2690   */\n      jump(tag_174)\n    tag_176:\n        /* \"#utility.yul\":2474:2495   */\n      pop\n        /* \"#utility.yul\":2088:2696   */\n      pop\n      pop\n        /* \"#utility.yul\":1986:2696   */\n      swap4\n      swap3\n      pop\n      pop\n      pop\n      jump\t// out\n        /* \"#utility.yul\":2719:3089   */\n    tag_134:\n        /* \"#utility.yul\":2790:2795   */\n      0x00\n        /* \"#utility.yul\":2839:2842   */\n      dup3\n        /* \"#utility.yul\":2832:2836   */\n      0x1f\n        /* \"#utility.yul\":2824:2830   */\n      dup4\n        /* \"#utility.yul\":2820:2837   */\n      add\n        /* \"#utility.yul\":2816:2843   */\n      slt\n        /* \"#utility.yul\":2806:2928   */\n      tag_179\n      jumpi\n        /* \"#utility.yul\":2847:2926   */\n      tag_180\n      tag_124\n      jump\t// in\n    tag_180:\n        /* \"#utility.yul\":2806:2928   */\n    tag_179:\n        /* \"#utility.yul\":2964:2970   */\n      dup2\n        /* \"#utility.yul\":2951:2971   */\n      calldataload\n        /* \"#utility.yul\":2989:3083   */\n      tag_181\n        /* \"#utility.yul\":3079:3082   */\n      dup5\n        /* \"#utility.yul\":3071:3077   */\n      dup3\n        /* \"#utility.yul\":3064:3068   */\n      0x20\n        /* \"#utility.yul\":3056:3062   */\n      dup7\n        /* \"#utility.yul\":3052:3069   */\n      add\n        /* \"#utility.yul\":2989:3083   */\n      tag_133\n      jump\t// in\n    tag_181:\n        /* \"#utility.yul\":2980:3083   */\n      swap2\n      pop\n        /* \"#utility.yul\":2796:3089   */\n      pop\n        /* \"#utility.yul\":2719:3089   */\n      swap3\n      swap2\n      pop\n      pop\n      jump\t// out\n        /* \"#utility.yul\":3095:3989   */\n    tag_8:\n        /* \"#utility.yul\":3213:3219   */\n      0x00\n        /* \"#utility.yul\":3221:3227   */\n      0x00\n        /* \"#utility.yul\":3270:3272   */\n      0x40\n        /* \"#utility.yul\":3258:3267   */\n      dup4\n        /* \"#utility.yul\":3249:3256   */\n      dup6\n        /* \"#utility.yul\":3245:3268   */\n      sub\n        /* \"#utility.yul\":3241:3273   */\n      slt\n        /* \"#utility.yul\":3238:3357   */\n      iszero\n      tag_183\n      jumpi\n        /* \"#utility.yul\":3276:3355   */\n      tag_184\n      tag_122\n      jump\t// in\n    tag_184:\n        /* \"#utility.yul\":3238:3357   */\n    tag_183:\n        /* \"#utility.yul\":3424:3425   */\n      0x00\n        /* \"#utility.yul\":3413:3422   */\n      dup4\n        /* \"#utility.yul\":3409:3426   */\n      add\n        /* \"#utility.yul\":3396:3427   */\n      calldataload\n        /* \"#utility.yul\":3454:3472   */\n      0xffffffffffffffff\n        /* \"#utility.yul\":3446:3452   */\n      dup2\n        /* \"#utility.yul\":3443:3473   */\n      gt\n        /* \"#utility.yul\":3440:3557   */\n      iszero\n      tag_185\n      jumpi\n        /* \"#utility.yul\":3476:3555   */\n      tag_186\n      tag_123\n      jump\t// in\n    tag_186:\n        /* \"#utility.yul\":3440:3557   */\n    tag_185:\n        /* \"#utility.yul\":3581:3659   */\n      tag_187\n        /* \"#utility.yul\":3651:3658   */\n      dup6\n        /* \"#utility.yul\":3642:3648   */\n      dup3\n        /* \"#utility.yul\":3631:3640   */\n      dup7\n        /* \"#utility.yul\":3627:3649   */\n      add\n        /* \"#utility.yul\":3581:3659   */\n      tag_134\n      jump\t// in\n    tag_187:\n        /* \"#utility.yul\":3571:3659   */\n      swap3\n      pop\n        /* \"#utility.yul\":3367:3669   */\n      pop\n        /* \"#utility.yul\":3736:3738   */\n      0x20\n        /* \"#utility.yul\":3725:3734   */\n      dup4\n        /* \"#utility.yul\":3721:3739   */\n      add\n        /* \"#utility.yul\":3708:3740   */\n      calldataload\n        /* \"#utility.yul\":3767:3785   */\n      0xffffffffffffffff\n        /* \"#utility.yul\":3759:3765   */\n      dup2\n        /* \"#utility.yul\":3756:3786   */\n      gt\n        /* \"#utility.yul\":3753:3870   */\n      iszero\n      tag_188\n      jumpi\n        /* \"#utility.yul\":3789:3868   */\n      tag_189\n      tag_123\n      jump\t// in\n    tag_189:\n        /* \"#utility.yul\":3753:3870   */\n    tag_188:\n        /* \"#utility.yul\":3894:3972   */\n      tag_190\n        /* \"#utility.yul\":3964:3971   */\n      dup6\n        /* \"#utility.yul\":3955:3961   */\n      dup3\n        /* \"#utility.yul\":3944:3953   */\n      dup7\n        /* \"#utility.yul\":3940:3962   */\n      add\n        /* \"#utility.yul\":3894:3972   */\n      tag_134\n      jump\t// in\n    tag_190:\n        /* \"#utility.yul\":3884:3972   */\n      swap2\n      pop\n        /* \"#utility.yul\":3679:3982   */\n      pop\n        /* \"#utility.yul\":3095:3989   */\n      swap3\n      pop\n      swap3\n      swap1\n      pop\n      jump\t// out\n        /* \"#utility.yul\":3995:4109   */\n    tag_135:\n        /* \"#utility.yul\":4062:4068   */\n      0x00\n        /* \"#utility.yul\":4096:4101   */\n      dup2\n        /* \"#utility.yul\":4090:4102   */\n      mload\n        /* \"#utility.yul\":4080:4102   */\n      swap1\n      pop\n        /* \"#utility.yul\":3995:4109   */\n      swap2\n      swap1\n      pop\n      jump\t// out\n        /* \"#utility.yul\":4115:4299   */\n    tag_136:\n        /* \"#utility.yul\":4214:4225   */\n      0x00\n        /* \"#utility.yul\":4248:4254   */\n      dup3\n        /* \"#utility.yul\":4243:4246   */\n      dup3\n        /* \"#utility.yul\":4236:4255   */\n      mstore\n        /* \"#utility.yul\":4288:4292   */\n      0x20\n        /* \"#utility.yul\":4283:4286   */\n      dup3\n        /* \"#utility.yul\":4279:4293   */\n      add\n        /* \"#utility.yul\":4264:4293   */\n      swap1\n      pop\n        /* \"#utility.yul\":4115:4299   */\n      swap3\n      swap2\n      pop\n      pop\n      jump\t// out\n        /* \"#utility.yul\":4305:4437   */\n    tag_137:\n        /* \"#utility.yul\":4372:4376   */\n      0x00\n        /* \"#utility.yul\":4395:4398   */\n      dup2\n        /* \"#utility.yul\":4387:4398   */\n      swap1\n      pop\n        /* \"#utility.yul\":4425:4429   */\n      0x20\n        /* \"#utility.yul\":4420:4423   */\n      dup3\n        /* \"#utility.yul\":4416:4430   */\n      add\n        /* \"#utility.yul\":4408:4430   */\n      swap1\n      pop\n        /* \"#utility.yul\":4305:4437   */\n      swap2\n      swap1\n      pop\n      jump\t// out\n        /* \"#utility.yul\":4443:4551   */\n    tag_138:\n        /* \"#utility.yul\":4520:4544   */\n      tag_195\n        /* \"#utility.yul\":4538:4543   */\n      dup2\n        /* \"#utility.yul\":4520:4544   */\n      tag_130\n      jump\t// in\n    tag_195:\n        /* \"#utility.yul\":4515:4518   */\n      dup3\n        /* \"#utility.yul\":4508:4545   */\n      mstore\n        /* \"#utility.yul\":4443:4551   */\n      pop\n      pop\n      jump\t// out\n        /* \"#utility.yul\":4557:4736   */\n    tag_139:\n        /* \"#utility.yul\":4626:4636   */\n      0x00\n        /* \"#utility.yul\":4647:4693   */\n      tag_197\n        /* \"#utility.yul\":4689:4692   */\n      dup4\n        /* \"#utility.yul\":4681:4687   */\n      dup4\n        /* \"#utility.yul\":4647:4693   */\n      tag_138\n      jump\t// in\n    tag_197:\n        /* \"#utility.yul\":4725:4729   */\n      0x20\n        /* \"#utility.yul\":4720:4723   */\n      dup4\n        /* \"#utility.yul\":4716:4730   */\n      add\n        /* \"#utility.yul\":4702:4730   */\n      swap1\n      pop\n        /* \"#utility.yul\":4557:4736   */\n      swap3\n      swap2\n      pop\n      pop\n      jump\t// out\n        /* \"#utility.yul\":4742:4855   */\n    tag_140:\n        /* \"#utility.yul\":4812:4816   */\n      0x00\n        /* \"#utility.yul\":4844:4848   */\n      0x20\n        /* \"#utility.yul\":4839:4842   */\n      dup3\n        /* \"#utility.yul\":4835:4849   */\n      add\n        /* \"#utility.yul\":4827:4849   */\n      swap1\n      pop\n        /* \"#utility.yul\":4742:4855   */\n      swap2\n      swap1\n      pop\n      jump\t// out\n        /* \"#utility.yul\":4891:5623   */\n    tag_141:\n        /* \"#utility.yul\":5010:5013   */\n      0x00\n        /* \"#utility.yul\":5039:5093   */\n      tag_200\n        /* \"#utility.yul\":5087:5092   */\n      dup3\n        /* \"#utility.yul\":5039:5093   */\n      tag_135\n      jump\t// in\n    tag_200:\n        /* \"#utility.yul\":5109:5195   */\n      tag_201\n        /* \"#utility.yul\":5188:5194   */\n      dup2\n        /* \"#utility.yul\":5183:5186   */\n      dup6\n        /* \"#utility.yul\":5109:5195   */\n      tag_136\n      jump\t// in\n    tag_201:\n        /* \"#utility.yul\":5102:5195   */\n      swap4\n      pop\n        /* \"#utility.yul\":5219:5275   */\n      tag_202\n        /* \"#utility.yul\":5269:5274   */\n      dup4\n        /* \"#utility.yul\":5219:5275   */\n      tag_137\n      jump\t// in\n    tag_202:\n        /* \"#utility.yul\":5298:5305   */\n      dup1\n        /* \"#utility.yul\":5329:5330   */\n      0x00\n        /* \"#utility.yul\":5314:5598   */\n    tag_203:\n        /* \"#utility.yul\":5339:5345   */\n      dup4\n        /* \"#utility.yul\":5336:5337   */\n      dup2\n        /* \"#utility.yul\":5333:5346   */\n      lt\n        /* \"#utility.yul\":5314:5598   */\n      iszero\n      tag_205\n      jumpi\n        /* \"#utility.yul\":5415:5421   */\n      dup2\n        /* \"#utility.yul\":5409:5422   */\n      mload\n        /* \"#utility.yul\":5442:5505   */\n      tag_206\n        /* \"#utility.yul\":5501:5504   */\n      dup9\n        /* \"#utility.yul\":5486:5499   */\n      dup3\n        /* \"#utility.yul\":5442:5505   */\n      tag_139\n      jump\t// in\n    tag_206:\n        /* \"#utility.yul\":5435:5505   */\n      swap8\n      pop\n        /* \"#utility.yul\":5528:5588   */\n      tag_207\n        /* \"#utility.yul\":5581:5587   */\n      dup4\n        /* \"#utility.yul\":5528:5588   */\n      tag_140\n      jump\t// in\n    tag_207:\n        /* \"#utility.yul\":5518:5588   */\n      swap3\n      pop\n        /* \"#utility.yul\":5374:5598   */\n      pop\n        /* \"#utility.yul\":5361:5362   */\n      0x01\n        /* \"#utility.yul\":5358:5359   */\n      dup2\n        /* \"#utility.yul\":5354:5363   */\n      add\n        /* \"#utility.yul\":5349:5363   */\n      swap1\n      pop\n        /* \"#utility.yul\":5314:5598   */\n      jump(tag_203)\n    tag_205:\n        /* \"#utility.yul\":5318:5332   */\n      pop\n        /* \"#utility.yul\":5614:5617   */\n      dup6\n        /* \"#utility.yul\":5607:5617   */\n      swap4\n      pop\n        /* \"#utility.yul\":5015:5623   */\n      pop\n      pop\n      pop\n        /* \"#utility.yul\":4891:5623   */\n      swap3\n      swap2\n      pop\n      pop\n      jump\t// out\n        /* \"#utility.yul\":5629:6002   */\n    tag_11:\n        /* \"#utility.yul\":5772:5776   */\n      0x00\n        /* \"#utility.yul\":5810:5812   */\n      0x20\n        /* \"#utility.yul\":5799:5808   */\n      dup3\n        /* \"#utility.yul\":5795:5813   */\n      add\n        /* \"#utility.yul\":5787:5813   */\n      swap1\n      pop\n        /* \"#utility.yul\":5859:5868   */\n      dup2\n        /* \"#utility.yul\":5853:5857   */\n      dup2\n        /* \"#utility.yul\":5849:5869   */\n      sub\n        /* \"#utility.yul\":5845:5846   */\n      0x00\n        /* \"#utility.yul\":5834:5843   */\n      dup4\n        /* \"#utility.yul\":5830:5847   */\n      add\n        /* \"#utility.yul\":5823:5870   */\n      mstore\n        /* \"#utility.yul\":5887:5995   */\n      tag_209\n        /* \"#utility.yul\":5990:5994   */\n      dup2\n        /* \"#utility.yul\":5981:5987   */\n      dup5\n        /* \"#utility.yul\":5887:5995   */\n      tag_141\n      jump\t// in\n    tag_209:\n        /* \"#utility.yul\":5879:5995   */\n      swap1\n      pop\n        /* \"#utility.yul\":5629:6002   */\n      swap3\n      swap2\n      pop\n      pop\n      jump\t// out\n        /* \"#utility.yul\":6008:6337   */\n    tag_18:\n        /* \"#utility.yul\":6067:6073   */\n      0x00\n        /* \"#utility.yul\":6116:6118   */\n      0x20\n        /* \"#utility.yul\":6104:6113   */\n      dup3\n        /* \"#utility.yul\":6095:6102   */\n      dup5\n        /* \"#utility.yul\":6091:6114   */\n      sub\n        /* \"#utility.yul\":6087:6119   */\n      slt\n        /* \"#utility.yul\":6084:6203   */\n      iszero\n      tag_211\n      jumpi\n        /* \"#utility.yul\":6122:6201   */\n      tag_212\n      tag_122\n      jump\t// in\n    tag_212:\n        /* \"#utility.yul\":6084:6203   */\n    tag_211:\n        /* \"#utility.yul\":6242:6243   */\n      0x00\n        /* \"#utility.yul\":6267:6320   */\n      tag_213\n        /* \"#utility.yul\":6312:6319   */\n      dup5\n        /* \"#utility.yul\":6303:6309   */\n      dup3\n        /* \"#utility.yul\":6292:6301   */\n      dup6\n        /* \"#utility.yul\":6288:6310   */\n      add\n        /* \"#utility.yul\":6267:6320   */\n      tag_132\n      jump\t// in\n    tag_213:\n        /* \"#utility.yul\":6257:6320   */\n      swap2\n      pop\n        /* \"#utility.yul\":6213:6330   */\n      pop\n        /* \"#utility.yul\":6008:6337   */\n      swap3\n      swap2\n      pop\n      pop\n      jump\t// out\n        /* \"#utility.yul\":6343:6461   */\n    tag_142:\n        /* \"#utility.yul\":6430:6454   */\n      tag_215\n        /* \"#utility.yul\":6448:6453   */\n      dup2\n        /* \"#utility.yul\":6430:6454   */\n      tag_130\n      jump\t// in\n    tag_215:\n        /* \"#utility.yul\":6425:6428   */\n      dup3\n        /* \"#utility.yul\":6418:6455   */\n      mstore\n        /* \"#utility.yul\":6343:6461   */\n      pop\n      pop\n      jump\t// out\n        /* \"#utility.yul\":6467:6689   */\n    tag_21:\n        /* \"#utility.yul\":6560:6564   */\n      0x00\n        /* \"#utility.yul\":6598:6600   */\n      0x20\n        /* \"#utility.yul\":6587:6596   */\n      dup3\n        /* \"#utility.yul\":6583:6601   */\n      add\n        /* \"#utility.yul\":6575:6601   */\n      swap1\n      pop\n        /* \"#utility.yul\":6611:6682   */\n      tag_217\n        /* \"#utility.yul\":6679:6680   */\n      0x00\n        /* \"#utility.yul\":6668:6677   */\n      dup4\n        /* \"#utility.yul\":6664:6681   */\n      add\n        /* \"#utility.yul\":6655:6661   */\n      dup5\n        /* \"#utility.yul\":6611:6682   */\n      tag_142\n      jump\t// in\n    tag_217:\n        /* \"#utility.yul\":6467:6689   */\n      swap3\n      swap2\n      pop\n      pop\n      jump\t// out\n        /* \"#utility.yul\":6695:6875   */\n    tag_143:\n        /* \"#utility.yul\":6743:6820   */\n      0x4e487b7100000000000000000000000000000000000000000000000000000000\n        /* \"#utility.yul\":6740:6741   */\n      0x00\n        /* \"#utility.yul\":6733:6821   */\n      mstore\n        /* \"#utility.yul\":6840:6844   */\n      0x11\n        /* \"#utility.yul\":6837:6838   */\n      0x04\n        /* \"#utility.yul\":6830:6845   */\n      mstore\n        /* \"#utility.yul\":6864:6868   */\n      0x24\n        /* \"#utility.yul\":6861:6862   */\n      0x00\n        /* \"#utility.yul\":6854:6869   */\n      revert\n        /* \"#utility.yul\":6881:7072   */\n    tag_24:\n        /* \"#utility.yul\":6921:6924   */\n      0x00\n        /* \"#utility.yul\":6940:6960   */\n      tag_220\n        /* \"#utility.yul\":6958:6959   */\n      dup3\n        /* \"#utility.yul\":6940:6960   */\n      tag_130\n      jump\t// in\n    tag_220:\n        /* \"#utility.yul\":6935:6960   */\n      swap2\n      pop\n        /* \"#utility.yul\":6974:6994   */\n      tag_221\n        /* \"#utility.yul\":6992:6993   */\n      dup4\n        /* \"#utility.yul\":6974:6994   */\n      tag_130\n      jump\t// in\n    tag_221:\n        /* \"#utility.yul\":6969:6994   */\n      swap3\n      pop\n        /* \"#utility.yul\":7017:7018   */\n      dup3\n        /* \"#utility.yul\":7014:7015   */\n      dup3\n        /* \"#utility.yul\":7010:7019   */\n      add\n        /* \"#utility.yul\":7003:7019   */\n      swap1\n      pop\n        /* \"#utility.yul\":7038:7041   */\n      dup1\n        /* \"#utility.yul\":7035:7036   */\n      dup3\n        /* \"#utility.yul\":7032:7042   */\n      gt\n        /* \"#utility.yul\":7029:7065   */\n      iszero\n      tag_222\n      jumpi\n        /* \"#utility.yul\":7045:7063   */\n      tag_223\n      tag_143\n      jump\t// in\n    tag_223:\n        /* \"#utility.yul\":7029:7065   */\n    tag_222:\n        /* \"#utility.yul\":6881:7072   */\n      swap3\n      swap2\n      pop\n      pop\n      jump\t// out\n        /* \"#utility.yul\":7078:7258   */\n    tag_34:\n        /* \"#utility.yul\":7126:7203   */\n      0x4e487b7100000000000000000000000000000000000000000000000000000000\n        /* \"#utility.yul\":7123:7124   */\n      0x00\n        /* \"#utility.yul\":7116:7204   */\n      mstore\n        /* \"#utility.yul\":7223:7227   */\n      0x32\n        /* \"#utility.yul\":7220:7221   */\n      0x04\n        /* \"#utility.yul\":7213:7228   */\n      mstore\n        /* \"#utility.yul\":7247:7251   */\n      0x24\n        /* \"#utility.yul\":7244:7245   */\n      0x00\n        /* \"#utility.yul\":7237:7252   */\n      revert\n        /* \"#utility.yul\":7264:7497   */\n    tag_38:\n        /* \"#utility.yul\":7303:7306   */\n      0x00\n        /* \"#utility.yul\":7326:7350   */\n      tag_226\n        /* \"#utility.yul\":7344:7349   */\n      dup3\n        /* \"#utility.yul\":7326:7350   */\n      tag_130\n      jump\t// in\n    tag_226:\n        /* \"#utility.yul\":7317:7350   */\n      swap2\n      pop\n        /* \"#utility.yul\":7372:7438   */\n      0xffffffffffffffffffffffffffffffffffffffffffffffffffffffffffffffff\n        /* \"#utility.yul\":7365:7370   */\n      dup3\n        /* \"#utility.yul\":7362:7439   */\n      sub\n        /* \"#utility.yul\":7359:7462   */\n      tag_227\n      jumpi\n        /* \"#utility.yul\":7442:7460   */\n      tag_228\n      tag_143\n      jump\t// in\n    tag_228:\n        /* \"#utility.yul\":7359:7462   */\n    tag_227:\n        /* \"#utility.yul\":7489:7490   */\n      0x01\n        /* \"#utility.yul\":7482:7487   */\n      dup3\n        /* \"#utility.yul\":7478:7491   */\n      add\n        /* \"#utility.yul\":7471:7491   */\n      swap1\n      pop\n        /* \"#utility.yul\":7264:7497   */\n      swap2\n      swap1\n      pop\n      jump\t// out\n        /* \"#utility.yul\":7503:7683   */\n    tag_144:\n        /* \"#utility.yul\":7551:7628   */\n      0x4e487b7100000000000000000000000000000000000000000000000000000000\n        /* \"#utility.yul\":7548:7549   */\n      0x00\n        /* \"#utility.yul\":7541:7629   */\n      mstore\n        /* \"#utility.yul\":7648:7652   */\n      0x12\n        /* \"#utility.yul\":7645:7646   */\n      0x04\n        /* \"#utility.yul\":7638:7653   */\n      mstore\n        /* \"#utility.yul\":7672:7676   */\n      0x24\n        /* \"#utility.yul\":7669:7670   */\n      0x00\n        /* \"#utility.yul\":7662:7677   */\n      revert\n        /* \"#utility.yul\":7689:7874   */\n    tag_92:\n        /* \"#utility.yul\":7729:7730   */\n      0x00\n        /* \"#utility.yul\":7746:7766   */\n      tag_231\n        /* \"#utility.yul\":7764:7765   */\n      dup3\n        /* \"#utility.yul\":7746:7766   */\n      tag_130\n      jump\t// in\n    tag_231:\n        /* \"#utility.yul\":7741:7766   */\n      swap2\n      pop\n        /* \"#utility.yul\":7780:7800   */\n      tag_232\n        /* \"#utility.yul\":7798:7799   */\n      dup4\n        /* \"#utility.yul\":7780:7800   */\n      tag_130\n      jump\t// in\n    tag_232:\n        /* \"#utility.yul\":7775:7800   */\n      swap3\n      pop\n        /* \"#utility.yul\":7819:7820   */\n      dup3\n        /* \"#utility.yul\":7809:7844   */\n      tag_233\n      jumpi\n        /* \"#utility.yul\":7824:7842   */\n      tag_234\n      tag_144\n      jump\t// in\n    tag_234:\n        /* \"#utility.yul\":7809:7844   */\n    tag_233:\n        /* \"#utility.yul\":7866:7867   */\n      dup3\n        /* \"#utility.yul\":7863:7864   */\n      dup3\n        /* \"#utility.yul\":7859:7868   */\n      div\n        /* \"#utility.yul\":7854:7868   */\n      swap1\n      pop\n        /* \"#utility.yul\":7689:7874   */\n      swap3\n      swap2\n      pop\n      pop\n      jump\t// out\n        /* \"#utility.yul\":7880:8074   */\n    tag_100:\n        /* \"#utility.yul\":7920:7924   */\n      0x00\n        /* \"#utility.yul\":7940:7960   */\n      tag_236\n        /* \"#utility.yul\":7958:7959   */\n      dup3\n        /* \"#utility.yul\":7940:7960   */\n      tag_130\n      jump\t// in\n    tag_236:\n        /* \"#utility.yul\":7935:7960   */\n      swap2\n      pop\n        /* \"#utility.yul\":7974:7994   */\n      tag_237\n        /* \"#utility.yul\":7992:7993   */\n      dup4\n        /* \"#utility.yul\":7974:7994   */\n      tag_130\n      jump\t// in\n    tag_237:\n        /* \"#utility.yul\":7969:7994   */\n      swap3\n      pop\n        /* \"#utility.yul\":8018:8019   */\n      dup3\n        /* \"#utility.yul\":8015:8016   */\n      dup3\n        /* \"#utility.yul\":8011:8020   */\n      sub\n        /* \"#utility.yul\":8003:8020   */\n      swap1\n      pop\n        /* \"#utility.yul\":8042:8043   */\n      dup2\n        /* \"#utility.yul\":8036:8040   */\n      dup2\n        /* \"#utility.yul\":8033:8044   */\n      gt\n        /* \"#utility.yul\":8030:8067   */\n      iszero\n      tag_238\n      jumpi\n        /* \"#utility.yul\":8047:8065   */\n      tag_239\n      tag_143\n      jump\t// in\n    tag_239:\n        /* \"#utility.yul\":8030:8067   */\n    tag_238:\n        /* \"#utility.yul\":7880:8074   */\n      swap3\n      swap2\n      pop\n      pop\n      jump\t// out\n\n    auxdata: 0xa2646970667358221220eb22e10153a44b7833da67e0299ec5fbef0e426333a70b40da8ed0a9e5ab11c664736f6c634300081e0033\n}\n",
				"bytecode": {
					"linkReferences": {},
					"object": "6080604052348015600e575f5ffd5b50610ad48061001c5f395ff3fe608060405234801561000f575f5ffd5b506004361061003f575f3560e01c8063088b9bf61461004357806331bf1a01146100735780635ed86d5c146100a3575b5f5ffd5b61005d6004803603810190610058919061079a565b6100d3565b60405161006a91906108c7565b60405180910390f35b61008d6004803603810190610088919061079a565b610212565b60405161009a91906108c7565b60405180910390f35b6100bd60048036038101906100b891906108e7565b610450565b6040516100ca9190610921565b60405180910390f35b60605f825184516100e49190610967565b90505f8167ffffffffffffffff8111156101015761010061062b565b5b60405190808252806020026020018201604052801561012f5781602001602082028036833780820191505090505b5090505f5f90505f5f90505b8651811015610199578681815181106101575761015661099a565b5b60200260200101518383815181106101725761017161099a565b5b6020026020010181815250508180610189906109c7565b925050808060010191505061013b565b505f5f90505b85518110156101fd578581815181106101bb576101ba61099a565b5b60200260200101518383815181106101d6576101d561099a565b5b60200260200101818152505081806101ed906109c7565b925050808060010191505061019f565b5061020782610465565b935050505092915050565b60605f825184516102239190610967565b90505f8167ffffffffffffffff8111156102405761023f61062b565b5b60405190808252806020026020018201604052801561026e5781602001602082028036833780820191505090505b5090505f5f90505f5f90505f5f90505b87518310801561028e5750865182105b15610378578682815181106102a6576102a561099a565b5b60200260200101518884815181106102c1576102c061099a565b5b6020026020010151101561031c578783815181106102e2576102e161099a565b5b60200260200101518482815181106102fd576102fc61099a565b5b6020026020010181815250508280610314906109c7565b935050610365565b86828151811061032f5761032e61099a565b5b602002602001015184828151811061034a5761034961099a565b5b6020026020010181815250508180610361906109c7565b9250505b8080610370906109c7565b91505061027e565b5b87518310156103dd578783815181106103955761039461099a565b5b60200260200101518482815181106103b0576103af61099a565b5b60200260200101818152505082806103c7906109c7565b93505080806103d5906109c7565b915050610379565b5b8651821015610442578682815181106103fa576103f961099a565b5b60200260200101518482815181106104155761041461099a565b5b602002602001018181525050818061042c906109c7565b925050808061043a906109c7565b9150506103de565b839550505050505092915050565b5f60028261045e9190610a3b565b9050919050565b60605f600283516104769190610a3b565b9050600181101561048a5782915050610601565b5f8167ffffffffffffffff8111156104a5576104a461062b565b5b6040519080825280602002602001820160405280156104d35781602001602082028036833780820191505090505b5090505f8285516104e49190610a6b565b67ffffffffffffffff8111156104fd576104fc61062b565b5b60405190808252806020026020018201604052801561052b5781602001602082028036833780820191505090505b5090505f5f90505b85518110156105d65783811015610583578581815181106105575761055661099a565b5b60200260200101518382815181106105725761057161099a565b5b6020026020010181815250506105c9565b8581815181106105965761059561099a565b5b60200260200101518285836105ab9190610a6b565b815181106105bc576105bb61099a565b5b6020026020010181815250505b8080600101915050610533565b505f6105e183610465565b90505f6105ed83610465565b90506105f98282610212565b955050505050505b919050565b5f604051905090565b5f5ffd5b5f5ffd5b5f5ffd5b5f601f19601f8301169050919050565b7f4e487b71000000000000000000000000000000000000000000000000000000005f52604160045260245ffd5b6106618261061b565b810181811067ffffffffffffffff821117156106805761067f61062b565b5b80604052505050565b5f610692610606565b905061069e8282610658565b919050565b5f67ffffffffffffffff8211156106bd576106bc61062b565b5b602082029050602081019050919050565b5f5ffd5b5f819050919050565b6106e4816106d2565b81146106ee575f5ffd5b50565b5f813590506106ff816106db565b92915050565b5f610717610712846106a3565b610689565b9050808382526020820190506020840283018581111561073a576107396106ce565b5b835b81811015610763578061074f88826106f1565b84526020840193505060208101905061073c565b5050509392505050565b5f82601f83011261078157610780610617565b5b8135610791848260208601610705565b91505092915050565b5f5f604083850312156107b0576107af61060f565b5b5f83013567ffffffffffffffff8111156107cd576107cc610613565b5b6107d98582860161076d565b925050602083013567ffffffffffffffff8111156107fa576107f9610613565b5b6108068582860161076d565b9150509250929050565b5f81519050919050565b5f82825260208201905092915050565b5f819050602082019050919050565b610842816106d2565b82525050565b5f6108538383610839565b60208301905092915050565b5f602082019050919050565b5f61087582610810565b61087f818561081a565b935061088a8361082a565b805f5b838110156108ba5781516108a18882610848565b97506108ac8361085f565b92505060018101905061088d565b5085935050505092915050565b5f6020820190508181035f8301526108df818461086b565b905092915050565b5f602082840312156108fc576108fb61060f565b5b5f610909848285016106f1565b91505092915050565b61091b816106d2565b82525050565b5f6020820190506109345f830184610912565b92915050565b7f4e487b71000000000000000000000000000000000000000000000000000000005f52601160045260245ffd5b5f610971826106d2565b915061097c836106d2565b92508282019050808211156109945761099361093a565b5b92915050565b7f4e487b71000000000000000000000000000000000000000000000000000000005f52603260045260245ffd5b5f6109d1826106d2565b91507fffffffffffffffffffffffffffffffffffffffffffffffffffffffffffffffff8203610a0357610a0261093a565b5b600182019050919050565b7f4e487b71000000000000000000000000000000000000000000000000000000005f52601260045260245ffd5b5f610a45826106d2565b9150610a50836106d2565b925082610a6057610a5f610a0e565b5b828204905092915050565b5f610a75826106d2565b9150610a80836106d2565b9250828203905081811115610a9857610a9761093a565b5b9291505056fea2646970667358221220eb22e10153a44b7833da67e0299ec5fbef0e426333a70b40da8ed0a9e5ab11c664736f6c634300081e0033",
					"opcodes": "PUSH1 0x80 PUSH1 0x40 MSTORE CALLVALUE DUP1 ISZERO PUSH1 0xE JUMPI PUSH0 PUSH0 REVERT JUMPDEST POP PUSH2 0xAD4 DUP1 PUSH2 0x1C PUSH0 CODECOPY PUSH0 RETURN INVALID PUSH1 0x80 PUSH1 0x40 MSTORE CALLVALUE DUP1 ISZERO PUSH2 0xF JUMPI PUSH0 PUSH0 REVERT JUMPDEST POP PUSH1 0x4 CALLDATASIZE LT PUSH2 0x3F JUMPI PUSH0 CALLDATALOAD PUSH1 0xE0 SHR DUP1 PUSH4 0x88B9BF6 EQ PUSH2 0x43 JUMPI DUP1 PUSH4 0x31BF1A01 EQ PUSH2 0x73 JUMPI DUP1 PUSH4 0x5ED86D5C EQ PUSH2 0xA3 JUMPI JUMPDEST PUSH0 PUSH0 REVERT JUMPDEST PUSH2 0x5D PUSH1 0x4 DUP1 CALLDATASIZE SUB DUP2 ADD SWAP1 PUSH2 0x58 SWAP2 SWAP1 PUSH2 0x79A JUMP JUMPDEST PUSH2 0xD3 JUMP JUMPDEST PUSH1 0x40 MLOAD PUSH2 0x6A SWAP2 SWAP1 PUSH2 0x8C7 JUMP JUMPDEST PUSH1 0x40 MLOAD DUP1 SWAP2 SUB SWAP1 RETURN JUMPDEST PUSH2 0x8D PUSH1 0x4 DUP1 CALLDATASIZE SUB DUP2 ADD SWAP1 PUSH2 0x88 SWAP2 SWAP1 PUSH2 0x79A JUMP JUMPDEST PUSH2 0x212 JUMP JUMPDEST PUSH1 0x40 MLOAD PUSH2 0x9A SWAP2 SWAP1 PUSH2 0x8C7 JUMP JUMPDEST PUSH1 0x40 MLOAD DUP1 SWAP2 SUB SWAP1 RETURN JUMPDEST PUSH2 0xBD PUSH1 0x4 DUP1 CALLDATASIZE SUB DUP2 ADD SWAP1 PUSH2 0xB8 SWAP2 SWAP1 PUSH2 0x8E7 JUMP JUMPDEST PUSH2 0x450 JUMP JUMPDEST PUSH1 0x40 MLOAD PUSH2 0xCA SWAP2 SWAP1 PUSH2 0x921 JUMP JUMPDEST PUSH1 0x40 MLOAD DUP1 SWAP2 SUB SWAP1 RETURN JUMPDEST PUSH1 0x60 PUSH0 DUP3 MLOAD DUP5 MLOAD PUSH2 0xE4 SWAP2 SWAP1 PUSH2 0x967 JUMP JUMPDEST SWAP1 POP PUSH0 DUP2 PUSH8 0xFFFFFFFFFFFFFFFF DUP2 GT ISZERO PUSH2 0x101 JUMPI PUSH2 0x100 PUSH2 0x62B JUMP JUMPDEST JUMPDEST PUSH1 0x40 MLOAD SWAP1 DUP1 DUP3 MSTORE DUP1 PUSH1 0x20 MUL PUSH1 0x20 ADD DUP3 ADD PUSH1 0x40 MSTORE DUP1 ISZERO PUSH2 0x12F JUMPI DUP2 PUSH1 0x20 ADD PUSH1 0x20 DUP3 MUL DUP1 CALLDATASIZE DUP4 CALLDATACOPY DUP1 DUP3 ADD SWAP2 POP POP SWAP1 POP JUMPDEST POP SWAP1 POP PUSH0 PUSH0 SWAP1 POP PUSH0 PUSH0 SWAP1 POP JUMPDEST DUP7 MLOAD DUP2 LT ISZERO PUSH2 0x199 JUMPI DUP7 DUP2 DUP2 MLOAD DUP2 LT PUSH2 0x157 JUMPI PUSH2 0x156 PUSH2 0x99A JUMP JUMPDEST JUMPDEST PUSH1 0x20 MUL PUSH1 0x20 ADD ADD MLOAD DUP4 DUP4 DUP2 MLOAD DUP2 LT PUSH2 0x172 JUMPI PUSH2 0x171 PUSH2 0x99A JUMP JUMPDEST JUMPDEST PUSH1 0x20 MUL PUSH1 0x20 ADD ADD DUP2 DUP2 MSTORE POP POP DUP2 DUP1 PUSH2 0x189 SWAP1 PUSH2 0x9C7 JUMP JUMPDEST SWAP3 POP POP DUP1 DUP1 PUSH1 0x1 ADD SWAP2 POP POP PUSH2 0x13B JUMP JUMPDEST POP PUSH0 PUSH0 SWAP1 POP JUMPDEST DUP6 MLOAD DUP2 LT ISZERO PUSH2 0x1FD JUMPI DUP6 DUP2 DUP2 MLOAD DUP2 LT PUSH2 0x1BB JUMPI PUSH2 0x1BA PUSH2 0x99A JUMP JUMPDEST JUMPDEST PUSH1 0x20 MUL PUSH1 0x20 ADD ADD MLOAD DUP4 DUP4 DUP2 MLOAD DUP2 LT PUSH2 0x1D6 JUMPI PUSH2 0x1D5 PUSH2 0x99A JUMP JUMPDEST JUMPDEST PUSH1 0x20 MUL PUSH1 0x20 ADD ADD DUP2 DUP2 MSTORE POP POP DUP2 DUP1 PUSH2 0x1ED SWAP1 PUSH2 0x9C7 JUMP JUMPDEST SWAP3 POP POP DUP1 DUP1 PUSH1 0x1 ADD SWAP2 POP POP PUSH2 0x19F JUMP JUMPDEST POP PUSH2 0x207 DUP3 PUSH2 0x465 JUMP JUMPDEST SWAP4 POP POP POP POP SWAP3 SWAP2 POP POP JUMP JUMPDEST PUSH1 0x60 PUSH0 DUP3 MLOAD DUP5 MLOAD PUSH2 0x223 SWAP2 SWAP1 PUSH2 0x967 JUMP JUMPDEST SWAP1 POP PUSH0 DUP2 PUSH8 0xFFFFFFFFFFFFFFFF DUP2 GT ISZERO PUSH2 0x240 JUMPI PUSH2 0x23F PUSH2 0x62B JUMP JUMPDEST JUMPDEST PUSH1 0x40 MLOAD SWAP1 DUP1 DUP3 MSTORE DUP1 PUSH1 0x20 MUL PUSH1 0x20 ADD DUP3 ADD PUSH1 0x40 MSTORE DUP1 ISZERO PUSH2 0x26E JUMPI DUP2 PUSH1 0x20 ADD PUSH1 0x20 DUP3 MUL DUP1 CALLDATASIZE DUP4 CALLDATACOPY DUP1 DUP3 ADD SWAP2 POP POP SWAP1 POP JUMPDEST POP SWAP1 POP PUSH0 PUSH0 SWAP1 POP PUSH0 PUSH0 SWAP1 POP PUSH0 PUSH0 SWAP1 POP JUMPDEST DUP8 MLOAD DUP4 LT DUP1 ISZERO PUSH2 0x28E JUMPI POP DUP7 MLOAD DUP3 LT JUMPDEST ISZERO PUSH2 0x378 JUMPI DUP7 DUP3 DUP2 MLOAD DUP2 LT PUSH2 0x2A6 JUMPI PUSH2 0x2A5 PUSH2 0x99A JUMP JUMPDEST JUMPDEST PUSH1 0x20 MUL PUSH1 0x20 ADD ADD MLOAD DUP9 DUP5 DUP2 MLOAD DUP2 LT PUSH2 0x2C1 JUMPI PUSH2 0x2C0 PUSH2 0x99A JUMP JUMPDEST JUMPDEST PUSH1 0x20 MUL PUSH1 0x20 ADD ADD MLOAD LT ISZERO PUSH2 0x31C JUMPI DUP8 DUP4 DUP2 MLOAD DUP2 LT PUSH2 0x2E2 JUMPI PUSH2 0x2E1 PUSH2 0x99A JUMP JUMPDEST JUMPDEST PUSH1 0x20 MUL PUSH1 0x20 ADD ADD MLOAD DUP5 DUP3 DUP2 MLOAD DUP2 LT PUSH2 0x2FD JUMPI PUSH2 0x2FC PUSH2 0x99A JUMP JUMPDEST JUMPDEST PUSH1 0x20 MUL PUSH1 0x20 ADD ADD DUP2 DUP2 MSTORE POP POP DUP3 DUP1 PUSH2 0x314 SWAP1 PUSH2 0x9C7 JUMP JUMPDEST SWAP4 POP POP PUSH2 0x365 JUMP JUMPDEST DUP7 DUP3 DUP2 MLOAD DUP2 LT PUSH2 0x32F JUMPI PUSH2 0x32E PUSH2 0x99A JUMP JUMPDEST JUMPDEST PUSH1 0x20 MUL PUSH1 0x20 ADD ADD MLOAD DUP5 DUP3 DUP2 MLOAD DUP2 LT PUSH2 0x34A JUMPI PUSH2 0x349 PUSH2 0x99A JUMP JUMPDEST JUMPDEST PUSH1 0x20 MUL PUSH1 0x20 ADD ADD DUP2 DUP2 MSTORE POP POP DUP2 DUP1 PUSH2 0x361 SWAP1 PUSH2 0x9C7 JUMP JUMPDEST SWAP3 POP POP JUMPDEST DUP1 DUP1 PUSH2 0x370 SWAP1 PUSH2 0x9C7 JUMP JUMPDEST SWAP2 POP POP PUSH2 0x27E JUMP JUMPDEST JUMPDEST DUP8 MLOAD DUP4 LT ISZERO PUSH2 0x3DD JUMPI DUP8 DUP4 DUP2 MLOAD DUP2 LT PUSH2 0x395 JUMPI PUSH2 0x394 PUSH2 0x99A JUMP JUMPDEST JUMPDEST PUSH1 0x20 MUL PUSH1 0x20 ADD ADD MLOAD DUP5 DUP3 DUP2 MLOAD DUP2 LT PUSH2 0x3B0 JUMPI PUSH2 0x3AF PUSH2 0x99A JUMP JUMPDEST JUMPDEST PUSH1 0x20 MUL PUSH1 0x20 ADD ADD DUP2 DUP2 MSTORE POP POP DUP3 DUP1 PUSH2 0x3C7 SWAP1 PUSH2 0x9C7 JUMP JUMPDEST SWAP4 POP POP DUP1 DUP1 PUSH2 0x3D5 SWAP1 PUSH2 0x9C7 JUMP JUMPDEST SWAP2 POP POP PUSH2 0x379 JUMP JUMPDEST JUMPDEST DUP7 MLOAD DUP3 LT ISZERO PUSH2 0x442 JUMPI DUP7 DUP3 DUP2 MLOAD DUP2 LT PUSH2 0x3FA JUMPI PUSH2 0x3F9 PUSH2 0x99A JUMP JUMPDEST JUMPDEST PUSH1 0x20 MUL PUSH1 0x20 ADD ADD MLOAD DUP5 DUP3 DUP2 MLOAD DUP2 LT PUSH2 0x415 JUMPI PUSH2 0x414 PUSH2 0x99A JUMP JUMPDEST JUMPDEST PUSH1 0x20 MUL PUSH1 0x20 ADD ADD DUP2 DUP2 MSTORE POP POP DUP2 DUP1 PUSH2 0x42C SWAP1 PUSH2 0x9C7 JUMP JUMPDEST SWAP3 POP POP DUP1 DUP1 PUSH2 0x43A SWAP1 PUSH2 0x9C7 JUMP JUMPDEST SWAP2 POP POP PUSH2 0x3DE JUMP JUMPDEST DUP4 SWAP6 POP POP POP POP POP POP SWAP3 SWAP2 POP POP JUMP JUMPDEST PUSH0 PUSH1 0x2 DUP3 PUSH2 0x45E SWAP2 SWAP1 PUSH2 0xA3B JUMP JUMPDEST SWAP1 POP SWAP2 SWAP1 POP JUMP JUMPDEST PUSH1 0x60 PUSH0 PUSH1 0x2 DUP4 MLOAD PUSH2 0x476 SWAP2 SWAP1 PUSH2 0xA3B JUMP JUMPDEST SWAP1 POP PUSH1 0x1 DUP2 LT ISZERO PUSH2 0x48A JUMPI DUP3 SWAP2 POP POP PUSH2 0x601 JUMP JUMPDEST PUSH0 DUP2 PUSH8 0xFFFFFFFFFFFFFFFF DUP2 GT ISZERO PUSH2 0x4A5 JUMPI PUSH2 0x4A4 PUSH2 0x62B JUMP JUMPDEST JUMPDEST PUSH1 0x40 MLOAD SWAP1 DUP1 DUP3 MSTORE DUP1 PUSH1 0x20 MUL PUSH1 0x20 ADD DUP3 ADD PUSH1 0x40 MSTORE DUP1 ISZERO PUSH2 0x4D3 JUMPI DUP2 PUSH1 0x20 ADD PUSH1 0x20 DUP3 MUL DUP1 CALLDATASIZE DUP4 CALLDATACOPY DUP1 DUP3 ADD SWAP2 POP POP SWAP1 POP JUMPDEST POP SWAP1 POP PUSH0 DUP3 DUP6 MLOAD PUSH2 0x4E4 SWAP2 SWAP1 PUSH2 0xA6B JUMP JUMPDEST PUSH8 0xFFFFFFFFFFFFFFFF DUP2 GT ISZERO PUSH2 0x4FD JUMPI PUSH2 0x4FC PUSH2 0x62B JUMP JUMPDEST JUMPDEST PUSH1 0x40 MLOAD SWAP1 DUP1 DUP3 MSTORE DUP1 PUSH1 0x20 MUL PUSH1 0x20 ADD DUP3 ADD PUSH1 0x40 MSTORE DUP1 ISZERO PUSH2 0x52B JUMPI DUP2 PUSH1 0x20 ADD PUSH1 0x20 DUP3 MUL DUP1 CALLDATASIZE DUP4 CALLDATACOPY DUP1 DUP3 ADD SWAP2 POP POP SWAP1 POP JUMPDEST POP SWAP1 POP PUSH0 PUSH0 SWAP1 POP JUMPDEST DUP6 MLOAD DUP2 LT ISZERO PUSH2 0x5D6 JUMPI DUP4 DUP2 LT ISZERO PUSH2 0x583 JUMPI DUP6 DUP2 DUP2 MLOAD DUP2 LT PUSH2 0x557 JUMPI PUSH2 0x556 PUSH2 0x99A JUMP JUMPDEST JUMPDEST PUSH1 0x20 MUL PUSH1 0x20 ADD ADD MLOAD DUP4 DUP3 DUP2 MLOAD DUP2 LT PUSH2 0x572 JUMPI PUSH2 0x571 PUSH2 0x99A JUMP JUMPDEST JUMPDEST PUSH1 0x20 MUL PUSH1 0x20 ADD ADD DUP2 DUP2 MSTORE POP POP PUSH2 0x5C9 JUMP JUMPDEST DUP6 DUP2 DUP2 MLOAD DUP2 LT PUSH2 0x596 JUMPI PUSH2 0x595 PUSH2 0x99A JUMP JUMPDEST JUMPDEST PUSH1 0x20 MUL PUSH1 0x20 ADD ADD MLOAD DUP3 DUP6 DUP4 PUSH2 0x5AB SWAP2 SWAP1 PUSH2 0xA6B JUMP JUMPDEST DUP2 MLOAD DUP2 LT PUSH2 0x5BC JUMPI PUSH2 0x5BB PUSH2 0x99A JUMP JUMPDEST JUMPDEST PUSH1 0x20 MUL PUSH1 0x20 ADD ADD DUP2 DUP2 MSTORE POP POP JUMPDEST DUP1 DUP1 PUSH1 0x1 ADD SWAP2 POP POP PUSH2 0x533 JUMP JUMPDEST POP PUSH0 PUSH2 0x5E1 DUP4 PUSH2 0x465 JUMP JUMPDEST SWAP1 POP PUSH0 PUSH2 0x5ED DUP4 PUSH2 0x465 JUMP JUMPDEST SWAP1 POP PUSH2 0x5F9 DUP3 DUP3 PUSH2 0x212 JUMP JUMPDEST SWAP6 POP POP POP POP POP POP JUMPDEST SWAP2 SWAP1 POP JUMP JUMPDEST PUSH0 PUSH1 0x40 MLOAD SWAP1 POP SWAP1 JUMP JUMPDEST PUSH0 PUSH0 REVERT JUMPDEST PUSH0 PUSH0 REVERT JUMPDEST PUSH0 PUSH0 REVERT JUMPDEST PUSH0 PUSH1 0x1F NOT PUSH1 0x1F DUP4 ADD AND SWAP1 POP SWAP2 SWAP1 POP JUMP JUMPDEST PUSH32 0x4E487B7100000000000000000000000000000000000000000000000000000000 PUSH0 MSTORE PUSH1 0x41 PUSH1 0x4 MSTORE PUSH1 0x24 PUSH0 REVERT JUMPDEST PUSH2 0x661 DUP3 PUSH2 0x61B JUMP JUMPDEST DUP2 ADD DUP2 DUP2 LT PUSH8 0xFFFFFFFFFFFFFFFF DUP3 GT OR ISZERO PUSH2 0x680 JUMPI PUSH2 0x67F PUSH2 0x62B JUMP JUMPDEST JUMPDEST DUP1 PUSH1 0x40 MSTORE POP POP POP JUMP JUMPDEST PUSH0 PUSH2 0x692 PUSH2 0x606 JUMP JUMPDEST SWAP1 POP PUSH2 0x69E DUP3 DUP3 PUSH2 0x658 JUMP JUMPDEST SWAP2 SWAP1 POP JUMP JUMPDEST PUSH0 PUSH8 0xFFFFFFFFFFFFFFFF DUP3 GT ISZERO PUSH2 0x6BD JUMPI PUSH2 0x6BC PUSH2 0x62B JUMP JUMPDEST JUMPDEST PUSH1 0x20 DUP3 MUL SWAP1 POP PUSH1 0x20 DUP2 ADD SWAP1 POP SWAP2 SWAP1 POP JUMP JUMPDEST PUSH0 PUSH0 REVERT JUMPDEST PUSH0 DUP2 SWAP1 POP SWAP2 SWAP1 POP JUMP JUMPDEST PUSH2 0x6E4 DUP2 PUSH2 0x6D2 JUMP JUMPDEST DUP2 EQ PUSH2 0x6EE JUMPI PUSH0 PUSH0 REVERT JUMPDEST POP JUMP JUMPDEST PUSH0 DUP2 CALLDATALOAD SWAP1 POP PUSH2 0x6FF DUP2 PUSH2 0x6DB JUMP JUMPDEST SWAP3 SWAP2 POP POP JUMP JUMPDEST PUSH0 PUSH2 0x717 PUSH2 0x712 DUP5 PUSH2 0x6A3 JUMP JUMPDEST PUSH2 0x689 JUMP JUMPDEST SWAP1 POP DUP1 DUP4 DUP3 MSTORE PUSH1 0x20 DUP3 ADD SWAP1 POP PUSH1 0x20 DUP5 MUL DUP4 ADD DUP6 DUP2 GT ISZERO PUSH2 0x73A JUMPI PUSH2 0x739 PUSH2 0x6CE JUMP JUMPDEST JUMPDEST DUP4 JUMPDEST DUP2 DUP2 LT ISZERO PUSH2 0x763 JUMPI DUP1 PUSH2 0x74F DUP9 DUP3 PUSH2 0x6F1 JUMP JUMPDEST DUP5 MSTORE PUSH1 0x20 DUP5 ADD SWAP4 POP POP PUSH1 0x20 DUP2 ADD SWAP1 POP PUSH2 0x73C JUMP JUMPDEST POP POP POP SWAP4 SWAP3 POP POP POP JUMP JUMPDEST PUSH0 DUP3 PUSH1 0x1F DUP4 ADD SLT PUSH2 0x781 JUMPI PUSH2 0x780 PUSH2 0x617 JUMP JUMPDEST JUMPDEST DUP2 CALLDATALOAD PUSH2 0x791 DUP5 DUP3 PUSH1 0x20 DUP7 ADD PUSH2 0x705 JUMP JUMPDEST SWAP2 POP POP SWAP3 SWAP2 POP POP JUMP JUMPDEST PUSH0 PUSH0 PUSH1 0x40 DUP4 DUP6 SUB SLT ISZERO PUSH2 0x7B0 JUMPI PUSH2 0x7AF PUSH2 0x60F JUMP JUMPDEST JUMPDEST PUSH0 DUP4 ADD CALLDATALOAD PUSH8 0xFFFFFFFFFFFFFFFF DUP2 GT ISZERO PUSH2 0x7CD JUMPI PUSH2 0x7CC PUSH2 0x613 JUMP JUMPDEST JUMPDEST PUSH2 0x7D9 DUP6 DUP3 DUP7 ADD PUSH2 0x76D JUMP JUMPDEST SWAP3 POP POP PUSH1 0x20 DUP4 ADD CALLDATALOAD PUSH8 0xFFFFFFFFFFFFFFFF DUP2 GT ISZERO PUSH2 0x7FA JUMPI PUSH2 0x7F9 PUSH2 0x613 JUMP JUMPDEST JUMPDEST PUSH2 0x806 DUP6 DUP3 DUP7 ADD PUSH2 0x76D JUMP JUMPDEST SWAP2 POP POP SWAP3 POP SWAP3 SWAP1 POP JUMP JUMPDEST PUSH0 DUP2 MLOAD SWAP1 POP SWAP2 SWAP1 POP JUMP JUMPDEST PUSH0 DUP3 DUP3 MSTORE PUSH1 0x20 DUP3 ADD SWAP1 POP SWAP3 SWAP2 POP POP JUMP JUMPDEST PUSH0 DUP2 SWAP1 POP PUSH1 0x20 DUP3 ADD SWAP1 POP SWAP2 SWAP1 POP JUMP JUMPDEST PUSH2 0x842 DUP2 PUSH2 0x6D2 JUMP JUMPDEST DUP3 MSTORE POP POP JUMP JUMPDEST PUSH0 PUSH2 0x853 DUP4 DUP4 PUSH2 0x839 JUMP JUMPDEST PUSH1 0x20 DUP4 ADD SWAP1 POP SWAP3 SWAP2 POP POP JUMP JUMPDEST PUSH0 PUSH1 0x20 DUP3 ADD SWAP1 POP SWAP2 SWAP1 POP JUMP JUMPDEST PUSH0 PUSH2 0x875 DUP3 PUSH2 0x810 JUMP JUMPDEST PUSH2 0x87F DUP2 DUP6 PUSH2 0x81A JUMP JUMPDEST SWAP4 POP PUSH2 0x88A DUP4 PUSH2 0x82A JUMP JUMPDEST DUP1 PUSH0 JUMPDEST DUP4 DUP2 LT ISZERO PUSH2 0x8BA JUMPI DUP2 MLOAD PUSH2 0x8A1 DUP9 DUP3 PUSH2 0x848 JUMP JUMPDEST SWAP8 POP PUSH2 0x8AC DUP4 PUSH2 0x85F JUMP JUMPDEST SWAP3 POP POP PUSH1 0x1 DUP2 ADD SWAP1 POP PUSH2 0x88D JUMP JUMPDEST POP DUP6 SWAP4 POP POP POP POP SWAP3 SWAP2 POP POP JUMP JUMPDEST PUSH0 PUSH1 0x20 DUP3 ADD SWAP1 POP DUP2 DUP2 SUB PUSH0 DUP4 ADD MSTORE PUSH2 0x8DF DUP2 DUP5 PUSH2 0x86B JUMP JUMPDEST SWAP1 POP SWAP3 SWAP2 POP POP JUMP JUMPDEST PUSH0 PUSH1 0x20 DUP3 DUP5 SUB SLT ISZERO PUSH2 0x8FC JUMPI PUSH2 0x8FB PUSH2 0x60F JUMP JUMPDEST JUMPDEST PUSH0 PUSH2 0x909 DUP5 DUP3 DUP6 ADD PUSH2 0x6F1 JUMP JUMPDEST SWAP2 POP POP SWAP3 SWAP2 POP POP JUMP JUMPDEST PUSH2 0x91B DUP2 PUSH2 0x6D2 JUMP JUMPDEST DUP3 MSTORE POP POP JUMP JUMPDEST PUSH0 PUSH1 0x20 DUP3 ADD SWAP1 POP PUSH2 0x934 PUSH0 DUP4 ADD DUP5 PUSH2 0x912 JUMP JUMPDEST SWAP3 SWAP2 POP POP JUMP JUMPDEST PUSH32 0x4E487B7100000000000000000000000000000000000000000000000000000000 PUSH0 MSTORE PUSH1 0x11 PUSH1 0x4 MSTORE PUSH1 0x24 PUSH0 REVERT JUMPDEST PUSH0 PUSH2 0x971 DUP3 PUSH2 0x6D2 JUMP JUMPDEST SWAP2 POP PUSH2 0x97C DUP4 PUSH2 0x6D2 JUMP JUMPDEST SWAP3 POP DUP3 DUP3 ADD SWAP1 POP DUP1 DUP3 GT ISZERO PUSH2 0x994 JUMPI PUSH2 0x993 PUSH2 0x93A JUMP JUMPDEST JUMPDEST SWAP3 SWAP2 POP POP JUMP JUMPDEST PUSH32 0x4E487B7100000000000000000000000000000000000000000000000000000000 PUSH0 MSTORE PUSH1 0x32 PUSH1 0x4 MSTORE PUSH1 0x24 PUSH0 REVERT JUMPDEST PUSH0 PUSH2 0x9D1 DUP3 PUSH2 0x6D2 JUMP JUMPDEST SWAP2 POP PUSH32 0xFFFFFFFFFFFFFFFFFFFFFFFFFFFFFFFFFFFFFFFFFFFFFFFFFFFFFFFFFFFFFFFF DUP3 SUB PUSH2 0xA03 JUMPI PUSH2 0xA02 PUSH2 0x93A JUMP JUMPDEST JUMPDEST PUSH1 0x1 DUP3 ADD SWAP1 POP SWAP2 SWAP1 POP JUMP JUMPDEST PUSH32 0x4E487B7100000000000000000000000000000000000000000000000000000000 PUSH0 MSTORE PUSH1 0x12 PUSH1 0x4 MSTORE PUSH1 0x24 PUSH0 REVERT JUMPDEST PUSH0 PUSH2 0xA45 DUP3 PUSH2 0x6D2 JUMP JUMPDEST SWAP2 POP PUSH2 0xA50 DUP4 PUSH2 0x6D2 JUMP JUMPDEST SWAP3 POP DUP3 PUSH2 0xA60 JUMPI PUSH2 0xA5F PUSH2 0xA0E JUMP JUMPDEST JUMPDEST DUP3 DUP3 DIV SWAP1 POP SWAP3 SWAP2 POP POP JUMP JUMPDEST PUSH0 PUSH2 0xA75 DUP3 PUSH2 0x6D2 JUMP JUMPDEST SWAP2 POP PUSH2 0xA80 DUP4 PUSH2 0x6D2 JUMP JUMPDEST SWAP3 POP DUP3 DUP3 SUB SWAP1 POP DUP2 DUP2 GT ISZERO PUSH2 0xA98 JUMPI PUSH2 0xA97 PUSH2 0x93A JUMP JUMPDEST JUMPDEST SWAP3 SWAP2 POP POP JUMP INVALID LOG2 PUSH5 0x6970667358 0x22 SLT KECCAK256 0xEB 0x22 RJUMPI 0x153 LOG4 0x4B PUSH25 0x33DA67E0299EC5FBEF0E426333A70B40DA8ED0A9E5AB11C664 PUSH20 0x6F6C634300081E00330000000000000000000000 "
				},
				"gasEstimates": {
					"creation": {
						"codeDepositCost": "554400",
						"executionCost": "585",
						"totalCost": "554985"
					},
					"external": {
						"compute(uint256)": "infinite",
						"doMerge(uint256[],uint256[])": "infinite",
						"merge(uint256[],uint256[])": "infinite"
					},
					"internal": {
						"merge1(uint256[] memory)": "infinite"
					}
				},
				"methodIdentifiers": {
					"compute(uint256)": "5ed86d5c",
					"doMerge(uint256[],uint256[])": "31bf1a01",
					"merge(uint256[],uint256[])": "088b9bf6"
				}
			},
			"storageLayout": {
				"storage": [],
				"types": null
			},
			"userdoc": {
				"kind": "user",
				"methods": {},
				"version": 1
			}
		}
	}
}